:020000040800F2
:10000000A03200209D0100088D3B00083736000813
:10001000893B00080B09000865700008000000001B
:10002000000000000000000000000000B7400008D1
:10003000370B000800000000B5400008CB40000866
:10004000B7010008B7010008B7010008B7010008B0
:10005000B7010008B7010008B7010008B7010008A0
:10006000B7010008B7010008B7010008B701000890
:10007000ED090008B7010008B7010008B701000842
:10008000FD090008B7010008B7010008B701000822
:10009000B7010008B7010008B7010008B701000860
:1000A000B7010008B7010008B7010008B701000850
:1000B000A5410008B7010008B9410008B7010008D0
:1000C000B7010008B7010008B7010008B701000830
:1000D000B7010008014C0008794C0008F14C0008F9
:1000E000B7010008B7010008B7010008B701000810
:1000F000B7010008B7010008B7010008B701000800
:10010000B7010008B7010008B7010008B7010008EF
:10011000B7010008B7010008B7010008B7010008DF
:10012000B70100080D0A00081D0A0008B701000801
:10013000B7010008B7010008B7010008B7010008BF
:10014000B7010008B7010008B7010008913B00089B
:10015000B7010008B7010008B7010008694D0008A1
:10016000B7010008B7010008B7010008B70100088F
:10017000B7010008B7010008B7010008000000003F
:10018000B7010008B7010008DFF80CD000F080FBD1
:1001900000480047C97C0008A0320020064880477C
:1001A00006480047FEE7FEE7FEE7FEE7FEE7FEE75C
:1001B000FEE7FEE7FEE7FEE7894100088901000847
:1001C0002DE9F05F0546002092469B46884606468C
:1001D000814640241BE0284641464746224600F01F
:1001E00088FA53465A46C01A914110D31146184610
:1001F000224600F06FFA2D1A67EB01084F4622469F
:100200000120002100F066FA17EB00094E41201E84
:10021000A4F10104DFDC484631462A464346BDE8E6
:10022000F09F40EA01039B0703D009E008C9121FB1
:1002300008C0042AFAD203E011F8013B00F8013BA0
:10024000521EF9D27047D2B201E000F8012B491ECC
:10025000FBD270470022F6E710B513460A46044663
:100260001946FFF7F0FF204610BD421C10F8011B95
:100270000029FBD1801A70472DE9FE4F804681EAA4
:100280000300C00F0C46009021F0004123F0004510
:10029000B8EB0200A94105D24046214690461C46D3
:1002A0000B46024623F00040104347D0270DC7F30A
:1002B0000A00C3F30A510290401A019040286BDAF9
:1002C000C3F3130040F4801B0098924620B1002332
:1002D000D2EB030A63EB0B0B01985946C0F14002C5
:1002E000504600F0F7F906460D4650465946019A29
:1002F00000F00FFA10EB08006141002487EA115268
:1003000084EAE7731A4340D0009A62B3019A012A43
:100310004FEA075215DC001B61EB02014FF000426F
:1003200002EA0752CDE90042001C41F58011324635
:100330002B4600F046FA03B0BDE8F08F4046214658
:10034000F9E7001B61EB0201001C41F58013001866
:100350005B412018A2F5001747EB030140EAD57076
:10036000B6196D4111E06D084FEA360645EAC075D1
:100370004FEA0752001B61EB0201001C41F580119E
:1003800049084FEA30000019514132462B4603B06C
:10039000BDE8F04F00F006BA0098012240000023AB
:1003A000D0EB020263EBE073009821464FEAE07461
:1003B000B8EB000061EB0401E9E783F000435BE781
:1003C00081F0004158E72DE9FE4F81EA030404F073
:1003D000004421F0004100944FF0000B23F0004353
:1003E00050EA01045ED052EA03045BD0C3F30A541E
:1003F000C1F30A552C44A4F2F3340194A0FB025437
:10040000C1F3130141F48011C3F3130343F48013C8
:1004100001FB024400FB034E840A970A44EA81541C
:1004200047EA8357A4FB076802958D0A05FB0785F9
:100430004FEA932C04FB0C542705029D4FEA065803
:1004400047EA1637B5EB08056EEB070C870E920EE0
:1004500047EA811742EA8312A7FB0201B6EB0B01C0
:1004600064EB00042B0D43EA0C335E1844EB1C5084
:10047000DA465146E7FB0201C5F313044FEA0B339A
:1004800043EA14534FEA0432019C43EA0603A4F101
:100490000C040294009CCDE900B400F092F903B082
:1004A000BDE8F08F00200146F9E72DE9F04D81EA23
:1004B000030404F0004B21F0004514464FF0000AFD
:1004C00023F0004150EA050220D054EA01021DD079
:1004D000C5F30A570246C5F31303C1F31300C1F372
:1004E0000A5640F4801543F48013A7EB0608101B4E
:1004F000D64608F2FD3873EB050002D308F1010877
:1005000001E092185B41B8F1000F03DA00200146C8
:10051000BDE8F08D00204FF48011064684460EE0C1
:10052000171B73EB050705D3121B63EB050306438B
:100530004CEA010C49084FEA300092185B4150EA3E
:100540000107EDD152EA030012D082EA040083EAE7
:100550000501084305D0101BAB4106D20122002340
:1005600006E000224FF0004302E06FF0010253105A
:100570001AEB06004CEB085110EB0A0041EB0B01A3
:10058000BDE8F04D00F00EB90EB5C10F80EAE07085
:100590000844CA07002140F233438DE80E000A46A2
:1005A0000B4600F00EF903B000BD70B5C1F30A525E
:1005B00001F000450024C1F3130140F2FF3341F480
:1005C00080119A4201DA002070BD40F233439A4212
:1005D000A2F2334203DC524200F08BF800E090407C
:1005E0002C43F1D0404270BD00F0004230F000409A
:1005F0000AD0C10D01F56071C0F3160042EA015145
:10060000C2084007114370470020014670470000B0
:1006100030B5041E71F1000404DB4FF00044404289
:1006200064EB0101141E73F1000405DB1C464FF05E
:100630000043524263EB04038B4208BF824230BD49
:1006400030B5041E71F1000404DB4FF00044404259
:1006500064EB0101141E73F1000405DB1C464FF02E
:100660000043524263EB0403994208BF904230BDFD
:1006700001F0004330B421F0004150EA010206D0FD
:100680000A0DA2F56072C1F31301002A02DC30BC2E
:1006900000207047440F44EAC104C100E01830BC98
:1006A00000EBC25000F047B830B50B4601460020C1
:1006B0002022012409E021FA02F59D4205D303FA24
:1006C00002F5491B04FA02F52844151EA2F10102A5
:1006D000F1DC30BD202A04DB203A00FA02F10020D0
:1006E00070479140C2F1200320FA03F31943904070
:1006F0007047202A04DB203A21FA02F000217047DB
:1007000021FA02F3D040C2F1200291400843194679
:100710007047202A06DBCB17203A41FA02F043EA61
:10072000E07306E041FA02F3D040C2F120029140AA
:100730000843194670470029A8BF7047401C49006C
:1007400008BF20F00100704710B4B0FA80FC00FA36
:100750000CF050EA010404BF10BC704749B1CCF161
:10076000200421FA04F411FA0CF118BF01212143ED
:100770000843A3EB0C01CB1D4FEA00614FEA1020A8
:1007800042BF002010BC704700EBC350104400294A
:10079000A4BF10BC7047401C490008BF20F00100F6
:1007A00010BC704710B5141E73F1000408DA401C29
:1007B00041F1000192185B411A4301D120F0010080
:1007C00010BD2DE9F04D92469B4611B1B1FA81F270
:1007D00002E0B0FA80F220329046FFF77BFF044639
:1007E0000F4640EA0A0041EA0B0153465A460843C5
:1007F00013D0114653EA010019D0C8F14002504607
:10080000FFF777FF05460E46504659464246FFF72A
:1008100061FF084305D0012004E020463946BDE8C9
:10082000F08D0020054346EAE0762C4337430A98D2
:100830006305E40AA0EB08000022FD0A44EA4754DD
:100840000A3002D500200146E9E701051019694187
:10085000DDE9084500196941BDE8F04DA2E7C1F3A3
:100860000A52C1F3130140F2FF3341F480119A425E
:1008700002DA00200146704740F233439A42A2F266
:10088000334202DC5242FFF734BFFFF723BF0000C0
:10089000064C074D06E0E06840F0010394E80700CD
:1008A00098471034AC42F6D3FFF772FCBC850008C1
:1008B000DC85000870B58C1810F8015B15F0070393
:1008C00001D110F8013B2A1106D110F8012B03E0E9
:1008D00010F8016B01F8016B5B1EF9D12B0705D4F1
:1008E0000023521E0DD401F8013BFAE710F8013B3A
:1008F000CB1A921C03E013F8015B01F8015B521E56
:10090000F9D5A142D8D3002070BD00BFFEE7034651
:10091000042B15D007DC7BB1012B0ED0022B0DD0A0
:10092000032B12D10BE0202B0BD0212B0AD0222B32
:1009300009D0232B09D107E008E007E006E005E035
:1009400004E003E002E001E000E000BF00BF00209F
:10095000704700207047000010B500220449054888
:1009600004F08EFB0449034804F083FB002010BD13
:10097000A01A0020C8090020A012002070B504466B
:100980000D46214606482A68FFF74BFC21460548DC
:1009900004F06FFB034804F047FB002070BD00002B
:1009A0003C020020C809002010B503460C46002177
:1009B000084610BD2DE9F04104460D4600260A48C0
:1009C000D0F8BC72D7F8140210B10120BDE8F08154
:1009D0002A462146044804F053FB034804F0D7FBA1
:1009E00006463046F2E70000C809002010B502486C
:1009F00000F028F910BD0000E808002010B50248FA
:100A000000F020F910BD00008808002010B5024851
:100A100000F018F910BD00004809002010B5024888
:100A200000F010F910BD00002808002001460878E9
:100A300010381823B0FBF3F20848805CC865032A1D
:100A400005D908686FF30900001D886503E0086890
:100A50006FF309008865886D704700009C85000869
:100A6000014600208A6A8B69CBB932B1012A0DD0C8
:100A7000022A03D0032A10D10EE000BFCB6A03F094
:100A80008073B3F1807F00D1012007E0CB6AB3F11E
:100A9000C07F00D1012001E000E000BF34E08B699D
:100AA000B3F5005F1AD132B1012A07D0022A03D070
:100AB000032A11D10AE000BF01200EE0CB6A03F047
:100AC0008073B3F1807F00D1012006E0CB6AB3F1DF
:100AD000C07F00D1012000E000BF15E032B1012A43
:100AE00005D0022A04D0032A0CD103E000BF00BFC6
:100AF000012008E0CB6A03F08073B3F1807F00D15E
:100B0000012000E000BF00BF704730B504682468D2
:100B100024F4802405682C60046863608468402C99
:100B200004D10468A2600468E16003E00468A16085
:100B30000468E26030BD70477047000070B50A4835
:100B40000468001D0568001D0668344454B108227D
:100B50000649204602F071FD04220449103128465E
:100B600002F06BFD70BD0000107AFF1F6A000020CC
:100B700070B50446A56D00F059FB064694F83500A3
:100B8000022808D08020606500BF002084F834006F
:100B900000BF012070BD2068006820F016002168A9
:100BA00008602068406920F0800021684861206C5E
:100BB00008B9A06C28B12068006820F008002168FE
:100BC00008602068006820F00100216808600FE0DC
:100BD00000F02CFB801B05280AD92020606500BF8F
:100BE000002084F8340000BF032084F83500D1E7EA
:100BF0002068006800F001000028E9D194F85C103A
:100C00003F208840A86000BF002084F8340000BF67
:100C1000012084F835000020BCE7014691F835003A
:100C2000022803D08020486501207047052081F804
:100C300035000868006820F001000A681060002094
:100C4000F3E70000F8B50446002000908C480068E7
:100C50004FF41651B0FBF1F7A56D2E6894F85C10B7
:100C600008208840304098B12068006800F00400F7
:100C700070B12068006820F004002168086094F8D2
:100C80005C1008208840A860606D40F0010060653D
:100C900094F85C1001208840304068B120684069B9
:100CA00000F0800040B194F85C1001208840A860FA
:100CB000606D40F00200606594F85C10042088408C
:100CC000304068B12068006800F0020040B194F83C
:100CD0005C1004208840A860606D40F004006065EE
:100CE00094F85C1010208840304078B32068006889
:100CF00000F0080050B394F85C1010208840A86001
:100D00002068006800F4802080B12068006800F44A
:100D1000002028B9206CC8B12046216C884715E016
:100D2000A06C98B12046A16C88470FE0206800684D
:100D300000F4807028B92068006820F0080021685D
:100D40000860206C10B12046216C884794F85C1034
:100D5000202088403040002865D02068006800F0DE
:100D6000100000285FD094F85C1020208840A86014
:100D700094F83500052828D12068006820F0160076
:100D8000216808602068406920F08000216848617F
:100D9000206C08B9A06C28B12068006820F0080019
:100DA0002168086094F85C103F208840A86000BF6C
:100DB000002084F8340000BF012084F83500206D45
:100DC00010B12046216D8847F8BD2068006800F406
:100DD000802080B12068006800F4002028B9606C91
:100DE00010B12046616C88471DE0E06BD8B1204609
:100DF000E16B884717E02068006800F4807068B9EC
:100E00002068006820F010002168086000BF002002
:100E100084F8340000BF012084F83500E06B10B185
:100E20002046E16B8847606D38B3606D00F00100CB
:100E3000F0B1052084F835002068006820F001003A
:100E40002168086000BF0098401C0090B84200D99B
:100E500005E02068006800F001000028F3D100BF21
:100E600000BF002084F8340000BF012084F8350062
:100E7000E06C10B12046E16C884700BFA4E7000099
:100E8000BC0000202DE9F0410446002500F0CEF919
:100E9000074614B90120BDE8F081606A00B100BFC7
:100EA00000BF002084F8340000BF022084F8350021
:100EB0002068006820F00100216808600AE000F066
:100EC000B5F9C01B052805D920206065032084F8EA
:100ED0003500E0E72068006800F001000028EED14E
:100EE0002068056821480540D4E901010843E1680C
:100EF00008432169084361690843A1690843E1691E
:100F00000843216A08430543606A042803D1D4E9F1
:100F10000B0108430543206805602068456925F0FA
:100F20000705606A0543606A04280DD1A06A05437D
:100F3000E06A48B12046FFF793FD28B14020606584
:100F4000012084F83500A6E7206845612046FFF7B8
:100F50006DFD064694F85C103F208840B06000208C
:100F60006065012084F83500002094E73F8010F090
:100F70002DE9F04704460D4616461F464FF000087F
:100F8000D4F8589000BF94F83400012802D1022010
:100F9000BDE8F087012084F8340000BF94F83500E4
:100FA000012825D1022084F83500002060653B46E9
:100FB000324629462046FFF7A8FD94F85C103F20F2
:100FC0008840C9F808002068006840F016002168D1
:100FD0000860206C28B12068006840F00800216893
:100FE00008602068006840F001002168086006E0A1
:100FF00000BF002084F8340000BF4FF002084046D4
:10100000C6E7000070B5044600F010F90646254614
:10101000681C10B104480078054400BF00F006F9D0
:10102000801BA842FAD370BDB8000020F8B5024674
:101030000B460025002400200021DCE0012606FAF2
:1010400001F51E6806EA0504AC4273D15E68012E04
:1010500008D05E68022E05D05E68112E02D05E6850
:10106000122E13D190684F000326BE40B0434F00AC
:10107000DE68BE4030439060506801268E40B04329
:101080001E79C6F300168E4030435060D0684F0082
:101090000326BE40B0434F009E68BE403043D06040
:1010A0005E68022E02D05E68122E13D1CF0802F1C4
:1010B000200656F827004E07F70E0F26BE40B04315
:1010C0004F07FF0E1E69BE403043CF0802F12006D5
:1010D00046F8270010684F000326BE40B0431E7933
:1010E00006F003064F00BE40304310605E6806F015
:1010F0008056B6F1805F7DD100BF00260096404E3D
:10110000366846F480463E4F3E603E46366806F4FA
:101110008046009600BF00BF3A4E8F0856F8270061
:101120008E07370F0F26BE40B043374EB24202D172
:10113000002624E05EE0354EB24201D101261EE0D9
:10114000334EB24201D1022619E0324EB24201D1F1
:10115000032614E0304EB24201D104260FE02F4E98
:10116000B24201D105260AE02D4EB24201D1062637
:1011700005E02C4EB24201D1072600E008268F0779
:101180003F0FBE4030431F4E8F0846F82700264EC3
:101190003068A0435E6806F48036B6F5803F00D123
:1011A0002043214E3060361D3068A0435E6806F44F
:1011B0000036B6F5003F00D120431B4E361D30608F
:1011C000361D3068A0435E6806F48016B6F5801FB1
:1011D00000D12043144E08363060361D3068A043DD
:1011E0005E6806F40016B6F5001F00D120430E4ECF
:1011F0000C363060491C1029FFF420AFF8BD000008
:101200004438024008380140000002400004024017
:1012100000080240000C024000100240001402408E
:1012200000180240001C0240003C014001480068D8
:1012300070470000B00000200348006803490978A7
:101240000844014908607047B0000020B800002041
:1012500010B50D48006840F400700B49086008465E
:10126000006840F4806008600846006840F48070C0
:101270000860032000F0A2F8002000F007F800F05A
:101280002BF8002010BD0000003C024070B5044661
:101290000E4800784FF47A71B1FBF0F00C49096800
:1012A000B1FBF0F5284601F02FFA08B1012070BD1E
:1012B000102C07D200222146501E00F041F80548AC
:1012C000046001E00120F2E70020F0E7B800002010
:1012D000BC000020B400002008B500BF0020009032
:1012E0000E48006840F480400C49086008460068D9
:1012F00000F48040009000BF00BF00BF00200090BD
:10130000081F006840F08050091F08600846006808
:1013100000F08050009000BF00BF08BD443802407C
:1013200001460846002809DB00F01F0301229A400D
:1013300043099B0003F1E023C3F8002100BF70477D
:101340002DE9F05F80460D461646002705F038FF70
:10135000074639462A46334601F00700C0F1070A1E
:10136000BAF1040F02D94FF0040A01E0C0F1070AF4
:10137000D14600F1040ABAF1070F02D24FF0000A79
:1013800001E0A0F1030AD4464FF0010A0AFA09FA73
:10139000AAF1010A0AEA020A0AFA0CFA4FF0010B52
:1013A0000BFA0CFBABF1010B0BEA030B4AEA0B0443
:1013B0002146404605F00CFFBDE8F09F00BF00F05D
:1013C0000702064B19684FF6FF031940044B0B4305
:1013D00043EA0221014B196000BF70470CED00E0A9
:1013E0000000FA057047024610684162002070470D
:1013F000F0B5034615461868446A21B944EA054029
:101400001E68B06219E01868806A04EB104400227C
:1014100008E0186800F5827050F8220004EB1044D0
:10142000501CC2B2481E9042F3D844EA05471868DF
:1014300000F582704E1E40F826700020F0BD10B5F9
:101440000446D4F8040404F07EFA10BD70B50446D6
:101450000D46C5EBC50304F13C0101EB8301CA68ED
:101460002946D4F8040404F0B2F970BD70B50446FE
:101470000D46C5EBC50304F5FE7101EB8301CA6897
:101480002946D4F8040404F015FA70BD10B50446DA
:10149000D4F8040404F05AFA10BD70B504460E46A0
:1014A00006F0800080280AD106F00F00C0EBC001D2
:1014B00004F13C0000EB81050120687009E006F0B2
:1014C0000F00C0EBC00104F5FE7000EB81050020A9
:1014D000687006F00F00287000BF94F8BC03012864
:1014E00001D1022070BD012084F8BC0300BF294651
:1014F000206804F035FF00BF002084F8BC0300BF63
:1015000000BFEFE770B504460E4606F00F006168B5
:10151000884201D9012070BD06F0800080280AD1E0
:1015200006F00F00C0EBC00104F13C0000EB8105A8
:101530000120687009E006F00F00C0EBC00104F55F
:10154000FE7000EB8105002068700020A87006F096
:101550000F00287000BF94F8BC03012801D10220BD
:10156000D9E7012084F8BC0300BF2946206805F0B4
:10157000D9F900BF002084F8BC0300BF00BFCAE750
:10158000024601F00F00C0EBC00302F5FE7000EB55
:101590008300806970472DE9F04705460E46904666
:1015A0001F464FF0000906F0800080280AD106F09F
:1015B0000F00C0EBC00105F13C0000EB81040120ED
:1015C000607009E006F00F00C0EBC00105F5FE7089
:1015D00000EB81040020607006F00F002070C4F85A
:1015E0000880E770607808B12078E080022F01D190
:1015F0000020207100BF95F8BC03012802D1022011
:10160000BDE8F087012085F8BC0300BF21462868AB
:1016100004F0C2FD00BF002085F8BC0300BF4846AF
:10162000EEE72DE9F04104460E461746984606F0CF
:101630000F00C0EBC00104F5FE7000EB8105EF6008
:10164000C5F814800020A861687006F00F002870AB
:101650002069012800D12F6106F00F0028B9227CF3
:101660002946206805F03AF804E0227C29462068E3
:1016700005F0ECF90020BDE8F08170B504460D4698
:1016800005F00F006168884201D9012070BD05F0A6
:10169000800080280AD105F00F00C0EBC00104F1E2
:1016A0003C0000EB81060120707007E0C5EBC5012E
:1016B00004F5FE7000EB8106002070700120B07010
:1016C00005F00F00307000BF94F8BC03012801D171
:1016D0000220DBE7012084F8BC0300BF314620680C
:1016E00005F067F905F00F0028B9217C04F5717247
:1016F000206805F0DFF800BF002084F8BC0300BFBD
:1017000000BFC3E72DE9F04104460E461746984650
:1017100006F00F00C0EBC00104F13C0000EB8105B6
:10172000EF60C5F814800020A8610120687006F001
:101730000F0028702069012800D12F6106F00F00EA
:1017400028B9227C2946206804F0C8FF04E0227CE6
:101750002946206805F07AF90020BDE8F0812DE9DE
:10176000FE4F044620680290029D206805F059FB58
:1017700000287DD1206805F093FB08B9BDE8FE8FF5
:10178000206805F08DFB00F00200022805D12068DA
:10179000406900F0020021684861206805F080FB84
:1017A00000F01000102846D12068806920F0100059
:1017B000216888610298D0F8209009F00F00C0EBF2
:1017C000C00104F5FE7000EB810BC9F34340022811
:1017D0001AD147F6F07009EA000030B3C9F30A12D3
:1017E000DBF80C10029805F060FBC9F30A11DBF876
:1017F0000C000844CBF80C00C9F30A11DBF8180000
:101800000844CBF8180010E0C9F3434006280CD177
:10181000082204F57171029805F047FBC9F30A111B
:10182000DBF818000844CBF818002068806940F005
:10183000100021688861206805F032FB00F4002068
:10184000B0F5002F52D10026206805F0F9FA824643
:1018500049E00AF00100E8B3F1B2206805F013FB9B
:10186000804608F0010058B1012105F5306000E024
:1018700021E200EB461081603146204602F0C2F9B9
:1018800008F00800082809D1082105F5306000EBB0
:10189000461081603146204602F082F908F01000BF
:1018A000102805D1102105F5306000EB461081604D
:1018B00008F02000202805D1202105F5306000EB3C
:1018C0004610816008F40050B0F5005F08D14FF475
:1018D000005100E004E005F5306000EB4610816047
:1018E000761C4FEA5A0ABAF1000FB2D1206805F00F
:1018F000D7FA00F48020B0F5802F7ED1206805F063
:1019000095FA8246002683E00AF0010000287CD088
:10191000F1B2206805F09EFA804608F00100F0B3AD
:1019200006F00F0101208840019040F63400415933
:10193000019821EA000040F634014851012105F5E3
:10194000106000EB461081602069012824D1C6EBAD
:10195000C60104F13C0000EB8100C6EBC602C16881
:1019600004F13C0000EB820080680144C6EBC60233
:1019700004F13C0000EB8200C1606EB9C6EBC60109
:1019800004F13C0000EB8100406928B904F5717254
:101990000121206804F08EFFF1B2204600E001E052
:1019A000FFF754FD08F00800082805D1082105F5C7
:1019B000106000EB4610816008F01000102805D17F
:1019C000102105F5106000EB4610816008F0400022
:1019D000402805D1402105F5106000EB46108160DC
:1019E00008F00200022805D1022105F5106000EB85
:1019F0004610816008F0800001E00DE005E08028DD
:101A000003D13146204602F0BBF9761C4FEA5A0A50
:101A1000BAF1000F7FF478AF206805F041FA00F0CA
:101A20000040B0F1004F1CD140F60400405920F0B6
:101A3000010140F60400415194F8F403012807D154
:101A4000002084F8F40300212046FFF7CBFC02E0DD
:101A5000204600F063FA2068406900F000402168E9
:101A60004861206805F01CFA00F40060B0F5006FD2
:101A70000ED140F60800405900F0010010B1204698
:101A800000F0A4FA2068406900F400602168486111
:101A9000206805F005FA00F48050B0F5805F7DD134
:101AA00040F60400405920F0010140F60400415185
:101AB0001021206805F08AF900273EE04FF67F31BB
:101AC00005F5106000EB4710816005F5106000EB34
:101AD0004710006820F4001105F5106000EB471076
:101AE000016005F5106000EB4710006840F00061F0
:101AF00005F5106000EB471001604FF67F3105F5EA
:101B0000306000EB4710816005F5306000EB471056
:101B1000006820F4001105F5306000EB471001600B
:101B200005F5306000EB4710006840F0006105F5F6
:101B3000306000EB471001607F1C6068B842BDD880
:101B400040F61C00405940F0011140F61C00415184
:101B5000206B70B1D5F8840840F00B01C5F88418EB
:101B600040F64400405940F00B0140F6440041511A
:101B70000FE040F61400405942F22B01084340F6B2
:101B800014014851081F405940F00B014FF4016007
:101B90004151D5F8000820F4FE6000E00DE0C5F8E2
:101BA0000008217C04F57172206804F083FE20682F
:101BB000406900F4805021684861206805F070F9A0
:101BC00000F40050B0F5005F17D1206804F04CFB22
:101BD000206805F013F9E06000F0D4FA0090227B51
:101BE0002068009905F0ACF9204600F07FF92068E4
:101BF000406900F4005021684861206805F050F900
:101C000000F00800082808D1204600F08EF920686E
:101C1000406900F0080021684861206805F040F93B
:101C200000F48010B0F5801F0AD10026314620460E
:101C300000F043F82068406900F480102168486192
:101C4000206805F02DF900F40010B0F5001F0AD14E
:101C500000263146204600F039F82068406900F43B
:101C6000001021684861206805F01AF900F08040F2
:101C7000B0F1804F08D12046FFF7E1FB20684069B2
:101C800000F0804021684861206805F009F900F003
:101C9000040004280FD12068D0F8049009F0040053
:101CA000042802D12046FFF7F1FB2068406840EA93
:101CB00009002168486000BF60E570B504460D4624
:101CC0002946D4F8040403F0ABFE70BD70B5044699
:101CD0000D462946D4F8040403F0A5FE70BD70B586
:101CE0008AB0044614B901200AB070BD266894F881
:101CF000BD0328B9002084F8BC03204600F0A2F8F8
:101D0000032084F8BD03F06B00F4807008B9002153
:101D10002161206804F0DAFC282204F110016846F1
:101D2000FEF77FFA94E80F0004F0B2FA20B1022027
:101D300084F8BD030120D7E70021206805F0C6F82C
:101D4000002531E00121C5EBC50204F13C0000EBA8
:101D500082004170C5EBC50104F13C0000F8215040
:101D6000C5EBC50100EB8100C5800021C5EBC502B4
:101D700004F13C0000EB8200C170C5EBC50204F128
:101D80003C0000EB82008160C5EBC50204F13C0021
:101D900000EB8200C160C5EBC50204F13C0000EB22
:101DA00082004161681CC5B26068A842CAD800259B
:101DB0002AE00021C5EBC50204F5FE7000EB8200AD
:101DC0004170C5EBC50104F5FE7000F821500021FB
:101DD000C5EBC50200EB8200C170C5EBC50204F57E
:101DE000FE7000EB82008160C5EBC50204F5FE7059
:101DF00000EB8200C160C5EBC50204F5FE7000EB8C
:101E000082004161681CC5B26068A842D1D828220E
:101E100004F110016846FEF704FA94E80F0004F09C
:101E200065FB20B1022084F8BD0301205CE700209F
:101E300084F83800012084F8BD03206804F046FBD4
:101E4000002051E710B586B00446142101A8FEF722
:101E500001FA2068B0F1A04F42D100BF00200090ED
:101E60002048006840F001001E49086008460068EC
:101E700000F00100009000BF00BF4FF4C05001907F
:101E80000220029000200390032004900A20059075
:101E900001A91548FFF7CAF800BF1248001D0068E5
:101EA00040F080000F49091D086000BF002000902D
:101EB0000C481430006840F480400A49143108602E
:101EC0000846006800F48040009000BF00BF00BFDB
:101ED000002211464320FFF733FA4320FFF720FA90
:101EE00006B010BD303802400000024070B5044614
:101EF0000125E06808B9002506E0E068022801D164
:101F0000012501E0FEF718FE2946D4F8040403F089
:101F100006FED4F8040403F0B9FD70BD10B5044604
:101F2000D4F8040403F0DFFD10BD10B50446D4F866
:101F3000040403F0E3FD10BD70B504460D4600BF78
:101F400094F8BC03012801D1022070BD012084F85F
:101F5000BC0300BF84F838502946206804F0D1FF44
:101F600000BF002084F8BC0300BF00BFEDE710B540
:101F7000044604F57171D4F8040403F0E7FD10BDC4
:101F800070B50446256800BF94F8BC03012801D150
:101F9000022070BD012084F8BC0300BFA06A0128A4
:101FA00006D1A069012803D0A86B40F48030A86353
:101FB000206804F07BFA206804F0EAFE00BF0020ED
:101FC00084F8BC0300BF00BFE3E7000010B504467F
:101FD000D4F8040403F017FE2068D0F8000E40F097
:101FE00001002168C1F8000E206A28B1034800688A
:101FF00040F006000149086010BD000010ED00E04F
:1020000070B504460D460CB9012070BD58480068F3
:1020100000F00F00A84209D255490D70084600682B
:1020200000F00F00A84201D00120EEE7207800F078
:10203000020002281DD1207800F00400042805D1F8
:102040004C48006840F4E0504A490860207800F0AD
:102050000800082805D14748006840F46040454919
:1020600008604448006820F0F000A1680843414936
:102070000860207800F00100A8B36068012807D14B
:102080003C4808380068C0F34040B8B90120BCE7BC
:102090006068022802D06068032807D135480838F4
:1020A0000068C0F3406048B90120AEE73148083805
:1020B0000068C0F3400008B90120A6E72D48006879
:1020C00020F00300616808432A490860FFF7AEF872
:1020D000064609E0FFF7AAF8801B41F288318842E2
:1020E00002D9032091E707E02248006800F00C00C5
:1020F0006168B0EB810FEDD11D48006800F00F0062
:10210000A84209D91A490D700846006800F00F006E
:10211000A84201D0012078E7207800F004000428CC
:1021200007D11448006820F4E050E16808431149E1
:102130000860207800F00800082808D10D480068E1
:1021400020F46040216940EAC1000A49086000F0BB
:102150003FF808490968C1F30311074A515CC840B8
:102160000649086006480068FFF790F800204CE731
:10217000003C024008380240A4850008BC00002052
:10218000B40000200148006870470000BC00002037
:1021900000B5FFF7F7FF04490968C1F38221034A3C
:1021A000515CC84000BD000008380240B4850008FA
:1021B00000B5FFF7E7FF04490968C1F34231034A5C
:1021C000515CC84000BD000008380240B4850008DA
:1021D0002DE9F047002400250026A1462548006887
:1021E00000F00C0020B1042805D008283AD105E001
:1021F000DFF8849039E0DFF8849036E01D48001F56
:10220000006800F03F041B48001F006800F48000D5
:1022100078B11A481749091F0968C1F38811A0FB52
:1022200001700146224600233846FDF7C9FF0546E6
:102230000EE011480F49091F0968C1F38811A0FB7E
:1022400001700146224600233846FDF7B9FF0546D6
:102250000848001F0068C0F30140401C4600B5FB61
:10226000F6F902E0DFF8109000BF00BF4846BDE875
:10227000F0870000083802400024F40000127A00C1
:10228000F8B504460CB90120F8BD207800F0010033
:10229000002874D0F948006800F00C0004280DD024
:1022A000F648006800F00C00082813D1F348001F1E
:1022B000006800F48000B0F5800F0BD1EF480838BB
:1022C0000068C0F34040002859D06068002856D10B
:1022D0000120D9E700BF6068B0F5803F08D1E7482A
:1022E0000838006840F48030E449083908601EE08E
:1022F0006068B0F5A02F0DD1E0480838006840F4C0
:102300008020DE49083908600846006840F48030C3
:1023100008600CE0D9480838006820F48030D749BC
:10232000083908600846006820F48020086000BF73
:10233000606890B1FEF77AFF054606E0FEF776FF8B
:10234000401B642801D903209EE7CC480838006868
:10235000C0F340400028F1D011E0FEF767FF0546CA
:1023600006E0FEF763FF401B642801D903208BE7DA
:10237000C24808380068C0F340400028F1D12078F6
:1023800000F0020002285FD1BC48006800F00C0099
:1023900058B1BA48006800F00C0008281CD1B748B2
:1023A000001F006800F48000B0B9B4480838006825
:1023B000C0F3400020B1E068012801D0012063E7AC
:1023C000AE480838006820F0F800216940EAC100F2
:1023D000AA490839086037E0E06800B30120A8493D
:1023E0000860FEF723FF054606E0FEF71FFF401BCF
:1023F000022801D9032047E7A04808380068C0F345
:1024000040000028F1D09D480838006820F0F8000E
:10241000216940EAC10099490839086014E00020A8
:1024200097490860FEF702FF054606E0FEF7FEFE4C
:10243000401B022801D9032026E79048083800688D
:10244000C0F340000028F1D1207800F008000828EF
:102450002CD16069A8B101208A490860FEF7E6FE28
:10246000054606E0FEF7E2FE401B022801D90320E4
:102470000AE782486C300068C0F340000028F1D0C1
:1024800014E000207F490860FEF7D0FE054606E014
:10249000FEF7CCFE401B022801D90320F4E6774862
:1024A0006C300068C0F340000028F1D1207800F0C3
:1024B0000400042870D1002770483830006800F00C
:1024C000805090B900BF002000906C483830006800
:1024D00040F080506949383108600846006800F0D3
:1024E0008050009000BF00BF01276748006800F4DB
:1024F0008070B0B96448006840F480706249086038
:10250000FEF794FE054606E0FEF790FE401B02280B
:1025100001D90320B8E65C48006800F48070002808
:10252000F2D000BFA068012808D154486830006884
:1025300040F001005149683108601DE0A06805289D
:102540000DD14E486830006840F004004B496831B6
:1025500008600846006840F0010008600CE0474849
:102560006830006820F0010044496831086008467E
:10257000006820F00400086000BFA068A8B1FEF762
:1025800055FE054609E0FEF751FE401B41F2883139
:10259000884202D9032077E626E038486830006890
:1025A000C0F340000028EED013E0FEF73FFE0546E2
:1025B00008E0FEF73BFE401B41F28831884201D91A
:1025C000032061E62D4868300068C0F34000002811
:1025D000EFD1012F07D129483830006820F0805012
:1025E00026493831086000BFA069002845D023483B
:1025F000006800F00C0008285DD0A069022845D1D1
:1026000000201F490866FEF711FE054606E0FEF7AA
:102610000DFE401B022801D9032035E61748083873
:102620000068C0F340600028F1D1D4E907010843F5
:10263000616A40EA81110122A06AC2EB500041EABE
:1026400000412C20005D41EA00600C49091F086030
:1026500001200B490866FEF7E9FD054606E0FEF796
:10266000E5FD401B022801D903200DE60348083888
:102670000068C0F340600028F1D03FE00838024015
:1026800000004742800E47420070004000201C4975
:102690000866FEF7CBFD054606E0FEF7C7FD401BCA
:1026A000022801D90320EFE516480068C0F3406016
:1026B0000028F2D122E0A069012800D1E4E5114808
:1026C000001D066806F48001E069814214D106F01D
:1026D0003F01206A81420FD147F6C0703040616AE5
:1026E000884209D106F44031A06A814204D106F043
:1026F0007061E06A814201D00120C5E50020C3E598
:10270000000047420038024070B504462546681E66
:10271000B0F1807F01D301200FE0681E4FF0E0216F
:1027200048610F214FF0FF3004F052FD00204FF0C0
:10273000E021886107200861002070BD7047704764
:1027400030B502460B4600BF92F83C00012801D18B
:10275000022030BD012082F83C0000BF022082F838
:102760003D00106844681068816824F0700418689F
:10277000044310684460184D1068A8421BD01068CC
:10278000B0F1804F17D0154D1068A84213D0144DEA
:102790001068A8420FD0134D1068A8420BD0124DFC
:1027A0001068A84207D0114D1068A84203D0104D00
:1027B0001068A84205D121F08001586801431068D3
:1027C0008160012082F83D0000BF002082F83C00BB
:1027D00000BF00BFBDE70000000001400004004052
:1027E00000080040000C004000040140004001408F
:1027F0000018004010B504460CB9012010BD94F833
:102800003D0028B9002084F83C00204600F00CF878
:10281000022084F83D00211D206801F025FD0120E3
:1028200084F83D000020E9E738B504462068B0F19F
:10283000804F18D100BF002000902348006840F06E
:102840000100214908600846006800F0010000907E
:1028500000BF00BF002211461C20FEF771FD1C20A6
:10286000FEF75EFD2FE01949206888420FD100BFB6
:10287000002000901448006840F0020012490860EF
:102880000846006800F00200009000BF1BE01049FD
:102890002068884217D100BF002000900A480068D5
:1028A00040F00400084908600846006800F0040091
:1028B000009000BF00BF002211461E20FEF740FD21
:1028C0001E20FEF72DFD38BD4038024000040040B8
:1028D0000008004001460868C06840F001000B682D
:1028E000D8600868806800F00702062A05D00868EA
:1028F000006840F001000B681860002070472DE967
:10290000F04104460D4600BF94F83C00012802D176
:102910000220BDE8F081012084F83C0000BF0220C5
:1029200084F83D002068866826F0770626F47F4606
:10293000206886602868502833D00CDC202850D0CE
:1029400004DC00284BD0102851D149E0302849D070
:1029500040284CD139E060282DD0702807D0B0F540
:10296000805F03D0B0F5005F41D10DE040E0D5E9D4
:1029700002136A68206801F0F4FC2068866846F05B
:1029800077062068866033E0D5E902136A6820681C
:1029900001F0E7FC2068806840F48040216888608E
:1029A00026E0EA686968206801F0CCFD50212068C3
:1029B00001F0E2FC1CE0EA686968206801F0D5FDDE
:1029C0006021206801F0D8FC12E0EA68696820689C
:1029D00001F0B8FD4021206801F0CEFC08E000BF06
:1029E00000BF00BF2968206801F0C6FC00E000BFFE
:1029F00000BF012084F83D0000BF002084F83C00A7
:102A000000BF00BF85E72DE9F04104460D4614B92B
:102A10000120BDE8F08194F83D0028B9002084F839
:102A20003C00204600F046F8022084F83D00206873
:102A3000806844F20701884321688860211D20686E
:102A400001F012FC2068D0F80880206886692068B0
:102A5000076A286840EA080840F203308643A969FB
:102A6000A86840EA0120064340F60C4086434FF236
:102A7000F0008643E969E86840EA012006432869D6
:102A80000001296A40EA0130064327F0220727F0B7
:102A900088076969686840EA011007432068C0F840
:102AA00008802068866120680762012084F83D0064
:102AB0000020AEE710B586B00446142101A8FDF74A
:102AC000C9FB1B49206888422FD100BF002000901D
:102AD0001848006840F00100164908600846006880
:102AE00000F00100009000BF00BF00BF0020009078
:102AF00010481438006840F010000E49143908607E
:102B00000846006800F01000009000BF00BF4FF4BE
:102B10002060019002200290002003900490012088
:102B2000059001A90448FEF781FA06B010BD000027
:102B300000000140443802400010024030B5044615
:102B40000D4615B1042D0CD105E0012200212068AD
:102B500001F0F6FB10E001220421206801F0F0FBF7
:102B60000AE001220021206801F0EAFB0122042191
:102B7000206801F0E5FB00BF00BF2068006840F05E
:102B8000010021680860002030BD704710B5044680
:102B900020680069C0F34000D8B12068C068C0F365
:102BA0004000B0B16FF00200216808610120207779
:102BB0002068806900F0030018B12046FFF7E5FFA8
:102BC00005E0204600F0DEF8204600F07BF900200A
:102BD000207720680069C0F38000D8B12068C06801
:102BE000C0F38000B0B16FF00400216808610220DA
:102BF00020772068806900F4407018B12046FFF704
:102C0000C4FF05E0204600F0BDF8204600F05AF968
:102C10000020207720680069C0F3C000D8B1206888
:102C2000C068C0F3C000B0B16FF00800216808614F
:102C3000042020772068C06900F0030018B1204606
:102C4000FFF7A3FF05E0204600F09CF8204600F0C7
:102C500039F90020207720680069C0F30010D8B14E
:102C60002068C068C0F30010B0B16FF01000216898
:102C70000861082020772068C06900F4407018B10E
:102C80002046FFF782FF05E0204600F07BF8204653
:102C900000F018F9002020772068006900F001009A
:102CA00058B12068C06800F0010030B16FF0010039
:102CB00021680861204600F033F920680069C0F3FC
:102CC000C01058B12068C068C0F3C01030B16FF0B8
:102CD0008000216808612046FFF730FD2068006908
:102CE000C0F3801058B12068C068C0F3801030B1C4
:102CF0006FF0400021680861204600F012F920685A
:102D00000069C0F3401058B12068C068C0F340109B
:102D100030B16FF02000216808612046FFF70FFDF9
:102D200010BD000010B586B00446142101A8FDF7BF
:102D300091FA1149206888421CD100BF0020009000
:102D40000E48006840F001000C4908600846006821
:102D500000F00100009000BF00BFC02001900220E1
:102D600002900020039004900220059001A90448DD
:102D7000FEF75CF906B010BD000400403038024098
:102D800000000240704770B504460D46164600BF6D
:102D900094F83C00012801D1022070BD012084F884
:102DA0003C0000BF022084F83D0036B1042E1BD049
:102DB000082E31D00C2E5ED145E02946206801F066
:102DC000E5FA2068806940F0080021688861206881
:102DD000806920F004002168886120688069296981
:102DE00008432168886147E02946206801F006FB16
:102DF0002068806940F400602168886120688069EB
:102E000020F480602168886120688069296940EA2F
:102E10000120216888612FE02946206801F02CFB01
:102E20002068C06940F008002168C8612068C06956
:102E300020F004002168C8612068C069296908433E
:102E40002168C86118E02946206801F051FB20681C
:102E5000C06940F400602168C8612068C06920F43E
:102E600080602168C8612068C069296940EA012042
:102E70002168C86100E000BF00BF012084F83D0068
:102E800000BF002084F83C0000BF00BF85E710B5FC
:102E900004460CB9012010BD94F83D0028B900206B
:102EA00084F83C00204600F00CF8022084F83D0035
:102EB000211D206801F0D8F9012084F83D00002090
:102EC000E9E770477047000070B504460E460122DE
:102ED0003146206801F034FA0F492068884203D057
:102EE0000E492068884201D1012000E0002028B16D
:102EF0002068406C40F40040216848642068806885
:102F000000F00705062D05D02068006840F001009C
:102F100021680860002070BD0000014000040140ED
:102F20007047704770B50446002520684069C0F3BB
:102F3000C01594F8390021280ED16DB12068406980
:102F400020F0800021684861206B10B1206BFDF7F4
:102F50000FFE204601F099FB20684069C0F3801500
:102F600094F83A0022280ED16DB12068406920F013
:102F7000400021684861606B10B1606BFDF7F8FD9F
:102F8000204601F062FB002070BD70472DE9F0473C
:102F90000446206805682068C668206847694FF0C5
:102FA0000008C14605F00F08B8F1000F0AD105F07E
:102FB000200038B106F0200020B1204601F06FFB60
:102FC000BDE8F087B8F1000F72D007F0010018B922
:102FD00006F4907000286BD005F0010030B106F4C3
:102FE000807018B1E06B40F00100E06305F0040070
:102FF00030B107F0010018B1E06B40F00200E0636F
:1030000005F0020030B107F0010018B1E06B40F0AC
:103010000400E06305F0080048B106F0200010B994
:1030200007F0010018B1E06B40F00800E063E06BCE
:1030300070B305F0200028B106F0200010B1204642
:1030400001F02DFB20684069C0F38019E06B00F0AF
:10305000080010B9B9F1000F23D0204601F0F5FAAD
:103060002068406900F04000402816D1206840697F
:1030700020F0400021684861606B50B11748616BD7
:103080000865606BFDF7C9FD10B1606B016D884785
:103090000CE02046FFF779FF08E02046FFF775FFB8
:1030A00004E02046FFF771FF0020E06388E7FFE7B8
:1030B00005F0800030B106F0800018B1204601F024
:1030C00035FD7DE705F0400030B106F0400018B155
:1030D000204601F0CAFA73E700BF71E79345000884
:1030E00010B504460CB9012010BDA06900B100E084
:1030F00000BF94F8390028B9002084F83800204631
:1031000000F028F8242084F839002068C06820F4F2
:1031100000502168C860204601F014FB2068006957
:1031200020F49040216808612068406920F02A005E
:10313000216848612068C06840F400502168C86078
:103140000020E063202084F8390084F83A00002051
:10315000CAE7000010B586B00446142101A8FDF7A7
:1031600079F8BE492068884259D100BF00200090FC
:10317000BB48006840F01000B94908600846006884
:1031800000F01000009000BF00BF00BF00200090C2
:10319000B3481438006840F00100B14914390860A0
:1031A0000846006800F00100009000BF00BF4FF427
:1031B000C060019002200290002003900320049040
:1031C0000720059001A9A748FDF730FFA648A749A9
:1031D00008604FF0006048600021A4488160C16031
:1031E0004FF480610161002141618161C1614FF44F
:1031F0000031016200214162FDF744FE08B1FDF794
:103200009BFC00BF99486063846300BF00221146A5
:103210002520FEF795F82520FEF782F81BE194495A
:10322000206888425AD100BF002000908C48001FBF
:10323000006840F400308A49091F086008460068A9
:1032400000F40030009000BF00BF00BF00200090DD
:1032500083481438006840F001008149143908603F
:103260000846006800F00100009000BF00BF0C207D
:103270000190022002900120039003200490072077
:10328000059001A97748FDF7D1FE7A487A49086090
:103290004FF000604860002177488160C1604FF4C2
:1032A00080610161002141618161C1614FF40031A0
:1032B000016200214162FDF7E5FD08B1FDF73CFC2C
:1032C00000BF6D486063846300BF00221146262062
:1032D000FEF736F82620FEF723F8BCE067492068A1
:1032E00088425CD100BF002000905D48001F00684C
:1032F00040F480205A49091F08600846006800F41D
:103300008020009000BF00BF00BF00200090544804
:103310001438006840F0020051491439086008462A
:10332000006800F00200009000BF00BF4FF4406052
:1033300001900220029000200390032004900720B7
:10334000059001A94E48FDF771FE4A4860384D4985
:1033500008604FF00060486000214A488160C16009
:103360004FF480610161002141618161C1614FF4CD
:103370008031016200214162FDF784FD08B1FDF753
:10338000DBFB00BF3F486063846300BF002211463F
:103390002720FDF7D5FF2720FDF7C2FF5BE03A4964
:1033A0002068884257D100BF002000902C48006858
:1033B00040F020002A4908600846006800F020001C
:1033C000009000BF00BF00BF0020009024481438C8
:1033D000006840F00400224914390860084600687B
:1033E00000F00400009000BF00BFC0200190022048
:1033F000029000200390032004900820059001A96A
:103400002248FDF713FE1848183821490860800546
:10341000486000211E488160C1604FF480610161F5
:10342000002141618161C1614FF48031016200215D
:103430004162FDF727FD08B1FDF77EFB00BF144890
:103440006063846300BF002211464720FDF778FFC8
:103450004720FDF765FF06B010BD000000100140D9
:103460004438024000000240406402402808002026
:103470000044004088600240880800200048004066
:1034800000040240E8080020001401400008024047
:103490004809002077B581B00446154694F83A00F3
:1034A000202850D1029800B115B9012004B070BD98
:1034B00000BF94F83800012801D10220F6E701206E
:1034C00084F8380000BF0298A062A5850020E06360
:1034D000222084F83A001D48616BC8631C48616B68
:1034E00008641C48616BC8640020616B086502AE0B
:1034F00032682368191D2B46606BFDF739FD00BF4C
:1035000000200090206800680090206840680090CB
:1035100000BF00BF00BF002084F8380000BF206853
:10352000C06840F480702168C8602068406940F03D
:103530000100216848612068406940F0400021682E
:1035400048610020B2E70220B0E70000F74500081C
:103550003D460008A7450008704770472DE9F8432D
:1035600004460D4616461F464FF0000994F83900F0
:1035700020285DD105B116B90120BDE8F88300BF50
:1035800094F83800012801D10220F6E7012084F8E0
:10359000380000BF0020E063212084F83900FDF7E7
:1035A00045FE8146A684E68400BF002084F83800EA
:1035B00000BF2BE0E08C401EE084A068B0F5805F87
:1035C00016D14B46002280212046009701F0E2FAF6
:1035D00008B10320D1E7A846B8F80000C0F30800FE
:1035E00021684860206908B9AD1C0FE06D1C0DE032
:1035F0004B46002280212046009701F0CBFA08B10B
:103600000320BAE715F8010B21684860E08C002818
:10361000D0D14B46002240212046009701F0BAFA53
:1036200008B10320A9E7202084F839000020A4E78E
:103630000220A2E7704700BFFEE730B50B4600212D
:1036400000BF16E00A24B4EB107F05D9302404EB48
:10365000107403F8114005E0412404EB10740A3C97
:1036600003F81140000100254C00641C1D554C1C42
:10367000E1B29142E6DB30BD08B500BF002000900A
:103680001E48006840F400101C49086008460068A5
:1036900000F40010009000BF00BF00BF00200090A9
:1036A0000846006840F4800008600846006800F49E
:1036B0008000009000BF00BF002211460C20FDF7E3
:1036C0003FFE0C20FDF72CFE002211461020FDF7D6
:1036D00037FE1020FDF724FE002211463920FDF7A9
:1036E0002FFE3920FDF71CFE002211463A20FDF77F
:1036F00027FE3A20FDF714FE08BD000030380240D6
:1037000008B500BF002000902448006840F0040085
:10371000224908600846006800F00400009000BFDD
:1037200000BF00BF002000900846006840F0800005
:1037300008600846006800F08000009000BF00BFED
:1037400000BF002000900846006840F001000860BB
:103750000846006800F00100009000BF00BF00BFF5
:10376000002000900846006840F0100008600846FD
:10377000006800F01000009000BF00BF00BF0020F4
:1037800000900846006840F00200086008460068A3
:1037900000F00200009000BF00BF08BD30380240BA
:1037A00000B58BB0242102A8FCF754FD0020009046
:1037B00001901C481C4908600320486000211A48F9
:1037C00081604FF6FF71C16000210161416181613B
:1037D0000320029000200390012004900020059017
:1037E0000A200690002007900120089000200990F0
:1037F0000A200A9002A90C48FFF705F908B1FDF765
:103800009BF900200090019069460748FEF798FF59
:1038100008B1FDF791F93C210348FFF78FF90BB090
:1038200000BD0000000001402806002000B587B060
:1038300000200390049005900690019002904FF0B4
:1038400080401649086040F2473048600021134824
:1038500081604FF47A71C160002101618161FEF7DE
:10386000C9FF08B1FDF768F94FF48050039003A930
:103870000A48FFF744F808B1FDF75EF9002001900F
:10388000029001A90548FEF75BFF08B1FDF754F966
:103890000248FFF71FF807B000BD000068060020CF
:1038A00000B58DB0002009900A900B900C90079005
:1038B00008901C216846FCF7CDFC2948294908607E
:1038C00040F28F6048600021264881604FF47A7191
:1038D000C160002101618161FEF78CFF08B1FDF735
:1038E0002BF94FF48050099009A91E48FFF707F8FB
:1038F00008B1FDF721F91B48FFF7C9FA08B1FDF738
:103900001BF900200790089007A91648FEF718FF3A
:1039100008B1FDF711F9602000904B2001900020C4
:1039200002900490002269460E48FFF72CFA08B175
:10393000FDF702F9042269460A48FFF724FA08B1A4
:10394000FDF7FAF800210748FFF7BEFA0421054801
:10395000FFF7BAFA0348FFF7E5F90DB000BD000024
:1039600000040040A806002000B587B000200390A6
:103970000490059006900190029016481649086040
:1039800040F2473048600021134881604FF47A715B
:10399000C160002101618161FEF72CFF08B1FDF7D4
:1039A000CBF84FF48050039003A90B48FEF7A7FF14
:1039B00008B1FDF7C1F800200190029001A9064866
:1039C000FEF7BEFE08B1FDF7B7F80348FEF782FF29
:1039D00007B000BD00080040E806002010B51248FE
:1039E000124908604FF4E130486000210F488160BF
:1039F000C16001610C21416100218161C161FFF75A
:103A00006FFB08B1FDF798F808480068C06840F0FF
:103A1000100006490968C8604FF4967204490348CB
:103A2000FFF738FD10BD00000010014028070020FE
:103A3000EC04002010B51248124908601248486092
:103A40004FF480510F4881604900C160C910016185
:103A50000421416100218161C161FFF741FB08B18F
:103A6000FDF76AF807480068C06840F01000054993
:103A70000968C860322205490248FFF70BFD10BDF6
:103A80000044004068070020A08601006403002075
:103A900010B51148114908604FF4E1304860002129
:103AA0000E488160C16001610C214161002181618A
:103AB000C161FFF715FB08B1FDF73EF80748006844
:103AC000C06840F0100005490968C8602A2204490E
:103AD0000248FFF7DFFC10BD00480040A8070020A7
:103AE0009603002010B51248124908604FF4165092
:103AF000486000210F488160C16001610C21416173
:103B000000218161C161FFF7EBFA08B1FDF714F8FC
:103B100008480068C06840F0100006490968C8609D
:103B20004FF4967204490348FFF7B4FC10BD00003F
:103B300000140140E8070020C003002010B5002257
:103B40000D490E4801F0FBFD08B1FCF7F5FF0C49EB
:103B50000A4802F095F808B1FCF7EEFF094907485A
:103B600001F07FFA08B1FCF7E7FF044802F066F9BC
:103B700008B1FCF7E1FF10BD34000020C8090020A7
:103B8000D00000208400002000BFFEE77047000046
:103B900010B50248FDF7E3FD10BD0000980C0020B1
:103BA0002DE9F04704460D4626683746D6F8408092
:103BB00007F5306000EB4510D0F8089010488045BC
:103BC0000BD909F40040B0F5004F06D14FF4004185
:103BD00007F5306000EB451081602046FEF7C7F91D
:103BE0000748804508D92069012805D104F571727C
:103BF0000121206802F05EFE0020BDE8F087000091
:103C00000A30544F2DE9F04705460C46D5F80080A0
:103C10004646D8F8409006F5306000EB44108768BF
:103C20002869012873D107F0080008280FD15248ED
:103C300081450BD907F40040B0F5004F06D14FF491
:103C4000004106F5306000EB4410816091E007F020
:103C50002000202806D1202106F5306000EB44101A
:103C6000816086E007F0280000280ED14248814597
:103C70000CD907F40040B0F5004F07D14FF40041D4
:103C800006F5306000EB4410816072E0C4EBC401C3
:103C900005F5FE7000EB8100816806F5306000EBF1
:103CA00044100069C0F31200091AC4EBC40205F500
:103CB000FE7000EB82008161C4EBC40105F5FE706B
:103CC00000EB8100C4EBC402C16805F5FE7000EB97
:103CD000820080680144C4EBC40205F5FE7000EB6D
:103CE0008200C1606CB9C4EBC40105F5FE7000EB45
:103CF0008100406928B905F571720121286802F038
:103D0000D9FDE1B22846FDF7B1FB32E0FFE71B48E1
:103D100081451BD107F40040B0F5004F07D14FF4A7
:103D2000004106F5306000EB4410816021E007F0AF
:103D30002000202805D1202106F5306000EB44103A
:103D40008160E1B22846FDF791FB12E06CB9C4EB4B
:103D5000C40105F5FE7000EB8100406928B905F546
:103D600071720021286802F0A5FDE1B22846FDF736
:103D70007DFB0020BDE8F0870A30544F0A31544FD4
:103D80002DE9F84F07460E46D7F80090C846C6EB17
:103D9000C60107F13C0000EB8104D4E9051088421C
:103DA00002D90120BDE8F88FD4E90501451AA068C1
:103DB000A84200D2A568E81C4FEA900A17E0D4E9AF
:103DC0000501451AA068A84200D2A568E81C4FEA80
:103DD000900A387CABB2F2B200904846E16803F03A
:103DE00023F9E0682844E060A0692844A06108F550
:103DF000106000EB4610806980B2504506D3D4E9CC
:103E00000510884202D260690028D8D1D4E90501A2
:103E100088420ED806F00F01012000FA01FB40F69F
:103E2000340050F8080020EA0B0040F6340141F855
:103E300008000020B6E7000010B52DED0E8B0446FB
:103E400000EE104AB8EEC00A8F4880ED000AD0EDAF
:103E5000000A8E4890ED000AB8EEC00A30EEC00AA3
:103E6000B0EE408A884890ED070AF0EE408A01469D
:103E700091ED000ABDEEC00A10EE100A002801DB29
:103E8000014600E0414200EE101AB8EEC00A7E4939
:103E9000D1ED100AB4EEE00AF1EE10FA05D29FED72
:103EA0007C0A084680ED0B0A04E09FED7A0A76480A
:103EB00080ED0B0A744991ED000ABDEEC00A10EEC8
:103EC000100A002801DB014600E0414200EE101A12
:103ED000B8EEC00A6C49D1ED060AB4EEE00AF1EE84
:103EE00010FA05D29FED6C0A084680ED0F0A17E024
:103EF000654890ED0C0AB0EE401A90ED0B0AF0EE1A
:103F0000400AB0EE480A03F0AFF8B0EE409A5E48BF
:103F1000D0ED0F0AB0EE490A40EE080AC0ED0F0AD4
:103F20005A48006820B100205C4908705C4908705C
:103F300018EE100AFCF758FB41EC1E0BB0EE4E0ACF
:103F4000F0EE6E0A03F058F9B0EE40DAF0EE60DA07
:103F50009FED540B53EC102B51EC1D0BFCF7A5FA05
:103F600041EC1C0B9FED510B53EC102BFCF784F92B
:103F700041EC1A0B444890ED070AF2EE040A20EED9
:103F8000200A10EE101A0846FCF72EFB41EC1C0B21
:103F9000B0EE4C0AF0EE6C0A03F02EF9B0EE40BA27
:103FA000F0EE60BA53EC1A2B51EC1B0BFCF748FBFC
:103FB00007D23648006820B938480078401C374995
:103FC000087036480078142802DD02203449087051
:103FD00033480078022803D10020BDEC0E8B10BDC1
:103FE000294890ED030AD0ED0D0AB7EE001A71EEE4
:103FF000600A60EE200A90ED040A38EE400A90ED67
:104000000D1AD0ED0E1A01EE210A20EE800A80ED85
:104010000E0A90ED020AD0ED0F0A20EE200AD0ED34
:10402000010A00EE880AD0ED0E0A30EE200AF0EE0A
:10403000408A90ED090AB4EEE80AF1EE10FA03D8CE
:1040400090ED090AF0EE408A0F4890ED0A0AB4EEAE
:10405000E80AF1EE10FA03DB90ED0A0AF0EE408A6E
:10406000094890ED040A80ED050A80ED048AC0ED50
:10407000078AC0ED088A90ED080ABDEEC00A10EE6E
:10408000100A00B2A9E70000F80100209800002003
:1040900000007A440000FA440000000011000020F3
:1040A00010000020000000000000004000000000A0
:1040B000000059407047704730B501460A461378F2
:1040C000521C147843EA042030BD10B5FDF7B4F853
:1040D00010BD000000B593B0302107A8FCF7BAF876
:1040E000142102A8FCF7B6F800BF00200190244874
:1040F000006840F08050224908600846006800F0DF
:104100008050019000BF00BF00BF002001901D48FB
:10411000006840F480401B4908600846006800F4CD
:104120008040019000BF00BF01200790000408906C
:1041300002200D9041050E9108210F914FF4A871B6
:104140001091022111910721129107A8FEF798F80A
:1041500008B1FCF7F1FC0F20029002200390002030
:1041600004904FF4A05005904FF480500690052124
:1041700002A8FDF745FF08B1FCF7DEFC13B000BD57
:1041800040380240007000400548006840F470006C
:10419000034908604FF000600149803908607047AA
:1041A00088ED00E010B50348FEF7F0FC04F036F9A6
:1041B00010BD00006806002010B52248FEF7E6FC9E
:1041C00021480068406A2149086008460068204983
:1041D0000968401A1F4908600846006844F62061D3
:1041E00088420ADD194800684FF6FF71081A18491D
:1041F00009684942081A17490860164800681649B4
:10420000884208DA12480068090C081A0F49096840
:104210000844104908600F48008800B203F00AFD06
:104220000E4908600B4800680D490968401A0D499D
:104230000860084800680A490860044800680449A2
:10424000086010BDE806002028060020A00000201D
:10425000A4000020A8000020E0B1FFFF980000208B
:10426000AC0000209C00002010B50268294B984249
:104270000ED0B0F1804F0BD0274B984208D0274B7F
:10428000984205D0264B984202D0264B984203D143
:1042900022F070024B681A431E4B984220D0B0F1B6
:1042A000804F1DD01C4B98421AD01C4B984217D0FF
:1042B0001B4B984214D01B4B984211D01A4B98427A
:1042C0000ED01A4B98420BD0194B984208D0194B7C
:1042D000984205D0184B984202D0184B984203D10F
:1042E00022F44072CB681A4322F080034C6943EAFF
:1042F000040202608B68C3620B688362054B9842BC
:1043000002D0084B984201D10B690363012343613A
:1043100010BD000000000140000400400008004003
:10432000000C0040000401400040014000440140F6
:104330000048014000180040001C004000200040E0
:1043400030B501F01F05012404FA05F3046A9C430B
:104350000462046A01F01F0502FA05F52C430462A9
:1043600030BD30B50C46816821F47F4142EA032517
:1043700025432943816030BD0A46816821F07001E0
:1043800042F00703194381607047000030B5056AA9
:1043900025F001050562026A4368846924F070040F
:1043A00024F003040D682C4322F002028D682A4396
:1043B000104DA84200D103E00F4DA84206D100BF26
:1043C00022F00802CD682A4322F00402094DA842D7
:1043D00002D0094DA84207D123F4807323F400735F
:1043E0004D692B438D692B43436084614D68456360
:1043F000026230BD000001400004014030B5056A92
:1044000025F010050562026A4368846924F4E044DB
:1044100024F440740D6844EA052422F020028D68DB
:1044200042EA0512124DA84200D103E0114DA84204
:1044300007D100BF22F08002CD6842EA051222F0C7
:1044400040020B4DA84202D00A4DA84209D123F4E4
:10445000806323F400634D6943EA85038D6943EA71
:104460008503436084614D688563026230BD00004E
:10447000000001400004014030B5056A25F4807554
:104480000562026A4368C46924F0700424F00304DE
:104490000D682C4322F400728D6842EA0522124D09
:1044A000A84200D103E0114DA84207D100BF22F479
:1044B0000062CD6842EA052222F480620A4DA842D9
:1044C00002D00A4DA84209D123F4805323F40053AB
:1044D0004D6943EA05138D6943EA05134360C461DE
:1044E0004D68C563026230BD000001400004014018
:1044F00030B5056A25F480550562036A4468C269CF
:1045000022F4E04222F440720D6842EA052223F4CC
:1045100000538D6843EA0533084DA84202D0084D88
:10452000A84204D124F480444D6944EA85144460CF
:10453000C2614D680564036230BD000000000140A7
:104540000004014030B50B461446026A056A25F0A6
:1045500001050562816921F0F00141EA041122F0B0
:104560000A021A438161026230BD30B50B4614461F
:10457000056A25F0100505628169026A21F470411F
:1045800041EA043122F0A00242EA03128161026290
:1045900030BD70B50546AC6B0020E085E084204658
:1045A000FEF7F3FC70BD70B506460025B46B2068BD
:1045B0004069C0F3C01594F83900212805D125B110
:1045C0000020E084204600F060F820684069C0F3D5
:1045D000801594F83A00222805D125B10020E08505
:1045E000204600F032F8E06B40F01000E063204617
:1045F000FEF7CBFC70BD70B50546AC6B2868006853
:1046000000F48070B0B90020E0852068C06820F414
:1046100080702168C8602068406920F0010021682E
:1046200048612068406920F04000216848612020EE
:1046300084F83A002046FEF78FFF70BD70B504463F
:10464000A56B2846FEF789FF70BD0168C96821F493
:1046500090710268D1600168496921F00101026826
:104660005161202180F83A10704710B50446206847
:10467000C06820F040002168C860202084F839001C
:104680002046FEF7D7FF002010BD0168C96821F061
:10469000C0010268D160202180F83910704770B5E0
:1046A000044694F83A0022284AD1A068B0F5805F09
:1046B00013D1A56A206940B920684068C0F308009A
:1046C0002880A06A801CA06219E020684068C0B2FF
:1046D0002880A06A401CA06211E0206938B92068D7
:1046E0004068C1B2A26A501CA062117007E0206845
:1046F000406800F07F01A26A501CA0621170E08D3A
:10470000401E80B2E085C8B92068C06820F0200053
:104710002168C8602068C06820F480702168C86083
:104720002068406920F0010021684861202084F859
:104730003A002046FEF710FF002070BD0020FCE785
:104740000220FAE72DE9F84F04462068006920F4BA
:104750004050E1680843216808612169A068084366
:1047600061690843E169084300902068C06849F224
:104770000C618843009908432168C860206840693B
:1047800020F44070A169084321684861E069B0F5F0
:10479000004F75D1E3492068884203D0E249206880
:1047A00088426FD1FDF704FD814602206168A0FBBD
:1047B00001510B461920A9FB00712A463846FBF728
:1047C000FFFC6421B0FBF1F04FEA001A022061689F
:1047D000A0FB01510B461920A9FB00712A4638465F
:1047E000FBF7EEFC074602206168A0FB01510B4677
:1047F0001920A9FB00B12A465846FBF7E1FC6421C9
:10480000B0FBF1F000EBC00101EB0010A7EB800062
:10481000322101EBC0006421B0FBF1F000F0F800A0
:104820000AEB400A02206168A0FB01510B461920E7
:10483000A9FB00712A463846FBF7C2FC0746022056
:104840006168A0FB01510B461920A9FB00B12A4663
:104850005846FBF7B5FC6421B0FBF1F000EBC0015A
:1048600001EB0010A7EB8000322101EBC0006421B6
:10487000B0FBF1F000F007005044216888604FE180
:104880006EE0FFE7FDF784FC814602206168A0FB33
:1048900001510B461920A9FB00712A463846FBF747
:1048A0008FFC6421B0FBF1F04FEA001A022061682E
:1048B000A0FB01510B461920A9FB00712A4638467E
:1048C000FBF77EFC074602206168A0FB01510B4606
:1048D0001920A9FB00B12A465846FBF771FC642158
:1048E000B0FBF1F000EBC00101EB0010A7EB800082
:1048F000322101EBC0006421B0FBF1F000F0F800C0
:104900000AEB400A02206168A0FB01510B46192006
:10491000A9FB00712A463846FBF752FC07460220E5
:104920006168A0FB015003461920A9FB00B12A468B
:104930005846FBF745FC6421B0FBF1F000EBC001E9
:1049400001EB0010A7EB8000322101EBC0006421D5
:10495000B0FBF1F000F00700504421688860DFE010
:1049600070492068884203D06F49206888426BD123
:10497000FDF71EFC814604206168A0FB01510B4637
:104980001920A9FB00712A463846FBF719FC82461C
:1049900004206168A0FB01510B461920A9FB00719E
:1049A0002A463846FBF70CFC6421B0FBF1F000EB23
:1049B000C00101EB0010AAEB8000322101EB0010D6
:1049C0006421B0FBF1F000F0F00A04206168A0FB64
:1049D000015003461920A9FB00712A463846FBF70F
:1049E000EFFB6421B0FBF1F00AEB001A04206168D0
:1049F000A0FB01510B461920A9FB00712A4638463D
:104A0000FBF7DEFB074604206168A0FB015003466C
:104A10001920A9FB00B12A465846FBF7D1FB6421B7
:104A2000B0FBF1F000EBC00101EB0010A7EB800040
:104A3000322101EB00106421B0FBF1F000F00F0017
:104A40005044216888606BE0FDF7A2FB814604209A
:104A50006168A0FB015003461920A9FB00712A469A
:104A60003846FBF7ADFB824604206168A0FB01508D
:104A700003461920A9FB00712A463846FBF7A0FB24
:104A80006421B0FBF1F000EBC00101EB0010AAEBD8
:104A90008000322101EB00106421B0FBF1F000F046
:104AA000F00A04206168A0FB015003461920A9FB0D
:104AB00000712A463846FBF783FB6421B0FBF1F016
:104AC0000AEB001A04206168A0FB0170034619205C
:104AD000A9FB005001463A462846FBF771FB074602
:104AE00004206168A0FB015003461920A9FB00B116
:104AF0002A465846FBF764FB6421B0FBF1F000EB5B
:104B0000C00101EB0010A7EB8000322101EB001087
:104B10006421B0FBF1F000F00F0050442168886080
:104B2000BDE8F88F0010014000140140014691F8E3
:104B3000390021282CD18868B0F5805F0FD10A6A2E
:104B40001088C0F308000B685860086918B9086A33
:104B5000801C086209E0086A401C086205E00B6AD4
:104B6000581C086218780B685860C88C401E80B2C8
:104B7000C88458B90868C06820F080000B68D86005
:104B80000868C06840F040000B68D860002070479B
:104B90000220FCE72DE9F04104460D4617469846F1
:104BA000069E21E0701CF8B12EB1FCF73FFBA0EB94
:104BB0000800B04218D92068C06820F4D07021687D
:104BC000C8602068406920F0010021684861202009
:104BD00084F8390084F83A0000BF002084F83800D7
:104BE00000BF0320BDE8F081206800682840A8428B
:104BF00001D1012000E00020B842D3D00020F1E72D
:104C000038B50025174800680068C0F300152DB3BB
:104C100000BF002000901348006800680090114811
:104C200000684068009000BF00BF0E48006804683C
:104C30000C48006844680B48FEF774F90A4800689D
:104C40004468C4F596700949087001200849087045
:104C50004FF4967207490348FEF71CFC0148FEF723
:104C600095F938BD28070020280800200E000020F4
:104C70000F000020EC04002038B50025174800681C
:104C80000068C0F3001525B300BF00200090134852
:104C9000006800680090114800684068009000BFFC
:104CA00000BF0E48006804680C48006844680B4860
:104CB000FEF738F90A4800684468C4F1320009492F
:104CC0000870012008490870322208490348FEF79D
:104CD000E1FB0248FEF75AF938BD000068070020E2
:104CE000880800200800002009000020640300203C
:104CF00038B50025174800680068C0F3001525B3D3
:104D000000BF002000901348006800680090114820
:104D100000684068009000BF00BF0E48006804684B
:104D20000C48006844680B48FEF7FCF80A48006825
:104D30004468C4F12A000949087001200849087034
:104D40002A2208490348FEF7A5FB0248FEF71EF990
:104D500038BD0000A8070020E80800200A00002055
:104D60000B0000209603002038B500251748006886
:104D70000068C0F300152DB300BF00200090134859
:104D8000006800680090114800684068009000BF0B
:104D900000BF0E48006804680C48006844680B486F
:104DA000FEF7C0F80A4800684468C4F596700949DF
:104DB00008700120084908704FF4967207490348AB
:104DC000FEF768FB0148FEF7E1F838BDE807002070
:104DD000480900200C0000200D000020C003002026
:104DE0002DE9F04104460D46D4F8C472D4F8BC0253
:104DF00010B90320BDE8F081D4F8BC6205EB850151
:104E000004F1140000EB8100406808B305EB850154
:104E100004F1140000EB8100C5EBC502416807F105
:104E20003C0000EB82008068B1FBF0F200FB121046
:104E300070B9002105EB850204F1140000EB82003B
:104E4000416000231A462946204600F0E6FE0BE0AA
:104E50000020C6F81402D6F80802D4F8C0122A4678
:104E60000B6906F5047198470020C3E770B5044646
:104E70000E46D4F8BC52D4F8BC0208B9032070BD69
:104E80003146204600F072FDC5F80C02D5F8040248
:104E9000D4F8C012CA6805F5037190470020EEE708
:104EA00070B504460E4600258121204600F07CFCAA
:104EB000002121870121204600F076FC0021A4F882
:104EC00078118221204600F06FFC0021A4F84C10DC
:104ED000A4F84E10D4F8BC0250B1D4F8C0124868FF
:104EE0008047D4F8BC0202F061FE0020C4F8BC0286
:104EF000284670BD70B50546D5F8BC42D5F8C0024D
:104F000078B194F80002FF280BD094F8012294F8AD
:104F10000002D5F8C0128B6821469847FF2084F81C
:104F20000002002070BD000001460A2008800148F0
:104F300070470000C400002001464320088001485B
:104F4000704700004C0100200146432008800148C2
:104F500070470000080100200146432008800148F6
:104F6000704700009001002070B504460E464FF4D3
:104F7000077002F0C7FE054625B90020C4F8BC0240
:104F8000022070BDC4F8BC52207CA0B94FF400735D
:104F900002228121204600F049FD012121874B0298
:104FA0000222204600F042FD0121A4F878111021D0
:104FB000A4F84E1012E0402302228121204600F086
:104FC00035FD0121218740230222204600F02EFDDD
:104FD0000121A4F878111021A4F84E10082303220F
:104FE0008221204600F022FD0121A4F84C10D4F8C3
:104FF000C012086880470020C5F81402C5F81802DE
:10500000207C40B94FF4007301212046D5F80422DA
:1050100000F024FD06E0402301212046D5F80422BB
:1050200000F01CFD0020ACE770B50446D4F8BC527B
:10503000D4F8BC0208B9032070BD207C40B94FF4FD
:10504000007301212046D5F8042200F007FD06E098
:10505000402301212046D5F8042200F0FFFC002067
:10506000EAE7024609B903207047C2F8C0120020DF
:10507000FAE70246D2F8BC32C3F8041200207047A7
:1050800010B50346D3F8BC42C4F80812C4F8102285
:10509000002010BD2DE9FC4105460C46D5F8BC6248
:1050A0000020019000900027207800F0600040B3BD
:1050B000202862D1E088E0B1207800F0800060B163
:1050C000E2886078D5F8C0128B6831469847E2884C
:1050D0003146284600F0EBF812E0607886F80002CE
:1050E000A07986F80102E2883146284600F0BEF831
:1050F00006E06078D5F8C01200228B6821469847F8
:1051000041E0607830B101282ED00A2812D00B2857
:105110002BD11FE095F89C02032805D10222694695
:10512000284600F0C4F804E02146284600F092F832
:10513000032720E095F89C02032805D1012201A94C
:10514000284600F0B4F804E02146284600F082F832
:10515000032710E095F89C02032804D02146284636
:1051600000F078F8032706E005E02146284600F025
:1051700071F8032700BF00BF05E02146284600F074
:1051800069F8032700BF00BF3846BDE8FC8170B551
:105190000546D5F8BC420126D5F8BC0208B9032063
:1051A00070BDD4F8140270B90120C4F81402D4F808
:1051B0001012E96281212846D4F81032D4F808226E
:1051C00000F02BFD00263046EAE770B504460D4698
:1051D000D4F8B80228B1D4F8B8022946426820466B
:1051E0009047002070BD70B504460D4694F89C02AF
:1051F000012804D0022803D003280CD101E000BF0D
:1052000000BF6888012805D10020C4F8A402204608
:1052100000F05EF804E02946204600F01BF800BFCD
:1052200000BF70BD70B506460C4615462B4622469B
:105230000021304600F012FC002070BD70B506461B
:105240000C4615462B4622460021304600F0E5FC70
:10525000002070BD70B504460D468021204600F048
:10526000B0FC0021204600F0ACFC70BD70B50446D7
:105270000E4615460320C4F894024FF4AC70055155
:10528000001D05512B4632460021204600F0E6FB6A
:10529000002070BD10B504460520C4F89402002318
:1052A0001A461946204600F0D9FB002010BD70B503
:1052B00004460E4615460220C4F89402A561E56135
:1052C0002B4632460021204600F0A7FC002070BD8E
:1052D00010B504460420C4F8940200231A46194667
:1052E000204600F09AFC002010BD000070B5054675
:1052F0000C462DB92246064906A000F0E0F904E06C
:105300002246034903A000F0DAF9014870BD00000D
:10531000A010002043444320436F6E66696700007D
:10532000024612200880014870470000500000200B
:1053300070B505460C462DB92246064906A000F078
:10534000BEF904E02246034903A000F0B8F9014881
:1053500070BD0000A010002043444320496E7465D6
:1053600072666163650000000246042008800148FF
:10537000704700006400002070B505460C462246C8
:10538000024903A000F09BF9004870BDA010002066
:1053900053544D6963726F656C656374726F6E69A7
:1053A0006373000070B505460C462DB922460649C8
:1053B00006A000F084F904E02246034903A000F0AF
:1053C0007EF9014870BD0000A010002053544D33F9
:1053D00032205669727475616C20436F6D506F7224
:1053E0007400000070B505460C461A202080FBF7BB
:1053F000A5FB014870BD00006800002070B50446A0
:105400000D46E888012804D029462046FFF722FFF0
:105410001EE094F89C02012804D0022803D003283F
:1054200010D109E000BF0020A060012204F10801B2
:105430002046FFF73CFF0AE00122211D2046FFF72E
:1054400036FF04E029462046FFF704FF00BF00BFF7
:1054500070BDF8B504460E460020009000270025D8
:1054600070880012082875D2DFE800F0C7040C200D
:10547000C7C7A5B5207CD4F8B4120A68694690471E
:105480000746C1E0207C40B9D4F8B802816A68467A
:10549000884707460220787007E0D4F8B802C16A4E
:1054A00068468847074602207870ADE0B078062845
:1054B00078D2DFE800F00316293C5063D4F8B40238
:1054C000406838B1207CD4F8B4124A6869469047E5
:1054D000074605E031462046FFF7BCFE681CC5B212
:1054E00067E0D4F8B402806838B1207CD4F8B412F4
:1054F0008A6869469047074605E031462046FFF72F
:10550000A9FE681CC5B254E0D4F8B402C06838B132
:10551000207CD4F8B412CA6869469047074605E073
:1055200031462046FFF796FE681CC5B241E0D4F82C
:10553000B402006938B1207CD4F8B4120A69694613
:105540009047074605E031462046FFF783FE681C7A
:10555000C5B22EE051E0D4F8B402406938B1207CE5
:10556000D4F8B4124A6969469047074605E03146C7
:105570002046FFF76FFE681CC5B21AE0D4F8B402EB
:10558000806940B1207CD4F8B4128A69694690479A
:10559000074606E006E031462046FFF75BFE681C42
:1055A000C5B206E031462046FFF754FE681CC5B27E
:1055B00000BF00BF28E0207C30B9D4F8B802416BAE
:1055C00068468847074605E031462046FFF742FE19
:1055D000681CC5B218E0207C40B9D4F8B802016B51
:1055E0006846884707460720787005E03146204620
:1055F000FFF730FE681CC5B206E031462046FFF7D3
:1056000029FE681CC5B200BF00BF05B1F8BDF08817
:10561000C0B1BDF8000080B1F088BDF8001088422C
:1056200002DDBDF8000000E0F0880090BDF8002029
:1056300039462046FFF73BFE07E031462046FFF79C
:1056400009FE02E02046FFF743FE00BFDEE7014609
:1056500000200A4602E0431CD8B2521C1378002BEB
:10566000F9D1704770B504460D4694F89C020128A4
:1056700004D0022803D003281AD101E000BF00BFE4
:10568000E888022804D029462046FFF7E3FD14E00D
:105690000120E060D4F8A40218B1E06840F00200F4
:1056A000E060022204F10C012046FFF700FE04E056
:1056B00029462046FFF7CEFD00BF00BF70BD2DE993
:1056C000F04107460D46904600240FB9BDE8F08131
:1056D0003E463046FFF7BBFF022101EB4000A8F831
:1056E000000098F800002855601CC4B2032028551B
:1056F000601CC4B208E030782855761C601CC4B227
:1057000000202855601CC4B230780028F3D100BFB7
:10571000DCE70146002031B1012906D0022906D07C
:10572000032908D105E0002007E0032005E001205F
:1057300003E0032001E0032000BF00BF70472DE914
:10574000F04104460D46164614B90320BDE8F08129
:10575000D4F8B80210B10020C4F8B802D4F8CC02D2
:1057600010B10020C4F8CC020DB1C4F8B45201202D
:1057700084F89C022670204600F002F9074638465D
:10578000E4E72DE9F04104460D46002600272946AE
:10579000D4F8C402FBF7B6FE06463046FFF7B9FF61
:1057A00007463846BDE8F0812DE9F04104460D4634
:1057B000002600272946D4F8C402FBF76EFE0646F1
:1057C0003046FFF7A6FF07463846BDE8F0812DE9D1
:1057D000F04104460F469046002F54D104F11405C1
:1057E000D4F89402022843D1D5E9020188420FD9A6
:1057F000D5E90201401AA86041462046AA68FFF791
:105800001DFD00231A461946204600F027F92FE017
:10581000D5E90210884217D1E9686868884213D335
:105820006868D4F8981288420ED2002211462046A9
:10583000FFF704FD0020C4F8980200231A46194619
:10584000204600F00BF913E0D4F8B802C06840B16C
:1058500094F89C02032804D1D4F8B802C168204609
:1058600088478021204600F0ACF92046FFF712FD62
:1058700094F8A00201281BD1204600F014FA002061
:1058800084F8A00214E0D4F8B802406970B194F82A
:105890009C0203280AD1D4F8B8023946426920464E
:1058A0009047064626B13046BDE8F0810320FBE76D
:1058B0000020F9E72DE9F04105460F4690465FBB11
:1058C00005F5AA74D5F8940203283AD1D4E9020167
:1058D000884210D9D4E90201401AA060D4E902013B
:1058E000884201D2A06800E0E068024641462846AE
:1058F000FFF798FC25E0D5F8B802006940B195F8AB
:105900009C02032804D1D5F8B802016928468847CB
:105910002846FFF7DDFC14E0D5F8B802806970B1C5
:1059200095F89C0203280AD1D5F8B8023946826955
:1059300028469047064626B13046BDE8F081032050
:10594000FBE70020F9E701460020704710B5044648
:10595000012084F89C02D4F8B80228B12179D4F847
:10596000B802426820469047002010BD70B504463A
:105970000D462946D4F8C402FBF702FE70BD0000B4
:1059800010B50446207800282AD11648C0F80444EF
:10599000C4F8C4024FF0A0401249086004204860D7
:1059A00002211048C16000210161022181610021B2
:1059B000C16101624162C1620163FCF790F908B103
:1059C000FBF7BAF880210748FBF70DFD40220021C4
:1059D0000448FBF70DFD802201210248FBF708FD7A
:1059E000002010BD980C002010B50246D2F8C43239
:1059F00001F08000802809D101F07F00C0EBC004D5
:105A000003F13C0000EB8400807810BD01F07F00C2
:105A1000C0EBC00403F5FE7000EB84008078F4E76F
:105A20000246002070470246002070472DE9F047EB
:105A300004460F4615461E464FF00008C1462B4649
:105A400032463946D4F8C402FBF7A5FD80464046ED
:105A5000FFF75FFE81464846BDE8F0872DE9F04735
:105A600004460D4616461F464FF00008C1463B4609
:105A700032462946D4F8C402FBF7D3FD804640469F
:105A8000FFF747FE81464846BDE8F08710B504465B
:105A9000012084F89C020020C4F894026060C4F8DD
:105AA000A402D4F8BC0228B12179D4F8B802426823
:105AB000204690474023002211462046FFF7B6FFBC
:105AC00001214FF4B27001534021001F01514023C6
:105AD000002280212046FFF7A9FF0121A184402157
:105AE0002162002010BD014691F89C02042803D1D8
:105AF00091F89D0281F89C020020704710B5044681
:105B000094F89C02032808D1D4F8B802C06920B1E7
:105B1000D4F8B802C16920468847002010BD02466B
:105B20001174002070472DE9F04104460D4600260F
:105B300000272946D4F8C402FCF7FEF90646304691
:105B4000FFF7E7FD07463846BDE8F08170B504462B
:105B50000D46294604F2AA2000F077F80120C4F887
:105B600094024FF42C70005BC4F8980294F8AA02D7
:105B700000F01F0020B1012809D0022815D10DE046
:105B800004F2AA21204600F05FF9064616E004F26E
:105B9000AA21204600F0C0FA06460FE004F2AA212E
:105BA000204600F0A4F9064608E094F8AA0200F0A6
:105BB0008001204600F005F8064600BF00BF3046D1
:105BC00070BD2DE9F04104460D4600260027294608
:105BD000D4F8C402FBF751FD06463046FFF799FDA5
:105BE00007463846BDE8F08170B50446002500261A
:105BF000D4F8C402FCF7C4F905462846FFF789FD2E
:105C00000646304670BD014691F89C0281F89D021F
:105C1000042081F89C02002070472DE9F0470446DB
:105C20000D4616461F464FF00008C1463B46324619
:105C30002946D4F8C402FBF765FD80464046FFF7CD
:105C400068FD81464846BDE8F08770B505460E46BA
:105C5000344620782870641C20786870641C2046C4
:105C6000FEF72AFA6880641C641C2046FEF724FABA
:105C7000A880641C641C2046FEF71EFAE88070BDF4
:105C800038B504460D46002000900DB9032038BDFC
:105C9000C4F8B852D4F8B802816A68468847C4F894
:105CA000CC020020F3E701460020704770B504469F
:105CB0000D46A88810BBE88800BB688880281DD2E4
:105CC000A87800F07F0694F89C02032804D12946A6
:105CD0002046FFF7BFFA15E084F89E623146204661
:105CE000FFF721FF2046FFF7F3FA1EB1022084F8E8
:105CF0009C0207E0012084F89C0203E0294620462C
:105D0000FFF7A8FA70BD70B504460D460326D4F817
:105D1000B80230B1D4F8B80229460268204690474C
:105D20000646304670BD000070B504460E4600259C
:105D3000B0783B49087008460078012805D93146FB
:105D40002046FFF787FA032070BD94F89C020228D2
:105D500002D0032856D11CE031480078A8B1304861
:105D6000007860602E4801782046FFF7CCFF05469A
:105D700025B131462046FFF76DFA09E02046FFF7CE
:105D8000A7FA032084F89C0202E02046FFF7A0FA5D
:105D900043E02348007870B9022084F89C02204830
:105DA000007860601E4801782046FFF70EFA204612
:105DB000FFF78EFA25E01A490978606888421DD0FD
:105DC00021792046FFF701FA1548007860601448F1
:105DD00001782046FFF797FF05465DB13146204622
:105DE000FFF738FA21792046FFF7EFF9022084F80F
:105DF0009C0206E02046FFF76BFA02E02046FFF720
:105E000067FA0AE031462046FFF724FA0448017891
:105E10002046FFF7DAF9032500BF00BF284693E7C5
:105E2000C000002070B505460C466088012804D1EA
:105E3000C5F8A4022846FFF74BFA70BD10B504461A
:105E40002046FFF7D1FE10BD70B505460C46002672
:105E5000207800F0600068B1202802D040283ED1B0
:105E600000E000BFD5F8B802214682682846904776
:105E7000064639E060780A282AD2DFE800F01A24C2
:105E8000291F290A0529150F21462846FFF7E1FA9F
:105E900023E021462846FFF709FF1EE02146284659
:105EA000FFF742FF064618E021462846FFF7A6FA0C
:105EB00013E021462846FFF7D5FB0EE02146284691
:105EC000FFF7B0FF09E021462846FFF78CF904E010
:105ED00021462846FFF7BEF900BF00BF04E0214677
:105EE0002846FFF7B7F900BF00BF304670BD2DE967
:105EF000F04105460E464FF000083479307800F046
:105F0000600068B1202802D0402870D100E000BFB6
:105F1000D5F8B80231468268284690478046F7E0B7
:105F20007078002864D001282FD003286FD195F80D
:105F30009C02022802D0032820D110E054B1802C0A
:105F400008D021462846FFF73CFE80212846FFF76F
:105F500038FE03E031462846FFF77CF913E07088ED
:105F600040B93CB1802C05D0F08818B921462846AC
:105F7000FFF727FE2846FFF7ABF904E03146284635
:105F8000FFF768F900BF00BFBBE095F89C0202284C
:105F900002D0032824D110E054B1802C08D021462F
:105FA0002846FFF70EFE80212846FFF70AFE03E091
:105FB00031462846FFF74EF917E0708878B904F0AB
:105FC0007F0018B121462846FFF7DBFB2846FFF784
:105FD0007FF9D5F8B802314682682846904704E038
:105FE00031462846FFF736F900BF00BF89E08AE056
:105FF00095F89C02022802D0032876D126E03CB115
:10600000802C05D031462846FFF724F972E073E072
:1060100004F08000802808D104F07F0000EB8001AC
:1060200005F1140000EB810007E004F07F0000EBB5
:10603000800105F5AA7000EB81000746002038605A
:10604000022239462846FFF732F953E004F0800077
:1060500080280ED104F00F0000EB800105F1140040
:1060600000EB8100008A98B931462846FFF7F2F824
:1060700040E004F00F0000EB800105F5AA7000EB92
:106080008100008A20B931462846FFF7E3F831E065
:1060900004F08000802808D104F07F0000EB80012C
:1060A00005F1140000EB810007E004F07F0000EB35
:1060B000800105F5AA7000EB810007460CB1802C29
:1060C00002D10020386009E021462846FFF78CFC09
:1060D00010B10120386001E000203860022239460A
:1060E0002846FFF7E4F805E0FFE731462846FFF7CA
:1060F000B1F800BF00BF04E031462846FFF7AAF818
:1061000000BF00BF04E031462846FFF7A3F800BFF8
:1061100000BF4046BDE8F08170B505460C4600263C
:10612000207800F0600030B1202802D040282AD129
:1061300000E000BF00BF95F89C02012804D00228AF
:1061400003D0032818D101E000BF00BF2079012847
:106150000DD8D5F8B80221468268284690470646F1
:10616000E08840B93EB92846FFF7B2F803E021467F
:106170002846FFF76FF804E021462846FFF76AF843
:1061800000BF00BF04E021462846FFF763F800BFC8
:1061900000BF304670BD000070B504460B46224675
:1061A0001978587801282CD140F61C0080581D78A9
:1061B00005F00F060125B540ADB2284340F61C0599
:1061C000A85002F5106000EB4110006800F4004098
:1061D000F0BB1889C0F30A00DD7840EA854040EA48
:1061E000815040F0805040F4004002F5106505EB0E
:1061F00041152D68284302F5106505EB411528600F
:106200002DE040F61C0080581D7805F00F06012592
:10621000B540144E06EA0545284340F61C05A85033
:1062200002F5306000EB4110006800F4004078B9DE
:106230001889C0F30A00DD7840EA854040F08050BC
:1062400040F4004002F5306505EB41152D6800E093
:1062500005E0284302F5306505EB41152860002074
:1062600070BD00000000FFFF01460A464FF41060B9
:106270008058C30ADB024FF41060835040F60400DC
:10628000805840F4807340F604008350002070472B
:106290000FB470B504460A98012817D1A06B20F4FA
:1062A0008030A063E0681A490840E060E06820F4AC
:1062B0004010E0601198012803D1E06840F480109C
:1062C000E060204600F026F8054612E0E06840F065
:1062D0004000E060204600F01DF805460E9820B909
:1062E000A06B40F48030A06303E0A06B20F480300A
:1062F000A0630898012807D1A06840F00600A060BC
:10630000A06840F02000A060284670BC5DF814FB37
:10631000BFFFBDFF0146002200BF501C02460F4BCD
:10632000984201D903207047086900F00040002816
:10633000F3D00022086940F00100086100BF501C42
:106340000246064B984201D90320ECE7086900F0A9
:1063500001000028F3D100BFE5E70000400D030075
:1063600070B504460B46224619785878012848D162
:1063700002F5106000EB4110006800F00040B0F141
:10638000004F17D102F5106000EB4110006840F09B
:10639000006502F5106000EB4110056002F5106029
:1063A00000EB4110006840F0804502F5106000EB02
:1063B0004110056040F63C0080581D7805F00F063E
:1063C0000125B540ADB2A84340F63C05A85040F6C3
:1063D0001C0080581D7805F00F060125B540ADB2B0
:1063E000A84340F61C05A85002F5106000EB4110D0
:1063F00000682B4D284002F5106505EB411528601B
:106400004BE002F5306000EB4110006800F0004006
:10641000B0F1004F17D102F5306000EB4110006879
:1064200040F0006502F5306000EB4110056002F5B8
:10643000306000EB4110006840F0804502F53060AC
:1064400000EB4110056040F63C0080581D7805F0D7
:106450000F060125B540134E06EA0545A84340F650
:106460003C05A85040F61C008558187800F00F062F
:106470000120B0400B4E06EA0040854340F61C0068
:10648000855002F5306000EB41100068064D284051
:1064900002F5306505EB41152860002070BD000055
:1064A000007833EC0000FFFF0078F3EF70B504468E
:1064B000254640F60400405920F0020140F6040051
:1064C00041510320FAF79EFD002070BD70B50446CF
:1064D000254640F60400405940F0020140F6040011
:1064E00041510320FAF78EFD002070BD0FB4F0B5C6
:1064F000054600272E46002405E0002105F58270A0
:1065000040F82410641C0F2CF7D31098A0B940F663
:106510000400805940F0020140F604008151A86B4C
:1065200040F40010A863A86B20F40020A863A86BB7
:1065300020F48020A86307E0A86B20F40010A86373
:10654000A86B40F40020A8630020C6F8000ED6F81F
:106550000008C6F800080B9801280BD1089820B94C
:106560000021284600F0E2FC08E00121284600F066
:10657000DDFC03E00321284600F0D8FC102128466A
:1065800000F024FC00B10127284600F009FC00B10E
:10659000012700214FF401608151001D815140F617
:1065A0001C00815100242EE006F5106000EB441021
:1065B000006800F00040B0F1004F10D13CB94FF03E
:1065C000006106F5106000EB441001600DE04FF033
:1065D000904106F5106000EB4410016005E00021D9
:1065E00006F5106000EB44100160002106F5106014
:1065F00000EB441001614FF67F3106F5106000EBAF
:1066000044108160641C0698A042CDD800242EE07E
:1066100006F5306000EB4410006800F00040B0F177
:10662000004F10D13CB94FF0006106F5306000EB2F
:10663000441001600DE04FF0904106F5306000EB32
:106640004410016005E0002106F5306000EB4410C5
:106650000160002106F5306000EB441001614FF647
:106660007F3106F5306000EB44108160641C0698B1
:10667000A042CDD84FF40160805920F480714FF4CE
:10668000016081510020A8616FF080406861099825
:1066900018B9A86940F01000A861A8690949084321
:1066A000A8610C9818B1A86940F00800A86110987A
:1066B000012803D1A86904490843A8613846F0BC01
:1066C0005DF814FB00383C800400004001468868F7
:1066D00020F001008860002070470000F0B50546FA
:1066E0000B4614462A4619785878012875D15869FE
:1066F00020BB02F5106000EB411000696C4E304089
:1067000002F5106606EB4116306102F5106000EBF1
:106710004110006940F4002602F5106000EB4110C2
:10672000066102F5106000EB41100069C60CF6042A
:1067300002F5106000EB4110066137E002F51060D1
:1067400000EB41100069C60CF60402F5106000EB86
:106750004110066102F5106000EB41100069544ED3
:10676000304002F5106606EB411630619E685869AC
:10677000B04201D99868586102F5106000EB4110F1
:10678000006940F4002602F5106000EB411006613C
:1067900002F5106000EB411000695E69C6F3120655
:1067A000304302F5106606EB41163061012C15D11D
:1067B000186928B102F5106000EB41101E694661AE
:1067C00002F5106000EB4110006840F0044602F54D
:1067D000106000EB4110066068E01BE002F51060FD
:1067E00000EB4110006840F0044602F5106000EB39
:1067F000411006605869002858D040F6340080588F
:106800001E7806F00F070126BE40304340F63406DE
:10681000B0504BE002F5306000EB41100069C60C4F
:10682000F60402F5306000EB4110066102F53060BD
:1068300000EB411000691E4E304002F5306606EB59
:1068400041163061586908B19868586102F53060A6
:1068500000EB4110006940F4002602F5306000EBC7
:106860004110066102F5306000EB411000699E683E
:10687000C6F31206304302F5306606EB411630616E
:10688000012C07D1D86828B102F5306000EB411027
:10689000DE68466102F5306000EB4110006840F0B0
:1068A000044602F5306000EB411006600020F0BDA8
:1068B000FFFF07E070B503460C4619461D6C1848EB
:1068C000854209D94FF43060405800F00040B0F1E3
:1068D000004F01D1002070BD0026C1F8106BD1F827
:1068E000100B40F40026C1F8106BD1F8100B40F0EB
:1068F0001806C1F8106BD1F8100B40F0C046C1F873
:10690000106B012C09D1C1F8142B4FF430604058A2
:1069100040F080264FF4306046500020DBE7000056
:106920000A30544F30B504460B4622461978587841
:1069300001281ED102F5106000EB4110006820F420
:10694000001502F5106000EB41100560D8780328AF
:1069500002D0D87802282AD102F5106000EB41104D
:10696000006840F0805502F5106000EB41100560B2
:106970001DE002F5306000EB4110006820F40015C6
:1069800002F5306000EB41100560D878032802D092
:10699000D87802280BD102F5306000EB4110006876
:1069A00040F0805502F5306000EB4110056000209A
:1069B00030BD30B504460B46224619785878012878
:1069C00021D102F5106000EB4110006800F000409A
:1069D00060B959B102F5106000EB4110006820F079
:1069E000804502F5106000EB4110056002F5106073
:1069F00000EB4110006840F4001502F5106000EB58
:106A00004110056020E002F5306000EB41100068A5
:106A100000F0004060B959B102F5306000EB411060
:106A2000006820F0804502F5306000EB4110056001
:106A300002F5306000EB4110006840F4001502F5EB
:106A4000306000EB41100560002030BD2DE9F843B7
:106A500081460E4617464D463478707801287DD120
:106A6000706920BB05F5106000EB44100069C74950
:106A7000084005F5106101EB4411086105F510604F
:106A800000EB4410006940F4002105F5106000EBB4
:106A90004410016105F5106000EB44100069C10C61
:106AA000C90405F5106000EB4410016155E005F5DF
:106AB000106000EB44100069C10CC90405F51060BA
:106AC00000EB4410016105F5106000EB4410006913
:106AD000AE49084005F5106101EB44110861B16849
:106AE00070690844401EB0FBF1F0A849C94301EAAF
:106AF000C04005F5106101EB44110969084305F533
:106B0000106101EB4411086105F5106000EB4410C1
:106B100000697169C1F31201084305F5106101EBC9
:106B200044110861F078012817D105F5106000EBD9
:106B30004410006920F0C04105F5106000EB4410DE
:106B4000016105F5106000EB4410006940F0005150
:106B500005F5106000EB4410016100E07FE0012FBB
:106B600036D1306928B105F5106000EB4410316969
:106B70004161F07801281ED140F60800405900F428
:106B8000807060B905F5106000EB4410006840F0BB
:106B9000005105F5106000EB441001600BE005F5B5
:106BA000106000EB4410006840F0805105F5106063
:106BB00000EB4410016005F5106000EB4410006824
:106BC00040F0044105F5106000EB44100160DAE08C
:106BD00005F5106000EB4410006840F0044105F535
:106BE000106000EB44100160F07801280FD070694C
:106BF0000028ECD040F634004059317801F00F0203
:106C000001219140084340F634014851BBE040F671
:106C10000800405900F4807060B905F5106000EB81
:106C20004410006840F0005105F5106000EB44107E
:106C300001600BE005F5106000EB4410006840F0C7
:106C4000805105F5106000EB441001600097B08A98
:106C500083B232784846F16800F0E6F993E005F532
:106C6000306000EB44100069C10CC90405F53060C8
:106C700000EB4410016105F5306000EB4410006941
:106C80004249084005F5306101EB44110861706923
:106C9000D0B905F5306000EB44100069B168C1F36C
:106CA0001201084305F5306101EB4411086105F557
:106CB000306000EB4410006940F4002105F53060BD
:106CC00000EB4410016126E0B16870690844401E81
:106CD000B0FBF1F01FFA80F805F5306000EB4410CE
:106CE00000692A49C94301EAC841084305F53061F2
:106CF00001EB4411086105F5306000EB44100069B8
:106D0000B16801FB08F1C1F31201084305F53061D8
:106D100001EB44110861012F07D1F06828B105F596
:106D2000306000EB4410F1684161F07801281ED119
:106D300040F60800405900F4807060B905F53060F5
:106D400000EB4410006840F0005105F5306000EBA6
:106D5000441001600BE005F5306000EB4410006862
:106D600040F0805105F5306000EB4410016005F5FE
:106D7000306000EB4410006840F0044105F53060DD
:106D800000EB441001600020BDE8F883FFFF07E03E
:106D90000146886840F001008860002070470000CC
:106DA000014600221020086100BF501C0246064B1D
:106DB000984201D903207047086900F0100010289C
:106DC000F3D00020F7E70000400D030010B50246A5
:106DD0000023202040EA8110106100BF581C0346A8
:106DE000054CA04201D9032010BD106900F020001D
:106DF0002028F3D00020F7E7400D030010B501462E
:106E00000B4640F60804E45804F006020AB90020D4
:106E100006E0022A01D0062A01D1022000E00F205C
:106E200010BD0146486900F00100704701460B465D
:106E300040F61800C258001DC058024090B270477A
:106E400001460B4640F61800C258001DC0580240CB
:106E5000100C704770B5024613464FF40166F458A3
:106E600040F63406F55801F00F0625FA06F606F04E
:106E7000010644EAC61403F5106606EB4116B6682F
:106E800006EA040070BD10B50246134603F53064EF
:106E900004EB4114A06840F61404E458204010BDEF
:106EA000014648698A6910407047F0B503461E469E
:106EB0000846D71CBD08002405E04FF48057BF5991
:106EC0000760001D641CAC42F7D3F0BD70B50446EA
:106ED0000D46E06820F0C040E060012D04D1E0687C
:106EE00040F00050E06007E025B9E06840F08040E5
:106EF000E06001E0012070BD3220FAF783F8002045
:106F0000F9E710B502460B461146D1F8000820F407
:106F1000FE60C1F80008D1F800084FF4FE6404EAEE
:106F200003142043C1F80008002010BD0246134698
:106F3000D3F800080843C3F8000800207047000099
:106F400030B503461446022C49D12D48814204D362
:106F50002C48814201D20F2245E02A48814204D3C5
:106F60002948814201D20E223DE02748814204D3C4
:106F70002648814201D20D2235E02448814204D3C3
:106F80002348814201D20C222DE02148814204D3C2
:106F90002048814201D20B2225E01E48814204D3C1
:106FA0001D48814201D20A221DE01B48814204D3C0
:106FB0001A48814201D2092215E01848814204D3BF
:106FC0001748814201D208220DE01548814204D3BE
:106FD0001448814201D2072205E0062203E00CB9E1
:106FE000092200E00922D86820F47050D860D868DF
:106FF0004FF4705505EA82252843D860002030BD43
:10700000C0ACD800C0E1E4000024F40080730601A5
:10701000A0491A01002D310140A44C0100366E0137
:1070200020ABA6010048E8012DE9F04304460D46D7
:10703000DDF81CC0A0462E46BCF1000F0FD1D81CB5
:107040008708002109E008F5805000EB0230D6F8EF
:107050000090C0F80090361D491CB942F3D30020BF
:10706000BDE8F08300BFFEE710B52DED108BB0EE4C
:10707000408AF0EE608AB0EE41FA9FED3E0AF0EEF3
:1070800040FA1FEE100AF9F7AFFA41EC190B18EEAF
:10709000100AF9F7A9FA41EC1B0BB0EE4B0AF0EE1F
:1070A0006B0A00F0A9F8B0EE40AAF0EE60AA53EC2B
:1070B000192B51EC1A0BF9F7ABFA04D8B7EE000A0A
:1070C000F0EE40FA50E018EE900AF9F78DFA41EC34
:1070D000190B18EE100AF9F787FA41EC1B0BB0EE0A
:1070E0004B0AF0EE6B0A00F087F8B0EE40AAF0EE23
:1070F00060AA53EC192B51EC1A0BF9F7A1FA04D240
:107100009FED1C0AF0EE40FA2EE038EECF0A10EEAA
:10711000101A0846F9F768FA41EC1A0B18EE100A33
:10712000F9F762FA41EC1E0BB0EE4E0AF0EE6E0A71
:1071300000F062F8B0EE40CAF0EE60CA18EE900AB5
:10714000F9F752FA41EC1D0B53EC1C2BF9F735F90A
:1071500041EC1B0B53EC1A2BF9F7A7F941EC190B77
:10716000F9F786FA0FEE900AB0EE6F0ABDEC108BBD
:1071700010BD0000000000000FB4054B10B503A9BE
:10718000044A029800F056F910BC5DF814FB0000A8
:10719000917B0008D40100200FB4084B10B504A95E
:1071A00002AA039800F046F9044602A9002000F064
:1071B000D8FC204610BC5DF814FB0000637B00087F
:1071C00002480068C0F30220704700000CED00E0A8
:1071D00010B5002804DB0A07130E054A135406E015
:1071E0000A07140E034A00F00F031B1FD45410BDEE
:1071F00000E400E018ED00E02DED020B019820F016
:10720000004001909DED000B02B0704702E008C8FD
:10721000121F08C1002AFAD170477047002001E010
:1072200001C1121F002AFBD1704700002DE9FF5F4A
:1072300082B00021DDE90430020DDDF840B00343E7
:1072400018D044F61050A2F2FF32424315141198A0
:1072500001281FD0A5EB0B00401C5FEA000A4FF08D
:1072600000064E4FDFF83891B046504615D5CAF1AA
:10727000000413E0119801244AA3012801D16FEA08
:107280000B010298119AC0E90031C0E9024206B030
:10729000BDE8F09FCBF10000DFE704460021404A43
:1072A000491842EB0450CDE9001012E0E00707D086
:1072B00032463B4640464946F9F785F880468946BE
:1072C00032463B4610461946F9F77DF806460F460A
:1072D0006410002CEAD1DDE90401DDE90023BAF1F4
:1072E000000F06DAF9F76FF842464B46F9F76BF8EC
:1072F00005E0F9F7DAF842464B46F9F7D6F80446C6
:107300000E460022284BF9F79BF903D84FF0FF30C7
:10731000014607E00022254B20463146F8F7ACFF36
:10732000F9F79DFA102409E0002C0ADB0A22002359
:10733000F8F746FF039B30321A55641E50EA0102EB
:10734000F2D1641C039AC4F111031444119A012A66
:1073500003D0012208430DD10AE0084304D00020E5
:107360004FF0110B119072E7A3EB0B056D1E0DE0B2
:107370005B4504DD4FF0000205F1010504E003DA8E
:107380004FF00002A5F10105002AECD002981199F6
:10739000C0E90231C0E9004579E70000000014406F
:1073A0000000F03F300000000000F0430000E03F2C
:1073B00000B59FED160A164880ED100A9FED150ADC
:1073C00080ED060A9FED140A80ED010A9FED130A75
:1073D00080ED020A9FED120A80ED030A9FED110A6B
:1073E00080ED0D0A9FED100A80ED0C0A9FED070A53
:1073F00080ED0B0A9FED0D0A80ED090A9FED0C0A46
:1074000080ED0A0A00F042FC00BD00000000FA44D2
:10741000F80100200000FA430AD7A33D4260E53B93
:107420000AD7A33C0AD7233C0000C84200004843C7
:10743000000048C32DE9FF4F95B09B46894606469C
:1074400000250FE2252877D100242746F84A01219C
:10745000059400E0044316F8013F203B01FA03F0D5
:107460001042F7D130782A2811D06FF02F033078EE
:10747000A0F13002092A16D8059A44F0020402EB62
:10748000820203EB42021044761C0590EFE759F8A4
:10749000042B0592002A03DA504244F4005405906C
:1074A00044F00204761C30782E2816D116F8010F0D
:1074B00044F004042A280DD06FF02F023078A0F198
:1074C0003003092B09D807EB870302EB4303C718E6
:1074D000761CF3E759F8047B761C30786C280FD0C3
:1074E00006DC4C2817D068280DD06A2814D104E097
:1074F000742810D07A280FD10DE044F400140AE06B
:1075000044F4801401E044F440147278824202D1C1
:1075100004F58014761C761C307866280BD013DCBA
:10752000582877D009DC002875D04528F6D04628A1
:10753000F4D047281AD19DE118E0632835D064289B
:1075400079D0652812D195E1702873D008DC6728BE
:10755000F1D069286FD06E280DD06F2806D1B5E024
:1075600073282CD0752875D0782874D05A4617996E
:1075700090476D1C75E1C4F30250022809D003281E
:107580000DD0D9F8001004280DD00D6009F10409C0
:1075900067E1D9F80010EA17C1E90052F6E7D9F817
:1075A00000100D80F2E70D70F0E719F8041B8DF85C
:1075B000001000208DF80100EA46012003E059F890
:1075C00004AB4FF0FF3061074FF0000102D40DE033
:1075D00008F101018846B9420FDA8045F8DB1AF854
:1075E00008100029F4D108E008F101018846814221
:1075F000FADB1AF808100029F6D105985B46A0EBD3
:10760000080721463846179A00F094FA284400EB00
:10761000080507E04DE029E10DE01AF8010B5A4694
:1076200017999047B8F10108F7D25B4621463846D2
:10763000179A13E142E00A220092C4F302524FF07B
:10764000000A022A08D059F804CB032A4FEAEC7149
:107650000AD00DE029E02AE009F1070121F0070234
:10766000F2E802C1914609E00FFA8CFC4FEAEC7196
:10767000042A03D14FFA8CFC4FEAEC71002907DA97
:107680000A460021DCF1000C61EB02012D2202E030
:10769000220504D52B228DF80420012203E0E20705
:1076A00001D02022F7E7904659E00A2102E010229B
:1076B0000DE010214FF0000A00910BE010224FF076
:1076C000000A44F004040827009203E008224FF067
:1076D000000A0092C4F30252022A05D059F804CBE2
:1076E0000021032A08D009E009F1070121F007026F
:1076F000F2E802C1914605E01FFA8CFC042A01D190
:107700000CF0FF0C4FF00008220728D5702806D097
:10771000009B83F0100353EA0A0305D00EE04022D9
:107720008DF80420012208E05CEA010206D0302234
:107730008DF804208DF8050002229046009B83F00E
:10774000080353EA0A030AD15CEA010201D1620785
:1077500005D530228DF804204FF001087F1E5828EF
:1077600004D034A003900EA802900DE036A0F9E7F3
:1077700053466046009AF8F723FD84460398825CDE
:107780000298401E029002705CEA0100F0D102985B
:1077900006A9081A00F1200A600702D524F48034F3
:1077A00000E00127574502DDA7EB0A0000E00020BA
:1077B00000EB0A01009005984144401A0590E0034F
:1077C00006D45B462146179A059800F0B3F90544A4
:1077D000002706E001A85A46C05D179990476D1C26
:1077E0007F1C4745F6DBE0030CD55B462146179A24
:1077F000059800F09FF9054404E030205A46179997
:1078000090476D1C0099481E00900029F5DC08E0A7
:10781000029802995A460078491C0291179990479C
:107820006D1CBAF10001AAF1010AF1DC65E100006A
:107830000928010030313233343536373839616246
:10784000636465660000000030313233343536370A
:1078500038394142434445460000000000F058F9E1
:107860000544761C307800287FF4ECAD19B028462A
:10787000BDE8F08F620700D4062709F1070222F065
:10788000070CFCE80223E14603F000485FEA080C1D
:1078900002D00FF2702C0DE05FEA045C02D50FF20B
:1078A000682C07E05FEAC47C02D00FF2602C01E094
:1078B000AFF2700C4FF0FF3823F00043CDF850C00A
:1078C00065280CD006DC452809D046281DD047285D
:1078D0003DD13DE0662818D067287ED138E00021F0
:1078E000112F01DB112000E0781CCDE9000106A971
:1078F0000EA8FFF79BFCDDE90F010E9A0391002112
:10790000009207F1010A04914DE04FF0004000970A
:10791000CDE9011006A90EA8FFF788FCDDE90F02EA
:1079200003920E9B11990022DDF80CA000930492A3
:1079300011B9791C00EB010AB7EB0A0004D4C0F1BD
:10794000FF3007F1010A0490AAEB0700019044E020
:10795000012F00DA01270021112F01DD112000E0A5
:107960003846CDE9000106A90EA8FFF75FFCDDE966
:107970000F010E9A0391002104910092BA4621074B
:107980000CD40399514500DA8A46BAF1010F05DD9E
:10799000009AAAF10101515C302908D0B84202DAFC
:1079A00010F1040F06DA0121CDE9011015E0AAF16A
:1079B0000101E9E7002805DC049901440491AAEBE0
:1079C000000102E0411C514500DD8A460499401A3D
:1079D000401C01904FF000400290200704D4019811
:1079E000504501DBCDF8048000208DF84F0002984F
:1079F0000DF14F07B0F1004F25D02B200E900298CB
:107A00004FF0020800280CDA404202902D200E9020
:107A100007E00A210298F8F747FE3031029007F894
:107A2000011DB8F10001A8F10108F2DC029800285C
:107A3000EFD1791E0E980870307800F0200040F0E9
:107A4000450007F8020D12A8C01B00F107081498A2
:107A5000007800B1012000EB0A01019801EBE07110
:107A600005984144401A401E0590E00306D45B4649
:107A70002146179A059800F05DF80544149800789F
:107A800018B15A46179990476D1CE00324D55B4600
:107A90002146179A059800F04DF805441CE004981B
:107AA000002807DBDDE90301884203DD0098405C24
:107AB000179901E0179930205A469047049805F12C
:107AC0000105401C04900198401E019004D12E2015
:107AD0005A46179990476D1CBAF10001AAF1010AA4
:107AE000DDDC05E017F8010B5A46179990476D1C2D
:107AF000B8F10001A8F10108F4DC5B462146179AB1
:107B00000598ABE62D0000002B00000020000000CF
:107B10002DE9F041044600251E461746880404D48A
:107B200005E039462020B0476D1C641EF9D5284673
:107B3000BDE8F0812DE9F041044600251E4690463F
:107B4000C80301D5302700E02027880404D505E0CC
:107B500041463846B0476D1C641EF9D52846BDE83D
:107B6000F0810A68531C0B601070704710B5F0EE7E
:107B7000401AB1EE000A21EE800ABDEEC00A10EEF6
:107B8000100A04B22146012000F00AF910BD0000DD
:107B900013B50C464FF6FE73012269460248FBF707
:107BA000DDFC00981CBD00002807002010B500284F
:107BB00021D0114B0022001F196803E0814203D835
:107BC0000A4649680029F9D152B11368841A9C42C7
:107BD00004D1006818441060104602E0506000E0D4
:107BE000186039B102680B1A934203D10B681A442A
:107BF00002604968416010BDD801002010B52DED2C
:107C0000048BB0EE408AF0EE608A9FED080B53ECD7
:107C1000102B51EC180BF8F748FC41EC190BF8F756
:107C2000C4FC04462046BDEC048B10BDBA490C02CE
:107C30002B87863F30B5024600211248028003465A
:107C40001B690446B4F90040634304466569B4F90E
:107C5000044005FB0430C31700EB93539912B1F5B0
:107C6000004F01DB47F6FF7111F5004F00DA0649BE
:107C700008B2044B5880184643888380B0F902004C
:107C800030BD0000E00100200080FFFF01200D4911
:107C9000C860032088600846C068896808440949AC
:107CA000C968890291FBF0F0064908610846C0687E
:107CB0008968084403498968890291FBF0F0014909
:107CC00048617047E0010020F9F7C2FAFCF702FAB8
:107CD000FBF716FDFBF7D0FCFBF730FFFBF7AAFE26
:107CE000FBF7DEFDFBF75CFDFBF73EFEFBF79EFDC1
:107CF000FBF7CEFEFBF7F6FEFBF770FE01E000F0AF
:107D0000FBF9FCE7F0B50B30154D20F0070100241E
:107D1000144A0FE003688B420BD38B4205D95E1ADD
:107D200043184768C3E9006700E04368136002C076
:107D300004E0021D10680028ECD12046002802D182
:107D4000286808B10020F0BD064A07481060074ABD
:107D5000121A22F00702C0E9002401202860D7E7A8
:107D6000DC010020D8010020A4220020A02A00204D
:107D700010B52DED028B04462046F8F705FC41ECCA
:107D8000180B9FED050B53EC102BF8F71CFB41EC87
:107D9000100BBDEC028B10BDBA490C022B87863F3D
:107DA000012812D100EE101AF8EEC00A9FED171A42
:107DB00080EE810AF2EE040A20EE200ABDEEC00A2F
:107DC00010EE102A4C32124B1A80022812D100EE0B
:107DD000101AB8EEC00A9FED0D1AC0EE010AB2EEFD
:107DE000040A20EE800ABDEEC00A10EE102A4C32C2
:107DF000084B1A80064A1288074B1B685A63054ACB
:107E00001288054B1B689A63704700000000C84247
:107E10001200002014000020A806002070B50346C0
:107E2000581C145C981C105C44EA0020C0F30A0043
:107E30000880981C105CC410D81C105C44EA4010E8
:107E4000C0F30A004880D81C105C8411181D105C17
:107E500044EA8004581D105C44EA8020C0F30A0004
:107E60008880581D105C4410981D105C44EAC010B6
:107E7000C0F30A00C880981D105C0411D81D105C66
:107E800044EA0010C0F30A000881D81D105CC41138
:107E900003F10800105C44EA400403F10900105C9F
:107EA00044EA4020C0F30A00488103F10900105C55
:107EB000841003F10A00105C44EA8010C0F30A0049
:107EC000888103F10A00105C441103F10B00105C7F
:107ED00044EAC000C88103F10C00145C401C105C33
:107EE00044EA0020C0F30A00088203F10D00105C90
:107EF000C41003F10E00105C44EA4010C0F30A0005
:107F0000488203F10E00105C841103F10F00105C35
:107F100044EA800403F11000105C44EA8020C0F3BE
:107F20000A00888203F11000105C441003F1110074
:107F3000105C44EAC010C0F30A00C88203F11100CB
:107F4000105C041103F11200105C44EA0010C0F34D
:107F50000A00088303F11200105CC41103F113003E
:107F6000105C44EA400403F11400105C44EA402031
:107F7000C0F30A00488303F11400105C841003F17D
:107F80001500105C44EA8010C0F30A00888303F1F6
:107F90001500105C441103F11600105C44EAC000A7
:107FA000C883002411E031F81450A5F2FF700028B6
:107FB00001DB054600E0454240F60206B54202DD1F
:107FC0004FF0FF3070BD601C84B20F2CEBDB002043
:107FD000F8E7000000B50E480078012815D1002010
:107FE0000B4908700B4800780F280ED10948007E15
:107FF00058B909480078192807D1064A07490020CE
:10800000FFF70CFF4FF0FF3000BD0020FCE7000041
:108010000900002064030020080000204403002021
:1080200010B52DED048BB0EE408A9FED2B0AB4EE17
:10803000C08AF1EE10FA03DD9FED270AB0EE408A08
:108040009FED260AB4EEC08AF1EE10FA03D29FED3E
:10805000230AB0EE408A18EE100AF8F7C5FA41EC90
:10806000190BB0EE490AF0EE690AFFF7C7FD00B23E
:108070001B4908800846B0F90000FBF7DDFE1949EE
:1080800008800846B0F90000C82801DDC820088033
:108090001448B0F9000010F1C80F03DA6FF0C70000
:1080A000104908800F48B0F900100220FFF778FE51
:1080B0000C48B0F9000000EB800043000A48026859
:1080C0000748B0F9001009A0FFF756F80A20F8F7A2
:1080D00099FFBDEC048B10BD0000C8420000C8C26F
:1080E00018000020160000209800002025642C2590
:1080F000642C25640A0000002DED0A8B00BFFFF7F9
:1081000057F9FFF767FFB7E0FFF764FF0028FAD1E0
:108110005A484089B0F57A7F10DD00F0C9F8584818
:10812000D0ED000AB0EE600AFFF77AFF5448D0EDB8
:10813000010AB0EE600AFFF719FD9DE04F48C088C4
:10814000B0F57C7F08DA4D48C088B0F57A7F03DD52
:108150004FF47B704949C8804848C08800EE100A37
:10816000B8EE400A10EE101A0846F8F73DFA41EC56
:108170001B0B9FED440B53EC102BF8F796F941ECD9
:108180001A0B9FED420B53EC102BF8F71CF941EC46
:10819000190B9FED400B53EC102BF8F70EF941EC47
:1081A000180BF8F765FA3D490860084690ED000A9B
:1081B0003B48D0ED000A30EE600A10EE101A084677
:1081C000F8F712FA41EC190BB0EE490AF0EE690A21
:1081D000FFF712F8B0EE408AF0EE608A9FED310BA7
:1081E00053EC102B51EC180BF8F72AFA06D22C4856
:1081F00090ED000A2D4880ED000A05E0274890ED3B
:10820000000A2A4880ED000A244890ED000A24481C
:1082100080ED000A254890ED000AFFF701FF17489E
:10822000808800EE100AB8EE400A10EE101A0846D8
:10823000F8F7DAF941EC1C0B9FED120B53EC102B05
:10824000F8F733F941EC1B0B9FED100B53EC102B9F
:10825000F8F7B9F841EC1A0B9FED0E0B53EC102B0D
:10826000F8F7ABF841EC190BF8F702FA08EE100A30
:10827000B0EE480AFFF77AFC46E70000440300200E
:10828000000000200000000000609F40000000008F
:1082900000C072400000000000C062402C000020BE
:1082A00028000020000000000000344030000020C2
:1082B00070B52DED048B82B0002545480078AA28C2
:1082C0007DD143484078AA2879D14148007BBB281A
:1082D00075D13F48407BBB2871D1022404E03C4863
:1082E000005D0544601C84B20A2CF8DDE8B2384910
:1082F000C97A88420ED03648C37AEAB235A13D48E1
:10830000FEF74AFF3B48F7F7B0FF86B231463948DF
:10831000F8F750FB2E48007940B200EE100AB8EE94
:10832000C00A9FED351AC0EE010A2948C0782849D5
:10833000897840EA012000B200EE100AB8EEC00AC7
:1083400030EE800A2D4880ED000A2148807940B245
:1083500000EE100AB8EEC00A9FED271AC0EE010A1F
:108360001B48407940B200EE100AB8EEC00A30EE69
:10837000800A224880ED010A90ED010A10EE101AE1
:108380000846F8F731F941EC180B1C4890ED000A4B
:1083900010EE101A0846F8F727F941EC190B8DED8D
:1083A000008B53EC192B16A11248FEF7F5FE11486D
:1083B000F7F75BFF86B231460E48F8F7FBFA40212B
:1083C0000348F7F747FF02B0BDEC048B70BD000017
:1083D0003C02002077726F6E672020646174612018
:1083E00073756D20697320782520206275742025AF
:1083F000780D0A007C0200200000C8420000002026
:108400007370643A252E30326C66206469723A25A6
:108410002E30326C6620200D0A00000010B52DEDC4
:10842000028B002053490880AA20534948700870E5
:10843000BB204873087351480068FFF799FCB0EE01
:10844000408AF0EE608A51EC180BF8F711F94C49AC
:108450000860084690ED000ABDEEC00A10EE100A52
:108460004849088008460088000A43498870454802
:108470000078C870424890ED000ADFED430A20EE14
:10848000200ABDEEC00A10EE100A00B2642190FB73
:10849000F1F201FB1200384908710020887148711F
:1084A0003A48808800EE100AB8EE400ADFED380A3C
:1084B00080EE201A9FED370A21EE000ABCEEC00ABA
:1084C00010EE100AC8713148C08800EE100AB8EEEC
:1084D000400ADFED2F0A80EE201A9FED2E0A21EED2
:1084E000000ABCEEC00A10EE100A08722748008984
:1084F00000EE100AB8EE400ADFED250A80EE201AE1
:108500009FED240A21EE000ABCEEC00A10EE100A0C
:1085100048721E48408900EE100AB8EE400ADFEDAE
:108520001C0A80EE201A9FED1B0A21EE000ABCEE09
:10853000C00A10EE100A88720220174908800DE068
:108540000D4815490988405C0A49098808440949C9
:10855000088011480088401C0F4908800E48008898
:108560000A28EDDD034800780349C872BDEC028B90
:1085700010BD0000240000201806002098000020F4
:108580001C000020200000200000C84244030020FE
:1085900000E0FF4400007F43220000200006101688
:1085A0000006101600000000000000000102030495
:1085B000060708090000000001020304DC8500082A
:1085C00000000020E0010000B4080008A4860008B4
:1085D000E0010020C03000001C72000801341321AB
:1085E000531B0869041A79041AA5041AE50413ED4B
:1085F000521B0831081312011402020216408304B0
:108600004057260201020301071A040309041A0352
:108610001359091B0853041A0F041A7D041AA904DC
:10862000011C32101957215324F4130A0632022A6E
:10863000401413694F1408A14E4C089550441AF584
:108640000C13E14D1B086D08C11A49281A39041A88
:1086500059041A29041C090243AF111DC032090430
:108660005D1A020B130524161001052401100901DF
:1086700004240202052406170107058203081C10C2
:108680000904E5320A1D070501027B2C0705810755
:10869000110937442A40072A8107112B0907440A88
:0486A0003B0444C192
:040000050800018965
:00000001FF
