Component: ARM Compiler 5.06 update 5 (build 528) Tool: armlink [4d35e2]

==============================================================================

Section Cross References

    startup_stm32f407xx.o(RESET) refers to startup_stm32f407xx.o(STACK) for __initial_sp
    startup_stm32f407xx.o(RESET) refers to startup_stm32f407xx.o(.text) for Reset_Handler
    startup_stm32f407xx.o(RESET) refers to stm32f4xx_it.o(i.NMI_Handler) for NMI_Handler
    startup_stm32f407xx.o(RESET) refers to stm32f4xx_it.o(i.HardFault_Handler) for HardFault_Handler
    startup_stm32f407xx.o(RESET) refers to stm32f4xx_it.o(i.MemManage_Handler) for MemManage_Handler
    startup_stm32f407xx.o(RESET) refers to stm32f4xx_it.o(i.BusFault_Handler) for BusFault_Handler
    startup_stm32f407xx.o(RESET) refers to stm32f4xx_it.o(i.UsageFault_Handler) for UsageFault_Handler
    startup_stm32f407xx.o(RESET) refers to stm32f4xx_it.o(i.SVC_Handler) for SVC_Handler
    startup_stm32f407xx.o(RESET) refers to stm32f4xx_it.o(i.DebugMon_Handler) for DebugMon_Handler
    startup_stm32f407xx.o(RESET) refers to stm32f4xx_it.o(i.PendSV_Handler) for PendSV_Handler
    startup_stm32f407xx.o(RESET) refers to stm32f4xx_it.o(i.SysTick_Handler) for SysTick_Handler
    startup_stm32f407xx.o(RESET) refers to stm32f4xx_it.o(i.DMA1_Stream1_IRQHandler) for DMA1_Stream1_IRQHandler
    startup_stm32f407xx.o(RESET) refers to stm32f4xx_it.o(i.DMA1_Stream5_IRQHandler) for DMA1_Stream5_IRQHandler
    startup_stm32f407xx.o(RESET) refers to stm32f4xx_it.o(i.TIM2_IRQHandler) for TIM2_IRQHandler
    startup_stm32f407xx.o(RESET) refers to stm32f4xx_it.o(i.TIM4_IRQHandler) for TIM4_IRQHandler
    startup_stm32f407xx.o(RESET) refers to stm32f4xx_it.o(i.USART1_IRQHandler) for USART1_IRQHandler
    startup_stm32f407xx.o(RESET) refers to stm32f4xx_it.o(i.USART2_IRQHandler) for USART2_IRQHandler
    startup_stm32f407xx.o(RESET) refers to stm32f4xx_it.o(i.USART3_IRQHandler) for USART3_IRQHandler
==============================================================================

Removing Unused input sections from the image.

    Removing sbus.o(.rev16_text), (4 bytes).
    Removing sbus.o(.revsh_text), (4 bytes).
    Removing sbus.o(.rrx_text), (6 bytes).
    Removing sbus.o(i.imu_init), (32 bytes).
    Removing sbus.o(.constdata), (4 bytes).
    Removing main.o(.rev16_text), (4 bytes).
    Removing main.o(.revsh_text), (4 bytes).
    Removing main.o(.rrx_text), (6 bytes).
    Removing usb_device.o(.rev16_text), (4 bytes).
    Removing usb_device.o(.revsh_text), (4 bytes).
    Removing usb_device.o(.rrx_text), (6 bytes).
    Removing usbd_conf.o(.rev16_text), (4 bytes).
    Removing usbd_conf.o(.revsh_text), (4 bytes).
    Removing usbd_conf.o(.rrx_text), (6 bytes).
    Removing usbd_conf.o(i.HAL_PCD_MspDeInit), (52 bytes).
    Removing usbd_conf.o(i.USBD_LL_DeInit), (30 bytes).
    Removing usbd_conf.o(i.USBD_LL_Delay), (12 bytes).
    Removing usbd_conf.o(i.USBD_LL_FlushEP), (38 bytes).
==============================================================================

Image Symbol Table

    Local Symbols

    Symbol Name                              Value     Ov Type        Size  Object(Section)

    ../Drivers/STM32F4xx_HAL_Driver/Src/stm32f4xx_hal.c 0x00000000   Number         0  stm32f4xx_hal.o ABSOLUTE
    ../Drivers/STM32F4xx_HAL_Driver/Src/stm32f4xx_hal_cortex.c 0x00000000   Number         0  stm32f4xx_hal_cortex.o ABSOLUTE
    ../Drivers/STM32F4xx_HAL_Driver/Src/stm32f4xx_hal_dma.c 0x00000000   Number         0  stm32f4xx_hal_dma.o ABSOLUTE
    ../Drivers/STM32F4xx_HAL_Driver/Src/stm32f4xx_hal_dma_ex.c 0x00000000   Number         0  stm32f4xx_hal_dma_ex.o ABSOLUTE
    ../Drivers/STM32F4xx_HAL_Driver/Src/stm32f4xx_hal_exti.c 0x00000000   Number         0  stm32f4xx_hal_exti.o ABSOLUTE
    ../Drivers/STM32F4xx_HAL_Driver/Src/stm32f4xx_hal_flash.c 0x00000000   Number         0  stm32f4xx_hal_flash.o ABSOLUTE
    ../Drivers/STM32F4xx_HAL_Driver/Src/stm32f4xx_hal_flash_ex.c 0x00000000   Number         0  stm32f4xx_hal_flash_ex.o ABSOLUTE
    ../Drivers/STM32F4xx_HAL_Driver/Src/stm32f4xx_hal_flash_ramfunc.c 0x00000000   Number         0  stm32f4xx_hal_flash_ramfunc.o ABSOLUTE
    ../Drivers/STM32F4xx_HAL_Driver/Src/stm32f4xx_hal_gpio.c 0x00000000   Number         0  stm32f4xx_hal_gpio.o ABSOLUTE
    ../Drivers/STM32F4xx_HAL_Driver/Src/stm32f4xx_hal_pcd.c 0x00000000   Number         0  stm32f4xx_hal_pcd.o ABSOLUTE
    ../Drivers/STM32F4xx_HAL_Driver/Src/stm32f4xx_hal_pcd_ex.c 0x00000000   Number         0  stm32f4xx_hal_pcd_ex.o ABSOLUTE
    ../Drivers/STM32F4xx_HAL_Driver/Src/stm32f4xx_hal_pwr.c 0x00000000   Number         0  stm32f4xx_hal_pwr.o ABSOLUTE
    ../Drivers/STM32F4xx_HAL_Driver/Src/stm32f4xx_hal_pwr_ex.c 0x00000000   Number         0  stm32f4xx_hal_pwr_ex.o ABSOLUTE
    ../Drivers/STM32F4xx_HAL_Driver/Src/stm32f4xx_hal_rcc.c 0x00000000   Number         0  stm32f4xx_hal_rcc.o ABSOLUTE
    ../Drivers/STM32F4xx_HAL_Driver/Src/stm32f4xx_hal_rcc_ex.c 0x00000000   Number         0  stm32f4xx_hal_rcc_ex.o ABSOLUTE
    ../Drivers/STM32F4xx_HAL_Driver/Src/stm32f4xx_hal_tim.c 0x00000000   Number         0  stm32f4xx_hal_tim.o ABSOLUTE
    ../Drivers/STM32F4xx_HAL_Driver/Src/stm32f4xx_hal_tim_ex.c 0x00000000   Number         0  stm32f4xx_hal_tim_ex.o ABSOLUTE
    ../Drivers/STM32F4xx_HAL_Driver/Src/stm32f4xx_hal_uart.c 0x00000000   Number         0  stm32f4xx_hal_uart.o ABSOLUTE
    ../Drivers/STM32F4xx_HAL_Driver/Src/stm32f4xx_ll_usb.c 0x00000000   Number         0  stm32f4xx_ll_usb.o ABSOLUTE
    ../Middlewares/ST/STM32_USB_Device_Library/Class/CDC/Src/usbd_cdc.c 0x00000000   Number         0  usbd_cdc.o ABSOLUTE
    ../Middlewares/ST/STM32_USB_Device_Library/Core/Src/usbd_core.c 0x00000000   Number         0  usbd_core.o ABSOLUTE
    ../Middlewares/ST/STM32_USB_Device_Library/Core/Src/usbd_ctlreq.c 0x00000000   Number         0  usbd_ctlreq.o ABSOLUTE
    ../Middlewares/ST/STM32_USB_Device_Library/Core/Src/usbd_ioreq.c 0x00000000   Number         0  usbd_ioreq.o ABSOLUTE
    ../Src/main.c                            0x00000000   Number         0  main.o ABSOLUTE
    ../Src/stm32f4xx_hal_msp.c               0x00000000   Number         0  stm32f4xx_hal_msp.o ABSOLUTE
    ../Src/stm32f4xx_it.c                    0x00000000   Number         0  stm32f4xx_it.o ABSOLUTE
    ../Src/system_stm32f4xx.c                0x00000000   Number         0  system_stm32f4xx.o ABSOLUTE
    ../Src/usb_device.c                      0x00000000   Number         0  usb_device.o ABSOLUTE
    ../Src/usbd_cdc_if.c                     0x00000000   Number         0  usbd_cdc_if.o ABSOLUTE
    ../Src/usbd_conf.c                       0x00000000   Number         0  usbd_conf.o ABSOLUTE
    ../Src/usbd_desc.c                       0x00000000   Number         0  usbd_desc.o ABSOLUTE
    ../clib/../cmprslib/zerorunl2.c          0x00000000   Number         0  __dczerorl2.o ABSOLUTE
    ../clib/microlib/division.c              0x00000000   Number         0  uidiv.o ABSOLUTE
    ../clib/microlib/division.c              0x00000000   Number         0  uldiv.o ABSOLUTE
    ../clib/microlib/init/entry.s            0x00000000   Number         0  entry9b.o ABSOLUTE
    ../clib/microlib/init/entry.s            0x00000000   Number         0  entry8b.o ABSOLUTE
    ../clib/microlib/init/entry.s            0x00000000   Number         0  entry8a.o ABSOLUTE
    ../clib/microlib/init/entry.s            0x00000000   Number         0  entry7b.o ABSOLUTE
    ../clib/microlib/init/entry.s            0x00000000   Number         0  entry7a.o ABSOLUTE
    ../clib/microlib/init/entry.s            0x00000000   Number         0  entry5.o ABSOLUTE
    ../clib/microlib/init/entry.s            0x00000000   Number         0  entry2.o ABSOLUTE
    ../clib/microlib/init/entry.s            0x00000000   Number         0  entry.o ABSOLUTE
    ../clib/microlib/init/entry.s            0x00000000   Number         0  entry9a.o ABSOLUTE
    ../clib/microlib/init/entry.s            0x00000000   Number         0  entry11b.o ABSOLUTE
    ../clib/microlib/init/entry.s            0x00000000   Number         0  entry11a.o ABSOLUTE
    ../clib/microlib/init/entry.s            0x00000000   Number         0  entry10b.o ABSOLUTE
    ../clib/microlib/init/entry.s            0x00000000   Number         0  entry10a.o ABSOLUTE
    ../clib/microlib/longlong.c              0x00000000   Number         0  llsshr.o ABSOLUTE
    ../clib/microlib/longlong.c              0x00000000   Number         0  llshl.o ABSOLUTE
    ../clib/microlib/longlong.c              0x00000000   Number         0  llushr.o ABSOLUTE
    ../clib/microlib/malloc/malloc.c         0x00000000   Number         0  mallocra.o ABSOLUTE
    ../clib/microlib/malloc/malloc.c         0x00000000   Number         0  mallocr.o ABSOLUTE
    ../clib/microlib/malloc/malloc.c         0x00000000   Number         0  malloc.o ABSOLUTE
    ../clib/microlib/malloc/malloc.c         0x00000000   Number         0  malloca.o ABSOLUTE
    ../clib/microlib/malloc/mvars.c          0x00000000   Number         0  mvars.o ABSOLUTE
    ../clib/microlib/printf/printf.c         0x00000000   Number         0  printf4.o ABSOLUTE
    ../clib/microlib/printf/printf.c         0x00000000   Number         0  printf6.o ABSOLUTE
    ../clib/microlib/printf/printf.c         0x00000000   Number         0  printf3.o ABSOLUTE
    ../clib/microlib/printf/printf.c         0x00000000   Number         0  printf2.o ABSOLUTE
    ../clib/microlib/printf/printf.c         0x00000000   Number         0  printf1.o ABSOLUTE
    ../clib/microlib/printf/printf.c         0x00000000   Number         0  printf0.o ABSOLUTE
    ../clib/microlib/printf/printf.c         0x00000000   Number         0  printfb.o ABSOLUTE
    ../clib/microlib/printf/printf.c         0x00000000   Number         0  printfa.o ABSOLUTE
    ../clib/microlib/printf/printf.c         0x00000000   Number         0  printf8.o ABSOLUTE
    ../clib/microlib/printf/printf.c         0x00000000   Number         0  printf7.o ABSOLUTE
    ../clib/microlib/printf/printf.c         0x00000000   Number         0  printf5.o ABSOLUTE
    ../clib/microlib/printf/stubs.s          0x00000000   Number         0  stubs.o ABSOLUTE
    ../clib/microlib/stdio/streams.c         0x00000000   Number         0  stdout.o ABSOLUTE
    ../clib/microlib/string/memcpy.c         0x00000000   Number         0  memcpyb.o ABSOLUTE
    ../clib/microlib/string/memcpy.c         0x00000000   Number         0  memcpya.o ABSOLUTE
    ../clib/microlib/string/memset.c         0x00000000   Number         0  memseta.o ABSOLUTE
    ../clib/microlib/string/strlen.c         0x00000000   Number         0  strlen.o ABSOLUTE
    ../clib/microlib/stubs.s                 0x00000000   Number         0  iusefp.o ABSOLUTE
    ../fplib/microlib/d2f.c                  0x00000000   Number         0  d2f.o ABSOLUTE
    ../fplib/microlib/f2d.c                  0x00000000   Number         0  f2d.o ABSOLUTE
    ../fplib/microlib/fpadd.c                0x00000000   Number         0  dadd.o ABSOLUTE
    ../fplib/microlib/fpdiv.c                0x00000000   Number         0  ddiv.o ABSOLUTE
    ../fplib/microlib/fpepilogue.c           0x00000000   Number         0  fepilogue.o ABSOLUTE
    ../fplib/microlib/fpepilogue.c           0x00000000   Number         0  depilogue.o ABSOLUTE
    ../fplib/microlib/fpfix.c                0x00000000   Number         0  dfixi.o ABSOLUTE
    ../fplib/microlib/fpfix.c                0x00000000   Number         0  dfixul.o ABSOLUTE
    ../fplib/microlib/fpflt.c                0x00000000   Number         0  dflti.o ABSOLUTE
    ../fplib/microlib/fpmul.c                0x00000000   Number         0  dmul.o ABSOLUTE
    ../mathlib/fabs.c                        0x00000000   Number         0  fabs.o ABSOLUTE
    ..\Drivers\STM32F4xx_HAL_Driver\Src\stm32f4xx_hal.c 0x00000000   Number         0  stm32f4xx_hal.o ABSOLUTE
    ..\Drivers\STM32F4xx_HAL_Driver\Src\stm32f4xx_hal_cortex.c 0x00000000   Number         0  stm32f4xx_hal_cortex.o ABSOLUTE
    ..\Drivers\STM32F4xx_HAL_Driver\Src\stm32f4xx_hal_dma.c 0x00000000   Number         0  stm32f4xx_hal_dma.o ABSOLUTE
    ..\Drivers\STM32F4xx_HAL_Driver\Src\stm32f4xx_hal_dma_ex.c 0x00000000   Number         0  stm32f4xx_hal_dma_ex.o ABSOLUTE
    ..\Drivers\STM32F4xx_HAL_Driver\Src\stm32f4xx_hal_exti.c 0x00000000   Number         0  stm32f4xx_hal_exti.o ABSOLUTE
    ..\Drivers\STM32F4xx_HAL_Driver\Src\stm32f4xx_hal_flash.c 0x00000000   Number         0  stm32f4xx_hal_flash.o ABSOLUTE
    ..\Drivers\STM32F4xx_HAL_Driver\Src\stm32f4xx_hal_flash_ex.c 0x00000000   Number         0  stm32f4xx_hal_flash_ex.o ABSOLUTE
    ..\Drivers\STM32F4xx_HAL_Driver\Src\stm32f4xx_hal_flash_ramfunc.c 0x00000000   Number         0  stm32f4xx_hal_flash_ramfunc.o ABSOLUTE
    ..\Drivers\STM32F4xx_HAL_Driver\Src\stm32f4xx_hal_gpio.c 0x00000000   Number         0  stm32f4xx_hal_gpio.o ABSOLUTE
    ..\Drivers\STM32F4xx_HAL_Driver\Src\stm32f4xx_hal_pcd.c 0x00000000   Number         0  stm32f4xx_hal_pcd.o ABSOLUTE
    ..\Drivers\STM32F4xx_HAL_Driver\Src\stm32f4xx_hal_pcd_ex.c 0x00000000   Number         0  stm32f4xx_hal_pcd_ex.o ABSOLUTE
    ..\Drivers\STM32F4xx_HAL_Driver\Src\stm32f4xx_hal_pwr.c 0x00000000   Number         0  stm32f4xx_hal_pwr.o ABSOLUTE
    ..\Drivers\STM32F4xx_HAL_Driver\Src\stm32f4xx_hal_pwr_ex.c 0x00000000   Number         0  stm32f4xx_hal_pwr_ex.o ABSOLUTE
    ..\Drivers\STM32F4xx_HAL_Driver\Src\stm32f4xx_hal_rcc.c 0x00000000   Number         0  stm32f4xx_hal_rcc.o ABSOLUTE
    ..\Drivers\STM32F4xx_HAL_Driver\Src\stm32f4xx_hal_rcc_ex.c 0x00000000   Number         0  stm32f4xx_hal_rcc_ex.o ABSOLUTE
    ..\Drivers\STM32F4xx_HAL_Driver\Src\stm32f4xx_hal_tim.c 0x00000000   Number         0  stm32f4xx_hal_tim.o ABSOLUTE
    ..\Drivers\STM32F4xx_HAL_Driver\Src\stm32f4xx_hal_tim_ex.c 0x00000000   Number         0  stm32f4xx_hal_tim_ex.o ABSOLUTE
    ..\Drivers\STM32F4xx_HAL_Driver\Src\stm32f4xx_hal_uart.c 0x00000000   Number         0  stm32f4xx_hal_uart.o ABSOLUTE
    ..\Drivers\STM32F4xx_HAL_Driver\Src\stm32f4xx_ll_usb.c 0x00000000   Number         0  stm32f4xx_ll_usb.o ABSOLUTE
    ..\Middlewares\ST\STM32_USB_Device_Library\Class\CDC\Src\usbd_cdc.c 0x00000000   Number         0  usbd_cdc.o ABSOLUTE
    ..\Middlewares\ST\STM32_USB_Device_Library\Core\Src\usbd_core.c 0x00000000   Number         0  usbd_core.o ABSOLUTE
    ..\Middlewares\ST\STM32_USB_Device_Library\Core\Src\usbd_ctlreq.c 0x00000000   Number         0  usbd_ctlreq.o ABSOLUTE
    ..\Middlewares\ST\STM32_USB_Device_Library\Core\Src\usbd_ioreq.c 0x00000000   Number         0  usbd_ioreq.o ABSOLUTE
    ..\Src\main.c                            0x00000000   Number         0  main.o ABSOLUTE
    ..\Src\sbus.c                            0x00000000   Number         0  sbus.o ABSOLUTE
    ..\Src\stm32f4xx_hal_msp.c               0x00000000   Number         0  stm32f4xx_hal_msp.o ABSOLUTE
    ..\Src\stm32f4xx_it.c                    0x00000000   Number         0  stm32f4xx_it.o ABSOLUTE
    ..\Src\system_stm32f4xx.c                0x00000000   Number         0  system_stm32f4xx.o ABSOLUTE
    ..\Src\usb_device.c                      0x00000000   Number         0  usb_device.o ABSOLUTE
    ..\Src\usbd_cdc_if.c                     0x00000000   Number         0  usbd_cdc_if.o ABSOLUTE
    ..\Src\usbd_conf.c                       0x00000000   Number         0  usbd_conf.o ABSOLUTE
    ..\Src\usbd_desc.c                       0x00000000   Number         0  usbd_desc.o ABSOLUTE
    ..\\Src\\sbus.c                          0x00000000   Number         0  sbus.o ABSOLUTE
    cdcmple.s                                0x00000000   Number         0  cdcmple.o ABSOLUTE
    cdrcmple.s                               0x00000000   Number         0  cdrcmple.o ABSOLUTE
    dc.s                                     0x00000000   Number         0  dc.o ABSOLUTE
    handlers.s                               0x00000000   Number         0  handlers.o ABSOLUTE
    init.s                                   0x00000000   Number         0  init.o ABSOLUTE
    startup_stm32f407xx.s                    0x00000000   Number         0  startup_stm32f407xx.o ABSOLUTE
    RESET                                    0x08000000   Section      392  startup_stm32f407xx.o(RESET)
    .ARM.Collect$$$$00000000                 0x08000188   Section        0  entry.o(.ARM.Collect$$$$00000000)
    .ARM.Collect$$$$00000001                 0x08000188   Section        4  entry2.o(.ARM.Collect$$$$00000001)
    .ARM.Collect$$$$00000004                 0x0800018c   Section        4  entry5.o(.ARM.Collect$$$$00000004)
    .ARM.Collect$$$$00000008                 0x08000190   Section        0  entry7b.o(.ARM.Collect$$$$00000008)
    .ARM.Collect$$$$0000000A                 0x08000190   Section        0  entry8b.o(.ARM.Collect$$$$0000000A)
    .ARM.Collect$$$$0000000B                 0x08000190   Section        8  entry9a.o(.ARM.Collect$$$$0000000B)
    .ARM.Collect$$$$0000000D                 0x08000198   Section        0  entry10a.o(.ARM.Collect$$$$0000000D)
    .ARM.Collect$$$$0000000F                 0x08000198   Section        0  entry11a.o(.ARM.Collect$$$$0000000F)
    .ARM.Collect$$$$00002712                 0x08000198   Section        4  entry2.o(.ARM.Collect$$$$00002712)
    __lit__00000000                          0x08000198   Data           4  entry2.o(.ARM.Collect$$$$00002712)
    .text                                    0x0800019c   Section       36  startup_stm32f407xx.o(.text)
    $v0                                      0x0800019c   Number         0  startup_stm32f407xx.o(.text)
    .text                                    0x080001c0   Section        0  uldiv.o(.text)
    .text                                    0x08000222   Section        0  memcpya.o(.text)
    .text                                    0x08000246   Section        0  memseta.o(.text)
    .text                                    0x0800026a   Section        0  strlen.o(.text)
    .text                                    0x08000278   Section        0  dadd.o(.text)
    .text                                    0x080003c6   Section        0  dmul.o(.text)
    .text                                    0x080004aa   Section        0  ddiv.o(.text)
    .text                                    0x08000588   Section        0  dflti.o(.text)
    .text                                    0x080005aa   Section        0  dfixi.o(.text)
    .text                                    0x080005e8   Section        0  f2d.o(.text)
    .text                                    0x08000610   Section       48  cdcmple.o(.text)
    .text                                    0x08000640   Section       48  cdrcmple.o(.text)
    .text                                    0x08000670   Section        0  d2f.o(.text)
    .text                                    0x080006a8   Section        0  uidiv.o(.text)
    .text                                    0x080006d4   Section        0  llshl.o(.text)
    .text                                    0x080006f2   Section        0  llushr.o(.text)
    .text                                    0x08000712   Section        0  llsshr.o(.text)
    .text                                    0x08000736   Section        0  fepilogue.o(.text)
    .text                                    0x08000736   Section        0  iusefp.o(.text)
    .text                                    0x080007a4   Section        0  depilogue.o(.text)
    .text                                    0x0800085e   Section        0  dfixul.o(.text)
    .text                                    0x08000890   Section       36  init.o(.text)
    .text                                    0x080008b4   Section        0  __dczerorl2.o(.text)
    i.BusFault_Handler                       0x0800090a   Section        0  stm32f4xx_it.o(i.BusFault_Handler)
    i.CDC_Control_FS                         0x0800090e   Section        0  usbd_cdc_if.o(i.CDC_Control_FS)
    CDC_Control_FS                           0x0800090f   Thumb Code    68  usbd_cdc_if.o(i.CDC_Control_FS)
    i.CDC_DeInit_FS                          0x08000952   Section        0  usbd_cdc_if.o(i.CDC_DeInit_FS)
    CDC_DeInit_FS                            0x08000953   Thumb Code     4  usbd_cdc_if.o(i.CDC_DeInit_FS)
    i.CDC_Init_FS                            0x08000958   Section        0  usbd_cdc_if.o(i.CDC_Init_FS)
    CDC_Init_FS                              0x08000959   Thumb Code    24  usbd_cdc_if.o(i.CDC_Init_FS)
    i.CDC_Receive_FS                         0x0800097c   Section        0  usbd_cdc_if.o(i.CDC_Receive_FS)
    CDC_Receive_FS                           0x0800097d   Thumb Code    34  usbd_cdc_if.o(i.CDC_Receive_FS)
    i.CDC_TransmitCplt_FS                    0x080009a8   Section        0  usbd_cdc_if.o(i.CDC_TransmitCplt_FS)
    CDC_TransmitCplt_FS                      0x080009a9   Thumb Code    12  usbd_cdc_if.o(i.CDC_TransmitCplt_FS)
    i.CDC_Transmit_FS                        0x080009b4   Section        0  usbd_cdc_if.o(i.CDC_Transmit_FS)
    i.DMA1_Stream1_IRQHandler                0x080009ec   Section        0  stm32f4xx_it.o(i.DMA1_Stream1_IRQHandler)
    i.DMA1_Stream5_IRQHandler                0x080009fc   Section        0  stm32f4xx_it.o(i.DMA1_Stream5_IRQHandler)
    i.DMA2_Stream1_IRQHandler                0x08000a0c   Section        0  stm32f4xx_it.o(i.DMA2_Stream1_IRQHandler)
    i.DMA2_Stream2_IRQHandler                0x08000a1c   Section        0  stm32f4xx_it.o(i.DMA2_Stream2_IRQHandler)
    i.DMA_CalcBaseAndBitshift                0x08000a2c   Section        0  stm32f4xx_hal_dma.o(i.DMA_CalcBaseAndBitshift)
    DMA_CalcBaseAndBitshift                  0x08000a2d   Thumb Code    46  stm32f4xx_hal_dma.o(i.DMA_CalcBaseAndBitshift)
    i.DMA_CheckFifoParam                     0x08000a60   Section        0  stm32f4xx_hal_dma.o(i.DMA_CheckFifoParam)
    DMA_CheckFifoParam                       0x08000a61   Thumb Code   170  stm32f4xx_hal_dma.o(i.DMA_CheckFifoParam)
    i.DMA_SetConfig                          0x08000b0a   Section        0  stm32f4xx_hal_dma.o(i.DMA_SetConfig)
    DMA_SetConfig                            0x08000b0b   Thumb Code    44  stm32f4xx_hal_dma.o(i.DMA_SetConfig)
    i.DebugMon_Handler                       0x08000b36   Section        0  stm32f4xx_it.o(i.DebugMon_Handler)
    i.Error_Handler                          0x08000b38   Section        0  main.o(i.Error_Handler)
    i.Get_SerialNum                          0x08000b3c   Section        0  usbd_desc.o(i.Get_SerialNum)
    Get_SerialNum                            0x08000b3d   Thumb Code    42  usbd_desc.o(i.Get_SerialNum)
    i.HAL_DMA_Abort                          0x08000b70   Section        0  stm32f4xx_hal_dma.o(i.HAL_DMA_Abort)
    i.HAL_DMA_Abort_IT                       0x08000c1a   Section        0  stm32f4xx_hal_dma.o(i.HAL_DMA_Abort_IT)
    i.HAL_DMA_IRQHandler                     0x08000c44   Section        0  stm32f4xx_hal_dma.o(i.HAL_DMA_IRQHandler)
    i.HAL_DMA_Init                           0x08000e84   Section        0  stm32f4xx_hal_dma.o(i.HAL_DMA_Init)
    i.HAL_DMA_Start_IT                       0x08000f70   Section        0  stm32f4xx_hal_dma.o(i.HAL_DMA_Start_IT)
    i.HAL_Delay                              0x08001004   Section        0  stm32f4xx_hal.o(i.HAL_Delay)
    i.HAL_GPIO_Init                          0x0800102c   Section        0  stm32f4xx_hal_gpio.o(i.HAL_GPIO_Init)
    i.HAL_GetTick                            0x0800122c   Section        0  stm32f4xx_hal.o(i.HAL_GetTick)
    i.HAL_IncTick                            0x08001238   Section        0  stm32f4xx_hal.o(i.HAL_IncTick)
    i.HAL_Init                               0x08001250   Section        0  stm32f4xx_hal.o(i.HAL_Init)
    i.HAL_InitTick                           0x0800128c   Section        0  stm32f4xx_hal.o(i.HAL_InitTick)
    i.HAL_MspInit                            0x080012d8   Section        0  stm32f4xx_hal_msp.o(i.HAL_MspInit)
    i.HAL_NVIC_EnableIRQ                     0x08001320   Section        0  stm32f4xx_hal_cortex.o(i.HAL_NVIC_EnableIRQ)
    i.HAL_NVIC_SetPriority                   0x08001340   Section        0  stm32f4xx_hal_cortex.o(i.HAL_NVIC_SetPriority)
    i.HAL_NVIC_SetPriorityGrouping           0x080013bc   Section        0  stm32f4xx_hal_cortex.o(i.HAL_NVIC_SetPriorityGrouping)
    i.HAL_PCDEx_LPM_Callback                 0x080013e4   Section        0  stm32f4xx_hal_pcd_ex.o(i.HAL_PCDEx_LPM_Callback)
    i.HAL_PCDEx_SetRxFiFo                    0x080013e6   Section        0  stm32f4xx_hal_pcd_ex.o(i.HAL_PCDEx_SetRxFiFo)
    i.HAL_PCDEx_SetTxFiFo                    0x080013f0   Section        0  stm32f4xx_hal_pcd_ex.o(i.HAL_PCDEx_SetTxFiFo)
    i.HAL_PCD_ConnectCallback                0x0800143e   Section        0  usbd_conf.o(i.HAL_PCD_ConnectCallback)
    i.HAL_PCD_DataInStageCallback            0x0800144c   Section        0  usbd_conf.o(i.HAL_PCD_DataInStageCallback)
    i.HAL_PCD_DataOutStageCallback           0x0800146c   Section        0  usbd_conf.o(i.HAL_PCD_DataOutStageCallback)
    i.HAL_PCD_DisconnectCallback             0x0800148c   Section        0  usbd_conf.o(i.HAL_PCD_DisconnectCallback)
    i.HAL_PCD_EP_Close                       0x0800149a   Section        0  stm32f4xx_hal_pcd.o(i.HAL_PCD_EP_Close)
    i.HAL_PCD_EP_ClrStall                    0x08001504   Section        0  stm32f4xx_hal_pcd.o(i.HAL_PCD_EP_ClrStall)
    i.HAL_PCD_EP_GetRxCount                  0x08001580   Section        0  stm32f4xx_hal_pcd.o(i.HAL_PCD_EP_GetRxCount)
    i.HAL_PCD_EP_Open                        0x08001596   Section        0  stm32f4xx_hal_pcd.o(i.HAL_PCD_EP_Open)
    i.HAL_PCD_EP_Receive                     0x08001622   Section        0  stm32f4xx_hal_pcd.o(i.HAL_PCD_EP_Receive)
    i.HAL_PCD_EP_SetStall                    0x0800167a   Section        0  stm32f4xx_hal_pcd.o(i.HAL_PCD_EP_SetStall)
    i.HAL_PCD_EP_Transmit                    0x08001704   Section        0  stm32f4xx_hal_pcd.o(i.HAL_PCD_EP_Transmit)
    i.HAL_PCD_IRQHandler                     0x0800175e   Section        0  stm32f4xx_hal_pcd.o(i.HAL_PCD_IRQHandler)
    i.HAL_PCD_ISOINIncompleteCallback        0x08001cba   Section        0  usbd_conf.o(i.HAL_PCD_ISOINIncompleteCallback)
    i.HAL_PCD_ISOOUTIncompleteCallback       0x08001ccc   Section        0  usbd_conf.o(i.HAL_PCD_ISOOUTIncompleteCallback)
    i.HAL_PCD_Init                           0x08001cde   Section        0  stm32f4xx_hal_pcd.o(i.HAL_PCD_Init)
    i.HAL_PCD_MspInit                        0x08001e44   Section        0  usbd_conf.o(i.HAL_PCD_MspInit)
    i.HAL_PCD_ResetCallback                  0x08001eec   Section        0  usbd_conf.o(i.HAL_PCD_ResetCallback)
    i.HAL_PCD_ResumeCallback                 0x08001f1c   Section        0  usbd_conf.o(i.HAL_PCD_ResumeCallback)
    i.HAL_PCD_SOFCallback                    0x08001f2a   Section        0  usbd_conf.o(i.HAL_PCD_SOFCallback)
    i.HAL_PCD_SetAddress                     0x08001f38   Section        0  stm32f4xx_hal_pcd.o(i.HAL_PCD_SetAddress)
    i.HAL_PCD_SetupStageCallback             0x08001f6e   Section        0  usbd_conf.o(i.HAL_PCD_SetupStageCallback)
    i.HAL_PCD_Start                          0x08001f80   Section        0  stm32f4xx_hal_pcd.o(i.HAL_PCD_Start)
    i.HAL_PCD_SuspendCallback                0x08001fcc   Section        0  usbd_conf.o(i.HAL_PCD_SuspendCallback)
    i.HAL_RCC_ClockConfig                    0x08002000   Section        0  stm32f4xx_hal_rcc.o(i.HAL_RCC_ClockConfig)
    i.HAL_RCC_GetHCLKFreq                    0x08002184   Section        0  stm32f4xx_hal_rcc.o(i.HAL_RCC_GetHCLKFreq)
    i.HAL_RCC_GetPCLK1Freq                   0x08002190   Section        0  stm32f4xx_hal_rcc.o(i.HAL_RCC_GetPCLK1Freq)
    i.HAL_RCC_GetPCLK2Freq                   0x080021b0   Section        0  stm32f4xx_hal_rcc.o(i.HAL_RCC_GetPCLK2Freq)
    i.HAL_RCC_GetSysClockFreq                0x080021d0   Section        0  stm32f4xx_hal_rcc.o(i.HAL_RCC_GetSysClockFreq)
    i.HAL_RCC_OscConfig                      0x08002280   Section        0  stm32f4xx_hal_rcc.o(i.HAL_RCC_OscConfig)
    i.HAL_SYSTICK_Config                     0x08002708   Section        0  stm32f4xx_hal_cortex.o(i.HAL_SYSTICK_Config)
    i.HAL_TIMEx_BreakCallback                0x0800273c   Section        0  stm32f4xx_hal_tim_ex.o(i.HAL_TIMEx_BreakCallback)
    i.HAL_TIMEx_CommutCallback               0x0800273e   Section        0  stm32f4xx_hal_tim_ex.o(i.HAL_TIMEx_CommutCallback)
    i.HAL_TIMEx_MasterConfigSynchronization  0x08002740   Section        0  stm32f4xx_hal_tim_ex.o(i.HAL_TIMEx_MasterConfigSynchronization)
    i.HAL_TIM_Base_Init                      0x080027f4   Section        0  stm32f4xx_hal_tim.o(i.HAL_TIM_Base_Init)
    i.HAL_TIM_Base_MspInit                   0x08002828   Section        0  stm32f4xx_hal_msp.o(i.HAL_TIM_Base_MspInit)
    i.HAL_TIM_Base_Start_IT                  0x080028d4   Section        0  stm32f4xx_hal_tim.o(i.HAL_TIM_Base_Start_IT)
    i.HAL_TIM_ConfigClockSource              0x080028fe   Section        0  stm32f4xx_hal_tim.o(i.HAL_TIM_ConfigClockSource)
    i.HAL_TIM_Encoder_Init                   0x08002a06   Section        0  stm32f4xx_hal_tim.o(i.HAL_TIM_Encoder_Init)
    i.HAL_TIM_Encoder_MspInit                0x08002ab4   Section        0  stm32f4xx_hal_msp.o(i.HAL_TIM_Encoder_MspInit)
    i.HAL_TIM_Encoder_Start                  0x08002b3c   Section        0  stm32f4xx_hal_tim.o(i.HAL_TIM_Encoder_Start)
    i.HAL_TIM_IC_CaptureCallback             0x08002b8a   Section        0  stm32f4xx_hal_tim.o(i.HAL_TIM_IC_CaptureCallback)
    i.HAL_TIM_IRQHandler                     0x08002b8c   Section        0  stm32f4xx_hal_tim.o(i.HAL_TIM_IRQHandler)
    i.HAL_TIM_MspPostInit                    0x08002d24   Section        0  stm32f4xx_hal_msp.o(i.HAL_TIM_MspPostInit)
    i.HAL_TIM_OC_DelayElapsedCallback        0x08002d84   Section        0  stm32f4xx_hal_tim.o(i.HAL_TIM_OC_DelayElapsedCallback)
    i.HAL_TIM_PWM_ConfigChannel              0x08002d86   Section        0  stm32f4xx_hal_tim.o(i.HAL_TIM_PWM_ConfigChannel)
    i.HAL_TIM_PWM_Init                       0x08002e8e   Section        0  stm32f4xx_hal_tim.o(i.HAL_TIM_PWM_Init)
    i.HAL_TIM_PWM_MspInit                    0x08002ec2   Section        0  stm32f4xx_hal_tim.o(i.HAL_TIM_PWM_MspInit)
    i.HAL_TIM_PWM_PulseFinishedCallback      0x08002ec4   Section        0  stm32f4xx_hal_tim.o(i.HAL_TIM_PWM_PulseFinishedCallback)
    i.HAL_TIM_PWM_Start                      0x08002ec8   Section        0  stm32f4xx_hal_tim.o(i.HAL_TIM_PWM_Start)
    i.HAL_TIM_PeriodElapsedCallback          0x08002f20   Section        0  stm32f4xx_hal_tim.o(i.HAL_TIM_PeriodElapsedCallback)
    i.HAL_TIM_TriggerCallback                0x08002f22   Section        0  stm32f4xx_hal_tim.o(i.HAL_TIM_TriggerCallback)
    i.HAL_UART_DMAStop                       0x08002f24   Section        0  stm32f4xx_hal_uart.o(i.HAL_UART_DMAStop)
    i.HAL_UART_ErrorCallback                 0x08002f8a   Section        0  stm32f4xx_hal_uart.o(i.HAL_UART_ErrorCallback)
    i.HAL_UART_IRQHandler                    0x08002f8c   Section        0  stm32f4xx_hal_uart.o(i.HAL_UART_IRQHandler)
    i.HAL_UART_Init                          0x080030e0   Section        0  stm32f4xx_hal_uart.o(i.HAL_UART_Init)
    i.HAL_UART_MspInit                       0x08003154   Section        0  stm32f4xx_hal_msp.o(i.HAL_UART_MspInit)
    i.HAL_UART_Receive_DMA                   0x08003494   Section        0  stm32f4xx_hal_uart.o(i.HAL_UART_Receive_DMA)
    i.HAL_UART_RxCpltCallback                0x08003558   Section        0  stm32f4xx_hal_uart.o(i.HAL_UART_RxCpltCallback)
    i.HAL_UART_RxHalfCpltCallback            0x0800355a   Section        0  stm32f4xx_hal_uart.o(i.HAL_UART_RxHalfCpltCallback)
    i.HAL_UART_Transmit                      0x0800355c   Section        0  stm32f4xx_hal_uart.o(i.HAL_UART_Transmit)
    i.HAL_UART_TxCpltCallback                0x08003634   Section        0  stm32f4xx_hal_uart.o(i.HAL_UART_TxCpltCallback)
    i.HardFault_Handler                      0x08003636   Section        0  stm32f4xx_it.o(i.HardFault_Handler)
    i.IntToUnicode                           0x0800363a   Section        0  usbd_desc.o(i.IntToUnicode)
    IntToUnicode                             0x0800363b   Thumb Code    62  usbd_desc.o(i.IntToUnicode)
    i.MX_DMA_Init                            0x08003678   Section        0  main.o(i.MX_DMA_Init)
    MX_DMA_Init                              0x08003679   Thumb Code   130  main.o(i.MX_DMA_Init)
    i.MX_GPIO_Init                           0x08003700   Section        0  main.o(i.MX_GPIO_Init)
    MX_GPIO_Init                             0x08003701   Thumb Code   156  main.o(i.MX_GPIO_Init)
    i.MX_TIM1_Init                           0x080037a0   Section        0  main.o(i.MX_TIM1_Init)
    MX_TIM1_Init                             0x080037a1   Thumb Code   130  main.o(i.MX_TIM1_Init)
    i.MX_TIM2_Init                           0x0800382c   Section        0  main.o(i.MX_TIM2_Init)
    MX_TIM2_Init                             0x0800382d   Thumb Code   110  main.o(i.MX_TIM2_Init)
    i.MX_TIM3_Init                           0x080038a0   Section        0  main.o(i.MX_TIM3_Init)
    MX_TIM3_Init                             0x080038a1   Thumb Code   190  main.o(i.MX_TIM3_Init)
    i.MX_TIM4_Init                           0x08003968   Section        0  main.o(i.MX_TIM4_Init)
    MX_TIM4_Init                             0x08003969   Thumb Code   108  main.o(i.MX_TIM4_Init)
    i.MX_USART1_UART_Init                    0x080039dc   Section        0  main.o(i.MX_USART1_UART_Init)
    MX_USART1_UART_Init                      0x080039dd   Thumb Code    74  main.o(i.MX_USART1_UART_Init)
    i.MX_USART2_UART_Init                    0x08003a34   Section        0  main.o(i.MX_USART2_UART_Init)
    MX_USART2_UART_Init                      0x08003a35   Thumb Code    76  main.o(i.MX_USART2_UART_Init)
    i.MX_USART3_UART_Init                    0x08003a90   Section        0  main.o(i.MX_USART3_UART_Init)
    MX_USART3_UART_Init                      0x08003a91   Thumb Code    72  main.o(i.MX_USART3_UART_Init)
    i.MX_USART6_UART_Init                    0x08003ae4   Section        0  main.o(i.MX_USART6_UART_Init)
    MX_USART6_UART_Init                      0x08003ae5   Thumb Code    74  main.o(i.MX_USART6_UART_Init)
    i.MX_USB_DEVICE_Init                     0x08003b3c   Section        0  usb_device.o(i.MX_USB_DEVICE_Init)
    i.MemManage_Handler                      0x08003b88   Section        0  stm32f4xx_it.o(i.MemManage_Handler)
    i.NMI_Handler                            0x08003b8c   Section        0  stm32f4xx_it.o(i.NMI_Handler)
    i.OTG_FS_IRQHandler                      0x08003b90   Section        0  stm32f4xx_it.o(i.OTG_FS_IRQHandler)
    i.PCD_EP_OutSetupPacket_int              0x08003ba0   Section        0  stm32f4xx_hal_pcd.o(i.PCD_EP_OutSetupPacket_int)
    PCD_EP_OutSetupPacket_int                0x08003ba1   Thumb Code    94  stm32f4xx_hal_pcd.o(i.PCD_EP_OutSetupPacket_int)
    i.PCD_EP_OutXfrComplete_int              0x08003c04   Section        0  stm32f4xx_hal_pcd.o(i.PCD_EP_OutXfrComplete_int)
    PCD_EP_OutXfrComplete_int                0x08003c05   Thumb Code   372  stm32f4xx_hal_pcd.o(i.PCD_EP_OutXfrComplete_int)
    i.PCD_WriteEmptyTxFifo                   0x08003d80   Section        0  stm32f4xx_hal_pcd.o(i.PCD_WriteEmptyTxFifo)
    PCD_WriteEmptyTxFifo                     0x08003d81   Thumb Code   182  stm32f4xx_hal_pcd.o(i.PCD_WriteEmptyTxFifo)
    i.PIDRegulator                           0x08003e38   Section        0  sbus.o(i.PIDRegulator)
    i.PendSV_Handler                         0x080040b4   Section        0  stm32f4xx_it.o(i.PendSV_Handler)
    i.SVC_Handler                            0x080040b6   Section        0  stm32f4xx_it.o(i.SVC_Handler)
    i.SWAPBYTE                               0x080040b8   Section        0  usbd_ctlreq.o(i.SWAPBYTE)
    SWAPBYTE                                 0x080040b9   Thumb Code    18  usbd_ctlreq.o(i.SWAPBYTE)
    i.SysTick_Handler                        0x080040ca   Section        0  stm32f4xx_it.o(i.SysTick_Handler)
    i.SystemClock_Config                     0x080040d4   Section        0  main.o(i.SystemClock_Config)
    i.SystemInit                             0x08004188   Section        0  system_stm32f4xx.o(i.SystemInit)
    i.TIM2_IRQHandler                        0x080041a4   Section        0  stm32f4xx_it.o(i.TIM2_IRQHandler)
    i.TIM4_IRQHandler                        0x080041b8   Section        0  stm32f4xx_it.o(i.TIM4_IRQHandler)
    i.TIM_Base_SetConfig                     0x08004268   Section        0  stm32f4xx_hal_tim.o(i.TIM_Base_SetConfig)
    i.TIM_CCxChannelCmd                      0x08004340   Section        0  stm32f4xx_hal_tim.o(i.TIM_CCxChannelCmd)
    i.TIM_ETR_SetConfig                      0x08004362   Section        0  stm32f4xx_hal_tim.o(i.TIM_ETR_SetConfig)
    i.TIM_ITRx_SetConfig                     0x08004378   Section        0  stm32f4xx_hal_tim.o(i.TIM_ITRx_SetConfig)
    TIM_ITRx_SetConfig                       0x08004379   Thumb Code    18  stm32f4xx_hal_tim.o(i.TIM_ITRx_SetConfig)
    i.TIM_OC1_SetConfig                      0x0800438c   Section        0  stm32f4xx_hal_tim.o(i.TIM_OC1_SetConfig)
    TIM_OC1_SetConfig                        0x0800438d   Thumb Code   104  stm32f4xx_hal_tim.o(i.TIM_OC1_SetConfig)
    i.TIM_OC2_SetConfig                      0x080043fc   Section        0  stm32f4xx_hal_tim.o(i.TIM_OC2_SetConfig)
    i.TIM_OC3_SetConfig                      0x08004478   Section        0  stm32f4xx_hal_tim.o(i.TIM_OC3_SetConfig)
    TIM_OC3_SetConfig                        0x08004479   Thumb Code   112  stm32f4xx_hal_tim.o(i.TIM_OC3_SetConfig)
    i.TIM_OC4_SetConfig                      0x080044f0   Section        0  stm32f4xx_hal_tim.o(i.TIM_OC4_SetConfig)
    TIM_OC4_SetConfig                        0x080044f1   Thumb Code    74  stm32f4xx_hal_tim.o(i.TIM_OC4_SetConfig)
    i.TIM_TI1_ConfigInputStage               0x08004544   Section        0  stm32f4xx_hal_tim.o(i.TIM_TI1_ConfigInputStage)
    TIM_TI1_ConfigInputStage                 0x08004545   Thumb Code    38  stm32f4xx_hal_tim.o(i.TIM_TI1_ConfigInputStage)
    i.TIM_TI2_ConfigInputStage               0x0800456a   Section        0  stm32f4xx_hal_tim.o(i.TIM_TI2_ConfigInputStage)
    TIM_TI2_ConfigInputStage                 0x0800456b   Thumb Code    40  stm32f4xx_hal_tim.o(i.TIM_TI2_ConfigInputStage)
    i.UART_DMAAbortOnError                   0x08004592   Section        0  stm32f4xx_hal_uart.o(i.UART_DMAAbortOnError)
    UART_DMAAbortOnError                     0x08004593   Thumb Code    20  stm32f4xx_hal_uart.o(i.UART_DMAAbortOnError)
    i.UART_DMAError                          0x080045a6   Section        0  stm32f4xx_hal_uart.o(i.UART_DMAError)
    UART_DMAError                            0x080045a7   Thumb Code    80  stm32f4xx_hal_uart.o(i.UART_DMAError)
    i.UART_DMAReceiveCplt                    0x080045f6   Section        0  stm32f4xx_hal_uart.o(i.UART_DMAReceiveCplt)
    UART_DMAReceiveCplt                      0x080045f7   Thumb Code    70  stm32f4xx_hal_uart.o(i.UART_DMAReceiveCplt)
    i.UART_DMARxHalfCplt                     0x0800463c   Section        0  stm32f4xx_hal_uart.o(i.UART_DMARxHalfCplt)
    UART_DMARxHalfCplt                       0x0800463d   Thumb Code    14  stm32f4xx_hal_uart.o(i.UART_DMARxHalfCplt)
    i.UART_EndRxTransfer                     0x0800464a   Section        0  stm32f4xx_hal_uart.o(i.UART_EndRxTransfer)
    UART_EndRxTransfer                       0x0800464b   Thumb Code    32  stm32f4xx_hal_uart.o(i.UART_EndRxTransfer)
    i.UART_EndTransmit_IT                    0x0800466a   Section        0  stm32f4xx_hal_uart.o(i.UART_EndTransmit_IT)
    UART_EndTransmit_IT                      0x0800466b   Thumb Code    32  stm32f4xx_hal_uart.o(i.UART_EndTransmit_IT)
    i.UART_EndTxTransfer                     0x0800468a   Section        0  stm32f4xx_hal_uart.o(i.UART_EndTxTransfer)
    UART_EndTxTransfer                       0x0800468b   Thumb Code    20  stm32f4xx_hal_uart.o(i.UART_EndTxTransfer)
    i.UART_Receive_IT                        0x0800469e   Section        0  stm32f4xx_hal_uart.o(i.UART_Receive_IT)
    UART_Receive_IT                          0x0800469f   Thumb Code   166  stm32f4xx_hal_uart.o(i.UART_Receive_IT)
    i.UART_SetConfig                         0x08004744   Section        0  stm32f4xx_hal_uart.o(i.UART_SetConfig)
    UART_SetConfig                           0x08004745   Thumb Code   992  stm32f4xx_hal_uart.o(i.UART_SetConfig)
    i.UART_Transmit_IT                       0x08004b2c   Section        0  stm32f4xx_hal_uart.o(i.UART_Transmit_IT)
    UART_Transmit_IT                         0x08004b2d   Thumb Code   104  stm32f4xx_hal_uart.o(i.UART_Transmit_IT)
    i.UART_WaitOnFlagUntilTimeout            0x08004b94   Section        0  stm32f4xx_hal_uart.o(i.UART_WaitOnFlagUntilTimeout)
    UART_WaitOnFlagUntilTimeout              0x08004b95   Thumb Code   108  stm32f4xx_hal_uart.o(i.UART_WaitOnFlagUntilTimeout)
    i.USART1_IRQHandler                      0x08004c00   Section        0  stm32f4xx_it.o(i.USART1_IRQHandler)
    i.USART2_IRQHandler                      0x08004c78   Section        0  stm32f4xx_it.o(i.USART2_IRQHandler)
    i.USART3_IRQHandler                      0x08004cf0   Section        0  stm32f4xx_it.o(i.USART3_IRQHandler)
    i.USART6_IRQHandler                      0x08004d68   Section        0  stm32f4xx_it.o(i.USART6_IRQHandler)
    i.USBD_CDC_DataIn                        0x08004de0   Section        0  usbd_cdc.o(i.USBD_CDC_DataIn)
    USBD_CDC_DataIn                          0x08004de1   Thumb Code   140  usbd_cdc.o(i.USBD_CDC_DataIn)
    i.USBD_CDC_DataOut                       0x08004e6c   Section        0  usbd_cdc.o(i.USBD_CDC_DataOut)
    USBD_CDC_DataOut                         0x08004e6d   Thumb Code    52  usbd_cdc.o(i.USBD_CDC_DataOut)
    i.USBD_CDC_DeInit                        0x08004ea0   Section        0  usbd_cdc.o(i.USBD_CDC_DeInit)
    USBD_CDC_DeInit                          0x08004ea1   Thumb Code    84  usbd_cdc.o(i.USBD_CDC_DeInit)
    i.USBD_CDC_EP0_RxReady                   0x08004ef4   Section        0  usbd_cdc.o(i.USBD_CDC_EP0_RxReady)
    USBD_CDC_EP0_RxReady                     0x08004ef5   Thumb Code    50  usbd_cdc.o(i.USBD_CDC_EP0_RxReady)
    i.USBD_CDC_GetDeviceQualifierDescriptor  0x08004f28   Section        0  usbd_cdc.o(i.USBD_CDC_GetDeviceQualifierDescriptor)
    i.USBD_CDC_GetFSCfgDesc                  0x08004f38   Section        0  usbd_cdc.o(i.USBD_CDC_GetFSCfgDesc)
    USBD_CDC_GetFSCfgDesc                    0x08004f39   Thumb Code    10  usbd_cdc.o(i.USBD_CDC_GetFSCfgDesc)
    i.USBD_CDC_GetHSCfgDesc                  0x08004f48   Section        0  usbd_cdc.o(i.USBD_CDC_GetHSCfgDesc)
    USBD_CDC_GetHSCfgDesc                    0x08004f49   Thumb Code    10  usbd_cdc.o(i.USBD_CDC_GetHSCfgDesc)
    i.USBD_CDC_GetOtherSpeedCfgDesc          0x08004f58   Section        0  usbd_cdc.o(i.USBD_CDC_GetOtherSpeedCfgDesc)
    USBD_CDC_GetOtherSpeedCfgDesc            0x08004f59   Thumb Code    10  usbd_cdc.o(i.USBD_CDC_GetOtherSpeedCfgDesc)
    i.USBD_CDC_Init                          0x08004f68   Section        0  usbd_cdc.o(i.USBD_CDC_Init)
    USBD_CDC_Init                            0x08004f69   Thumb Code   192  usbd_cdc.o(i.USBD_CDC_Init)
    i.USBD_CDC_ReceivePacket                 0x08005028   Section        0  usbd_cdc.o(i.USBD_CDC_ReceivePacket)
    i.USBD_CDC_RegisterInterface             0x08005062   Section        0  usbd_cdc.o(i.USBD_CDC_RegisterInterface)
    i.USBD_CDC_SetRxBuffer                   0x08005072   Section        0  usbd_cdc.o(i.USBD_CDC_SetRxBuffer)
    i.USBD_CDC_SetTxBuffer                   0x08005080   Section        0  usbd_cdc.o(i.USBD_CDC_SetTxBuffer)
    i.USBD_CDC_Setup                         0x08005094   Section        0  usbd_cdc.o(i.USBD_CDC_Setup)
    USBD_CDC_Setup                           0x08005095   Thumb Code   250  usbd_cdc.o(i.USBD_CDC_Setup)
    i.USBD_CDC_TransmitPacket                0x0800518e   Section        0  usbd_cdc.o(i.USBD_CDC_TransmitPacket)
    i.USBD_ClrClassConfig                    0x080051ca   Section        0  usbd_core.o(i.USBD_ClrClassConfig)
    i.USBD_ClrFeature                        0x080051e6   Section        0  usbd_ctlreq.o(i.USBD_ClrFeature)
    USBD_ClrFeature                          0x080051e7   Thumb Code    62  usbd_ctlreq.o(i.USBD_ClrFeature)
    i.USBD_CtlContinueRx                     0x08005224   Section        0  usbd_ioreq.o(i.USBD_CtlContinueRx)
    i.USBD_CtlContinueSendData               0x0800523c   Section        0  usbd_ioreq.o(i.USBD_CtlContinueSendData)
    i.USBD_CtlError                          0x08005254   Section        0  usbd_ctlreq.o(i.USBD_CtlError)
    i.USBD_CtlPrepareRx                      0x0800526c   Section        0  usbd_ioreq.o(i.USBD_CtlPrepareRx)
    i.USBD_CtlReceiveStatus                  0x08005294   Section        0  usbd_ioreq.o(i.USBD_CtlReceiveStatus)
    i.USBD_CtlSendData                       0x080052ae   Section        0  usbd_ioreq.o(i.USBD_CtlSendData)
    i.USBD_CtlSendStatus                     0x080052d0   Section        0  usbd_ioreq.o(i.USBD_CtlSendStatus)
    i.USBD_FS_ConfigStrDescriptor            0x080052ec   Section        0  usbd_desc.o(i.USBD_FS_ConfigStrDescriptor)
    i.USBD_FS_DeviceDescriptor               0x08005320   Section        0  usbd_desc.o(i.USBD_FS_DeviceDescriptor)
    i.USBD_FS_InterfaceStrDescriptor         0x08005330   Section        0  usbd_desc.o(i.USBD_FS_InterfaceStrDescriptor)
    i.USBD_FS_LangIDStrDescriptor            0x08005368   Section        0  usbd_desc.o(i.USBD_FS_LangIDStrDescriptor)
    i.USBD_FS_ManufacturerStrDescriptor      0x08005378   Section        0  usbd_desc.o(i.USBD_FS_ManufacturerStrDescriptor)
    i.USBD_FS_ProductStrDescriptor           0x080053a4   Section        0  usbd_desc.o(i.USBD_FS_ProductStrDescriptor)
    i.USBD_FS_SerialStrDescriptor            0x080053e4   Section        0  usbd_desc.o(i.USBD_FS_SerialStrDescriptor)
    i.USBD_GetConfig                         0x080053fc   Section        0  usbd_ctlreq.o(i.USBD_GetConfig)
    USBD_GetConfig                           0x080053fd   Thumb Code    86  usbd_ctlreq.o(i.USBD_GetConfig)
    i.USBD_GetDescriptor                     0x08005452   Section        0  usbd_ctlreq.o(i.USBD_GetDescriptor)
    USBD_GetDescriptor                       0x08005453   Thumb Code   508  usbd_ctlreq.o(i.USBD_GetDescriptor)
    i.USBD_GetLen                            0x0800564e   Section        0  usbd_ctlreq.o(i.USBD_GetLen)
    USBD_GetLen                              0x0800564f   Thumb Code    22  usbd_ctlreq.o(i.USBD_GetLen)
    i.USBD_GetStatus                         0x08005664   Section        0  usbd_ctlreq.o(i.USBD_GetStatus)
    USBD_GetStatus                           0x08005665   Thumb Code    90  usbd_ctlreq.o(i.USBD_GetStatus)
    i.USBD_GetString                         0x080056be   Section        0  usbd_ctlreq.o(i.USBD_GetString)
    i.USBD_Get_USB_Status                    0x08005712   Section        0  usbd_conf.o(i.USBD_Get_USB_Status)
    i.USBD_Init                              0x0800573e   Section        0  usbd_core.o(i.USBD_Init)
    i.USBD_LL_ClearStallEP                   0x08005782   Section        0  usbd_conf.o(i.USBD_LL_ClearStallEP)
    i.USBD_LL_CloseEP                        0x080057a8   Section        0  usbd_conf.o(i.USBD_LL_CloseEP)
    i.USBD_LL_DataInStage                    0x080057ce   Section        0  usbd_core.o(i.USBD_LL_DataInStage)
    i.USBD_LL_DataOutStage                   0x080058b4   Section        0  usbd_core.o(i.USBD_LL_DataOutStage)
    i.USBD_LL_DevConnected                   0x08005946   Section        0  usbd_core.o(i.USBD_LL_DevConnected)
    i.USBD_LL_DevDisconnected                0x0800594c   Section        0  usbd_core.o(i.USBD_LL_DevDisconnected)
    i.USBD_LL_GetRxDataSize                  0x0800596c   Section        0  usbd_conf.o(i.USBD_LL_GetRxDataSize)
    i.USBD_LL_Init                           0x08005980   Section        0  usbd_conf.o(i.USBD_LL_Init)
    i.USBD_LL_IsStallEP                      0x080059e8   Section        0  usbd_conf.o(i.USBD_LL_IsStallEP)
    i.USBD_LL_IsoINIncomplete                0x08005a20   Section        0  usbd_core.o(i.USBD_LL_IsoINIncomplete)
    i.USBD_LL_IsoOUTIncomplete               0x08005a26   Section        0  usbd_core.o(i.USBD_LL_IsoOUTIncomplete)
    i.USBD_LL_OpenEP                         0x08005a2c   Section        0  usbd_conf.o(i.USBD_LL_OpenEP)
    i.USBD_LL_PrepareReceive                 0x08005a5c   Section        0  usbd_conf.o(i.USBD_LL_PrepareReceive)
    i.USBD_LL_Reset                          0x08005a8c   Section        0  usbd_core.o(i.USBD_LL_Reset)
    i.USBD_LL_Resume                         0x08005ae6   Section        0  usbd_core.o(i.USBD_LL_Resume)
    i.USBD_LL_SOF                            0x08005afc   Section        0  usbd_core.o(i.USBD_LL_SOF)
    i.USBD_LL_SetSpeed                       0x08005b1e   Section        0  usbd_core.o(i.USBD_LL_SetSpeed)
    i.USBD_LL_SetUSBAddress                  0x08005b26   Section        0  usbd_conf.o(i.USBD_LL_SetUSBAddress)
    i.USBD_LL_SetupStage                     0x08005b4c   Section        0  usbd_core.o(i.USBD_LL_SetupStage)
    i.USBD_LL_StallEP                        0x08005bc2   Section        0  usbd_conf.o(i.USBD_LL_StallEP)
    i.USBD_LL_Start                          0x08005be8   Section        0  usbd_conf.o(i.USBD_LL_Start)
    i.USBD_LL_Suspend                        0x08005c06   Section        0  usbd_core.o(i.USBD_LL_Suspend)
    i.USBD_LL_Transmit                       0x08005c1a   Section        0  usbd_conf.o(i.USBD_LL_Transmit)
    i.USBD_ParseSetupRequest                 0x08005c4a   Section        0  usbd_ctlreq.o(i.USBD_ParseSetupRequest)
    i.USBD_RegisterClass                     0x08005c80   Section        0  usbd_core.o(i.USBD_RegisterClass)
    i.USBD_RunTestMode                       0x08005ca6   Section        0  usbd_core.o(i.USBD_RunTestMode)
    i.USBD_SetAddress                        0x08005cac   Section        0  usbd_ctlreq.o(i.USBD_SetAddress)
    USBD_SetAddress                          0x08005cad   Thumb Code    90  usbd_ctlreq.o(i.USBD_SetAddress)
    i.USBD_SetClassConfig                    0x08005d06   Section        0  usbd_core.o(i.USBD_SetClassConfig)
    i.USBD_SetConfig                         0x08005d28   Section        0  usbd_ctlreq.o(i.USBD_SetConfig)
    USBD_SetConfig                           0x08005d29   Thumb Code   248  usbd_ctlreq.o(i.USBD_SetConfig)
    i.USBD_SetFeature                        0x08005e24   Section        0  usbd_ctlreq.o(i.USBD_SetFeature)
    USBD_SetFeature                          0x08005e25   Thumb Code    24  usbd_ctlreq.o(i.USBD_SetFeature)
    i.USBD_Start                             0x08005e3c   Section        0  usbd_core.o(i.USBD_Start)
    i.USBD_StdDevReq                         0x08005e48   Section        0  usbd_ctlreq.o(i.USBD_StdDevReq)
    i.USBD_StdEPReq                          0x08005eee   Section        0  usbd_ctlreq.o(i.USBD_StdEPReq)
    i.USBD_StdItfReq                         0x08006118   Section        0  usbd_ctlreq.o(i.USBD_StdItfReq)
    i.USB_ActivateEndpoint                   0x08006198   Section        0  stm32f4xx_ll_usb.o(i.USB_ActivateEndpoint)
    i.USB_ActivateSetup                      0x08006268   Section        0  stm32f4xx_ll_usb.o(i.USB_ActivateSetup)
    i.USB_CoreInit                           0x08006290   Section        0  stm32f4xx_ll_usb.o(i.USB_CoreInit)
    i.USB_CoreReset                          0x08006314   Section        0  stm32f4xx_ll_usb.o(i.USB_CoreReset)
    USB_CoreReset                            0x08006315   Thumb Code    70  stm32f4xx_ll_usb.o(i.USB_CoreReset)
    i.USB_DeactivateEndpoint                 0x08006360   Section        0  stm32f4xx_ll_usb.o(i.USB_DeactivateEndpoint)
    i.USB_DevConnect                         0x080064ac   Section        0  stm32f4xx_ll_usb.o(i.USB_DevConnect)
    i.USB_DevDisconnect                      0x080064cc   Section        0  stm32f4xx_ll_usb.o(i.USB_DevDisconnect)
    i.USB_DevInit                            0x080064ec   Section        0  stm32f4xx_ll_usb.o(i.USB_DevInit)
    i.USB_DisableGlobalInt                   0x080066cc   Section        0  stm32f4xx_ll_usb.o(i.USB_DisableGlobalInt)
    i.USB_EP0StartXfer                       0x080066dc   Section        0  stm32f4xx_ll_usb.o(i.USB_EP0StartXfer)
    i.USB_EP0_OutStart                       0x080068b4   Section        0  stm32f4xx_ll_usb.o(i.USB_EP0_OutStart)
    i.USB_EPClearStall                       0x08006924   Section        0  stm32f4xx_ll_usb.o(i.USB_EPClearStall)
    i.USB_EPSetStall                         0x080069b2   Section        0  stm32f4xx_ll_usb.o(i.USB_EPSetStall)
    i.USB_EPStartXfer                        0x08006a4c   Section        0  stm32f4xx_ll_usb.o(i.USB_EPStartXfer)
    i.USB_EnableGlobalInt                    0x08006d90   Section        0  stm32f4xx_ll_usb.o(i.USB_EnableGlobalInt)
    i.USB_FlushRxFifo                        0x08006da0   Section        0  stm32f4xx_ll_usb.o(i.USB_FlushRxFifo)
    i.USB_FlushTxFifo                        0x08006dcc   Section        0  stm32f4xx_ll_usb.o(i.USB_FlushTxFifo)
    i.USB_GetDevSpeed                        0x08006dfc   Section        0  stm32f4xx_ll_usb.o(i.USB_GetDevSpeed)
    i.USB_GetMode                            0x08006e22   Section        0  stm32f4xx_ll_usb.o(i.USB_GetMode)
    i.USB_ReadDevAllInEpInterrupt            0x08006e2c   Section        0  stm32f4xx_ll_usb.o(i.USB_ReadDevAllInEpInterrupt)
    i.USB_ReadDevAllOutEpInterrupt           0x08006e40   Section        0  stm32f4xx_ll_usb.o(i.USB_ReadDevAllOutEpInterrupt)
    i.USB_ReadDevInEPInterrupt               0x08006e54   Section        0  stm32f4xx_ll_usb.o(i.USB_ReadDevInEPInterrupt)
    i.USB_ReadDevOutEPInterrupt              0x08006e86   Section        0  stm32f4xx_ll_usb.o(i.USB_ReadDevOutEPInterrupt)
    i.USB_ReadInterrupts                     0x08006ea0   Section        0  stm32f4xx_ll_usb.o(i.USB_ReadInterrupts)
    i.USB_ReadPacket                         0x08006eaa   Section        0  stm32f4xx_ll_usb.o(i.USB_ReadPacket)
    i.USB_SetCurrentMode                     0x08006ecc   Section        0  stm32f4xx_ll_usb.o(i.USB_SetCurrentMode)
    i.USB_SetDevAddress                      0x08006f02   Section        0  stm32f4xx_ll_usb.o(i.USB_SetDevAddress)
    i.USB_SetDevSpeed                        0x08006f2c   Section        0  stm32f4xx_ll_usb.o(i.USB_SetDevSpeed)
    i.USB_SetTurnaroundTime                  0x08006f40   Section        0  stm32f4xx_ll_usb.o(i.USB_SetTurnaroundTime)
    i.USB_WritePacket                        0x08007028   Section        0  stm32f4xx_ll_usb.o(i.USB_WritePacket)
    i.UsageFault_Handler                     0x08007064   Section        0  stm32f4xx_it.o(i.UsageFault_Handler)
    i.VariableIntegralCoefficient            0x08007068   Section        0  sbus.o(i.VariableIntegralCoefficient)
    i.__0printf                              0x08007178   Section        0  printfa.o(i.__0printf)
    i.__0sprintf                             0x08007198   Section        0  printfa.o(i.__0sprintf)
    i.__NVIC_GetPriorityGrouping             0x080071c0   Section        0  stm32f4xx_hal_cortex.o(i.__NVIC_GetPriorityGrouping)
    __NVIC_GetPriorityGrouping               0x080071c1   Thumb Code    10  stm32f4xx_hal_cortex.o(i.__NVIC_GetPriorityGrouping)
    i.__NVIC_SetPriority                     0x080071d0   Section        0  stm32f4xx_hal_cortex.o(i.__NVIC_SetPriority)
    __NVIC_SetPriority                       0x080071d1   Thumb Code    32  stm32f4xx_hal_cortex.o(i.__NVIC_SetPriority)
    i.__hardfp_fabs                          0x080071f8   Section        0  fabs.o(i.__hardfp_fabs)
    i.__scatterload_copy                     0x0800720c   Section       14  handlers.o(i.__scatterload_copy)
    i.__scatterload_null                     0x0800721a   Section        2  handlers.o(i.__scatterload_null)
    i.__scatterload_zeroinit                 0x0800721c   Section       14  handlers.o(i.__scatterload_zeroinit)
    i._fp_digits                             0x0800722c   Section        0  printfa.o(i._fp_digits)
    _fp_digits                               0x0800722d   Thumb Code   366  printfa.o(i._fp_digits)
    i._init_PID                              0x080073b0   Section        0  sbus.o(i._init_PID)
    i._printf_core                           0x08007434   Section        0  printfa.o(i._printf_core)
    _printf_core                             0x08007435   Thumb Code  1744  printfa.o(i._printf_core)
    i._printf_post_padding                   0x08007b10   Section        0  printfa.o(i._printf_post_padding)
    _printf_post_padding                     0x08007b11   Thumb Code    36  printfa.o(i._printf_post_padding)
    i._printf_pre_padding                    0x08007b34   Section        0  printfa.o(i._printf_pre_padding)
    _printf_pre_padding                      0x08007b35   Thumb Code    46  printfa.o(i._printf_pre_padding)
    i._sputc                                 0x08007b62   Section        0  printfa.o(i._sputc)
    _sputc                                   0x08007b63   Thumb Code    10  printfa.o(i._sputc)
    i.dir_crtl                               0x08007b6c   Section        0  sbus.o(i.dir_crtl)
    i.fputc                                  0x08007b90   Section        0  main.o(i.fputc)
    i.free                                   0x08007bac   Section        0  malloc.o(i.free)
    i.kmh2pulse                              0x08007bfc   Section        0  sbus.o(i.kmh2pulse)
    i.low_filter_calc                        0x08007c34   Section        0  sbus.o(i.low_filter_calc)
    i.low_filter_init                        0x08007c8c   Section        0  sbus.o(i.low_filter_init)
    i.main                                   0x08007cc8   Section        0  main.o(i.main)
    i.malloc                                 0x08007d04   Section        0  malloc.o(i.malloc)
    i.pulse2kmh                              0x08007d70   Section        0  sbus.o(i.pulse2kmh)
    i.pwm_ctrl                               0x08007da0   Section        0  sbus.o(i.pwm_ctrl)
    i.sbus_read_parse                        0x08007e1c   Section        0  sbus.o(i.sbus_read_parse)
    i.sbus_rev_data                          0x08007fd4   Section        0  sbus.o(i.sbus_rev_data)
    i.spd_ctrl                               0x08008020   Section        0  sbus.o(i.spd_ctrl)
    i.test_running                           0x080080f8   Section        0  sbus.o(i.test_running)
    i.usb_decode_func                        0x080082b0   Section        0  sbus.o(i.usb_decode_func)
    i.usb_packsand_func                      0x0800841c   Section        0  sbus.o(i.usb_packsand_func)
    .constdata                               0x0800859c   Section        8  stm32f4xx_hal_dma.o(.constdata)
    flagBitshiftOffset                       0x0800859c   Data           8  stm32f4xx_hal_dma.o(.constdata)
    .constdata                               0x080085a4   Section       24  system_stm32f4xx.o(.constdata)
    .data                                    0x20000000   Section       52  sbus.o(.data)
    pd                                       0x20000000   Data           8  sbus.o(.data)
    inc_state                                0x20000010   Data           1  sbus.o(.data)
    inc_count                                0x20000011   Data           1  sbus.o(.data)
    ch1                                      0x20000012   Data           2  sbus.o(.data)
    ch2                                      0x20000014   Data           2  sbus.o(.data)
    pwm_out                                  0x20000016   Data           2  sbus.o(.data)
    pulse                                    0x20000018   Data           2  sbus.o(.data)
    speed_f                                  0x2000001c   Data           4  sbus.o(.data)
    speed                                    0x20000020   Data           2  sbus.o(.data)
    i                                        0x20000022   Data           2  sbus.o(.data)
    sum                                      0x20000024   Data           2  sbus.o(.data)
    spd_last                                 0x20000028   Data           4  sbus.o(.data)
    spd_curr                                 0x2000002c   Data           4  sbus.o(.data)
    spd_data                                 0x20000030   Data           4  sbus.o(.data)
    .data                                    0x20000034   Section       78  usbd_desc.o(.data)
    .data                                    0x20000084   Section       20  usbd_cdc_if.o(.data)
    .data                                    0x20000098   Section       24  stm32f4xx_it.o(.data)
    enc_now                                  0x200000a0   Data           4  stm32f4xx_it.o(.data)
    enc_last                                 0x200000a4   Data           4  stm32f4xx_it.o(.data)
    enc_err                                  0x200000a8   Data           4  stm32f4xx_it.o(.data)
    enc_err_last                             0x200000ac   Data           4  stm32f4xx_it.o(.data)
    .data                                    0x200000b0   Section        9  stm32f4xx_hal.o(.data)
    .data                                    0x200000bc   Section        4  system_stm32f4xx.o(.data)
    .data                                    0x200000c0   Section        1  usbd_ctlreq.o(.data)
    cfgidx                                   0x200000c0   Data           1  usbd_ctlreq.o(.data)
    .data                                    0x200000c4   Section      271  usbd_cdc.o(.data)
    USBD_CDC_DeviceQualifierDesc             0x200000c4   Data          10  usbd_cdc.o(.data)
    USBD_CDC_CfgHSDesc                       0x20000108   Data          67  usbd_cdc.o(.data)
    USBD_CDC_CfgFSDesc                       0x2000014c   Data          67  usbd_cdc.o(.data)
    USBD_CDC_OtherSpeedCfgDesc               0x20000190   Data          67  usbd_cdc.o(.data)
    .data                                    0x200001d4   Section        4  stdout.o(.data)
    .data                                    0x200001d8   Section        4  mvars.o(.data)
    .data                                    0x200001dc   Section        4  mvars.o(.data)
    .bss                                     0x200001e0   Section     1094  sbus.o(.bss)
    v                                        0x200001e0   Data          24  sbus.o(.bss)
    vPID                                     0x200001f8   Data          68  sbus.o(.bss)
    pack_data                                0x20000618   Data          14  sbus.o(.bss)
    .bss                                     0x20000628   Section      926  main.o(.bss)
    .bss                                     0x200009c8   Section      720  usb_device.o(.bss)
    .bss                                     0x20000c98   Section     1032  usbd_conf.o(.bss)
    .bss                                     0x200010a0   Section      512  usbd_desc.o(.bss)
    .bss                                     0x200012a0   Section     4096  usbd_cdc_if.o(.bss)
    HEAP                                     0x200022a0   Section     2048  startup_stm32f407xx.o(HEAP)
    STACK                                    0x20002aa0   Section     2048  startup_stm32f407xx.o(STACK)

    Global Symbols

    Symbol Name                              Value     Ov Type        Size  Object(Section)

    BuildAttributes$$THM_ISAv4$E$P$D$K$B$S$7EM$VFPi3$EXTD16$VFPS$VFMA$PE$A:L22UL41UL21$X:L11$S22US41US21$IEEE1$IW$USESV6$~STKCKD$USESV7$~SHL$OTIME$ROPI$IEEEJ$EBA8$MICROLIB$REQ8$PRES8$EABIv2 0x00000000   Number         0  anon$$obj.o ABSOLUTE
    __ARM_use_no_argv                        0x00000000   Number         0  main.o ABSOLUTE
    _printf_a                                0x00000000   Number         0  stubs.o ABSOLUTE
    _printf_c                                0x00000000   Number         0  stubs.o ABSOLUTE
    _printf_charcount                        0x00000000   Number         0  stubs.o ABSOLUTE
    _printf_d                                0x00000000   Number         0  stubs.o ABSOLUTE
    _printf_e                                0x00000000   Number         0  stubs.o ABSOLUTE
    _printf_f                                0x00000000   Number         0  stubs.o ABSOLUTE
    _printf_flags                            0x00000000   Number         0  stubs.o ABSOLUTE
    _printf_fp_dec                           0x00000000   Number         0  stubs.o ABSOLUTE
    _printf_fp_hex                           0x00000000   Number         0  stubs.o ABSOLUTE
    _printf_g                                0x00000000   Number         0  stubs.o ABSOLUTE
    _printf_i                                0x00000000   Number         0  stubs.o ABSOLUTE
    _printf_int_dec                          0x00000000   Number         0  stubs.o ABSOLUTE
    _printf_l                                0x00000000   Number         0  stubs.o ABSOLUTE
    _printf_lc                               0x00000000   Number         0  stubs.o ABSOLUTE
    _printf_ll                               0x00000000   Number         0  stubs.o ABSOLUTE
    _printf_lld                              0x00000000   Number         0  stubs.o ABSOLUTE
    _printf_lli                              0x00000000   Number         0  stubs.o ABSOLUTE
    _printf_llo                              0x00000000   Number         0  stubs.o ABSOLUTE
    _printf_llu                              0x00000000   Number         0  stubs.o ABSOLUTE
    _printf_llx                              0x00000000   Number         0  stubs.o ABSOLUTE
    _printf_longlong_dec                     0x00000000   Number         0  stubs.o ABSOLUTE
    _printf_longlong_hex                     0x00000000   Number         0  stubs.o ABSOLUTE
    _printf_longlong_oct                     0x00000000   Number         0  stubs.o ABSOLUTE
    _printf_ls                               0x00000000   Number         0  stubs.o ABSOLUTE
    _printf_mbtowc                           0x00000000   Number         0  stubs.o ABSOLUTE
    _printf_n                                0x00000000   Number         0  stubs.o ABSOLUTE
    _printf_o                                0x00000000   Number         0  stubs.o ABSOLUTE
    _printf_p                                0x00000000   Number         0  stubs.o ABSOLUTE
    _printf_percent                          0x00000000   Number         0  stubs.o ABSOLUTE
    _printf_pre_padding                      0x00000000   Number         0  stubs.o ABSOLUTE
    _printf_return_value                     0x00000000   Number         0  stubs.o ABSOLUTE
    _printf_s                                0x00000000   Number         0  stubs.o ABSOLUTE
    _printf_sizespec                         0x00000000   Number         0  stubs.o ABSOLUTE
    _printf_str                              0x00000000   Number         0  stubs.o ABSOLUTE
    _printf_truncate_signed                  0x00000000   Number         0  stubs.o ABSOLUTE
    _printf_truncate_unsigned                0x00000000   Number         0  stubs.o ABSOLUTE
    _printf_u                                0x00000000   Number         0  stubs.o ABSOLUTE
    _printf_wc                               0x00000000   Number         0  stubs.o ABSOLUTE
    _printf_wctomb                           0x00000000   Number         0  stubs.o ABSOLUTE
    _printf_widthprec                        0x00000000   Number         0  stubs.o ABSOLUTE
    _printf_x                                0x00000000   Number         0  stubs.o ABSOLUTE
    __cpp_initialize__aeabi_                  - Undefined Weak Reference
    __cxa_finalize                            - Undefined Weak Reference
    _clock_init                               - Undefined Weak Reference
    _microlib_exit                            - Undefined Weak Reference
    __Vectors_Size                           0x00000188   Number         0  startup_stm32f407xx.o ABSOLUTE
    __Vectors                                0x08000000   Data           4  startup_stm32f407xx.o(RESET)
    __Vectors_End                            0x08000188   Data           0  startup_stm32f407xx.o(RESET)
    __main                                   0x08000189   Thumb Code     0  entry.o(.ARM.Collect$$$$00000000)
    _main_stk                                0x08000189   Thumb Code     0  entry2.o(.ARM.Collect$$$$00000001)
    _main_scatterload                        0x0800018d   Thumb Code     0  entry5.o(.ARM.Collect$$$$00000004)
    __main_after_scatterload                 0x08000191   Thumb Code     0  entry5.o(.ARM.Collect$$$$00000004)
    _main_clock                              0x08000191   Thumb Code     0  entry7b.o(.ARM.Collect$$$$00000008)
    _main_cpp_init                           0x08000191   Thumb Code     0  entry8b.o(.ARM.Collect$$$$0000000A)
    _main_init                               0x08000191   Thumb Code     0  entry9a.o(.ARM.Collect$$$$0000000B)
    __rt_final_cpp                           0x08000199   Thumb Code     0  entry10a.o(.ARM.Collect$$$$0000000D)
    __rt_final_exit                          0x08000199   Thumb Code     0  entry11a.o(.ARM.Collect$$$$0000000F)
    Reset_Handler                            0x0800019d   Thumb Code     8  startup_stm32f407xx.o(.text)
    ADC_IRQHandler                           0x080001b7   Thumb Code     0  startup_stm32f407xx.o(.text)
    CAN1_RX0_IRQHandler                      0x080001b7   Thumb Code     0  startup_stm32f407xx.o(.text)
    CAN1_RX1_IRQHandler                      0x080001b7   Thumb Code     0  startup_stm32f407xx.o(.text)
    CAN1_SCE_IRQHandler                      0x080001b7   Thumb Code     0  startup_stm32f407xx.o(.text)
    CAN1_TX_IRQHandler                       0x080001b7   Thumb Code     0  startup_stm32f407xx.o(.text)
    CAN2_RX0_IRQHandler                      0x080001b7   Thumb Code     0  startup_stm32f407xx.o(.text)
    CAN2_RX1_IRQHandler                      0x080001b7   Thumb Code     0  startup_stm32f407xx.o(.text)
    CAN2_SCE_IRQHandler                      0x080001b7   Thumb Code     0  startup_stm32f407xx.o(.text)
    CAN2_TX_IRQHandler                       0x080001b7   Thumb Code     0  startup_stm32f407xx.o(.text)
    DCMI_IRQHandler                          0x080001b7   Thumb Code     0  startup_stm32f407xx.o(.text)
    DMA1_Stream0_IRQHandler                  0x080001b7   Thumb Code     0  startup_stm32f407xx.o(.text)
    DMA1_Stream2_IRQHandler                  0x080001b7   Thumb Code     0  startup_stm32f407xx.o(.text)
    DMA1_Stream3_IRQHandler                  0x080001b7   Thumb Code     0  startup_stm32f407xx.o(.text)
    DMA1_Stream4_IRQHandler                  0x080001b7   Thumb Code     0  startup_stm32f407xx.o(.text)
    DMA1_Stream6_IRQHandler                  0x080001b7   Thumb Code     0  startup_stm32f407xx.o(.text)
    DMA1_Stream7_IRQHandler                  0x080001b7   Thumb Code     0  startup_stm32f407xx.o(.text)
    DMA2_Stream0_IRQHandler                  0x080001b7   Thumb Code     0  startup_stm32f407xx.o(.text)
    DMA2_Stream3_IRQHandler                  0x080001b7   Thumb Code     0  startup_stm32f407xx.o(.text)
    DMA2_Stream4_IRQHandler                  0x080001b7   Thumb Code     0  startup_stm32f407xx.o(.text)
    DMA2_Stream5_IRQHandler                  0x080001b7   Thumb Code     0  startup_stm32f407xx.o(.text)
    DMA2_Stream6_IRQHandler                  0x080001b7   Thumb Code     0  startup_stm32f407xx.o(.text)
    DMA2_Stream7_IRQHandler                  0x080001b7   Thumb Code     0  startup_stm32f407xx.o(.text)
    ETH_IRQHandler                           0x080001b7   Thumb Code     0  startup_stm32f407xx.o(.text)
    ETH_WKUP_IRQHandler                      0x080001b7   Thumb Code     0  startup_stm32f407xx.o(.text)
    EXTI0_IRQHandler                         0x080001b7   Thumb Code     0  startup_stm32f407xx.o(.text)
    EXTI15_10_IRQHandler                     0x080001b7   Thumb Code     0  startup_stm32f407xx.o(.text)
    EXTI1_IRQHandler                         0x080001b7   Thumb Code     0  startup_stm32f407xx.o(.text)
    EXTI2_IRQHandler                         0x080001b7   Thumb Code     0  startup_stm32f407xx.o(.text)
    EXTI3_IRQHandler                         0x080001b7   Thumb Code     0  startup_stm32f407xx.o(.text)
    EXTI4_IRQHandler                         0x080001b7   Thumb Code     0  startup_stm32f407xx.o(.text)
    EXTI9_5_IRQHandler                       0x080001b7   Thumb Code     0  startup_stm32f407xx.o(.text)
    FLASH_IRQHandler                         0x080001b7   Thumb Code     0  startup_stm32f407xx.o(.text)
    FMC_IRQHandler                           0x080001b7   Thumb Code     0  startup_stm32f407xx.o(.text)
    FPU_IRQHandler                           0x080001b7   Thumb Code     0  startup_stm32f407xx.o(.text)
    HASH_RNG_IRQHandler                      0x080001b7   Thumb Code     0  startup_stm32f407xx.o(.text)
    I2C1_ER_IRQHandler                       0x080001b7   Thumb Code     0  startup_stm32f407xx.o(.text)
    I2C1_EV_IRQHandler                       0x080001b7   Thumb Code     0  startup_stm32f407xx.o(.text)
    I2C2_ER_IRQHandler                       0x080001b7   Thumb Code     0  startup_stm32f407xx.o(.text)
    I2C2_EV_IRQHandler                       0x080001b7   Thumb Code     0  startup_stm32f407xx.o(.text)
    I2C3_ER_IRQHandler                       0x080001b7   Thumb Code     0  startup_stm32f407xx.o(.text)
    I2C3_EV_IRQHandler                       0x080001b7   Thumb Code     0  startup_stm32f407xx.o(.text)
    OTG_FS_WKUP_IRQHandler                   0x080001b7   Thumb Code     0  startup_stm32f407xx.o(.text)
    OTG_HS_EP1_IN_IRQHandler                 0x080001b7   Thumb Code     0  startup_stm32f407xx.o(.text)
    OTG_HS_EP1_OUT_IRQHandler                0x080001b7   Thumb Code     0  startup_stm32f407xx.o(.text)
    OTG_HS_IRQHandler                        0x080001b7   Thumb Code     0  startup_stm32f407xx.o(.text)
    OTG_HS_WKUP_IRQHandler                   0x080001b7   Thumb Code     0  startup_stm32f407xx.o(.text)
    PVD_IRQHandler                           0x080001b7   Thumb Code     0  startup_stm32f407xx.o(.text)
    RCC_IRQHandler                           0x080001b7   Thumb Code     0  startup_stm32f407xx.o(.text)
    RTC_Alarm_IRQHandler                     0x080001b7   Thumb Code     0  startup_stm32f407xx.o(.text)
    RTC_WKUP_IRQHandler                      0x080001b7   Thumb Code     0  startup_stm32f407xx.o(.text)
    SDIO_IRQHandler                          0x080001b7   Thumb Code     0  startup_stm32f407xx.o(.text)
    SPI1_IRQHandler                          0x080001b7   Thumb Code     0  startup_stm32f407xx.o(.text)
    SPI2_IRQHandler                          0x080001b7   Thumb Code     0  startup_stm32f407xx.o(.text)
    SPI3_IRQHandler                          0x080001b7   Thumb Code     0  startup_stm32f407xx.o(.text)
    TAMP_STAMP_IRQHandler                    0x080001b7   Thumb Code     0  startup_stm32f407xx.o(.text)
    TIM1_BRK_TIM9_IRQHandler                 0x080001b7   Thumb Code     0  startup_stm32f407xx.o(.text)
    TIM1_CC_IRQHandler                       0x080001b7   Thumb Code     0  startup_stm32f407xx.o(.text)
    TIM1_TRG_COM_TIM11_IRQHandler            0x080001b7   Thumb Code     0  startup_stm32f407xx.o(.text)
    TIM1_UP_TIM10_IRQHandler                 0x080001b7   Thumb Code     0  startup_stm32f407xx.o(.text)
    TIM3_IRQHandler                          0x080001b7   Thumb Code     0  startup_stm32f407xx.o(.text)
    TIM5_IRQHandler                          0x080001b7   Thumb Code     0  startup_stm32f407xx.o(.text)
    TIM6_DAC_IRQHandler                      0x080001b7   Thumb Code     0  startup_stm32f407xx.o(.text)
    TIM7_IRQHandler                          0x080001b7   Thumb Code     0  startup_stm32f407xx.o(.text)
    TIM8_BRK_TIM12_IRQHandler                0x080001b7   Thumb Code     0  startup_stm32f407xx.o(.text)
    TIM8_CC_IRQHandler                       0x080001b7   Thumb Code     0  startup_stm32f407xx.o(.text)
    TIM8_TRG_COM_TIM14_IRQHandler            0x080001b7   Thumb Code     0  startup_stm32f407xx.o(.text)
    TIM8_UP_TIM13_IRQHandler                 0x080001b7   Thumb Code     0  startup_stm32f407xx.o(.text)
    UART4_IRQHandler                         0x080001b7   Thumb Code     0  startup_stm32f407xx.o(.text)
    UART5_IRQHandler                         0x080001b7   Thumb Code     0  startup_stm32f407xx.o(.text)
    WWDG_IRQHandler                          0x080001b7   Thumb Code     0  startup_stm32f407xx.o(.text)
    __aeabi_uldivmod                         0x080001c1   Thumb Code    98  uldiv.o(.text)
    __aeabi_memcpy                           0x08000223   Thumb Code    36  memcpya.o(.text)
    __aeabi_memcpy4                          0x08000223   Thumb Code     0  memcpya.o(.text)
    __aeabi_memcpy8                          0x08000223   Thumb Code     0  memcpya.o(.text)
    __aeabi_memset                           0x08000247   Thumb Code    14  memseta.o(.text)
    __aeabi_memset4                          0x08000247   Thumb Code     0  memseta.o(.text)
    __aeabi_memset8                          0x08000247   Thumb Code     0  memseta.o(.text)
    __aeabi_memclr                           0x08000255   Thumb Code     4  memseta.o(.text)
    __aeabi_memclr4                          0x08000255   Thumb Code     0  memseta.o(.text)
    __aeabi_memclr8                          0x08000255   Thumb Code     0  memseta.o(.text)
    _memset$wrapper                          0x08000259   Thumb Code    18  memseta.o(.text)
    strlen                                   0x0800026b   Thumb Code    14  strlen.o(.text)
    __aeabi_dadd                             0x08000279   Thumb Code   322  dadd.o(.text)
    __aeabi_dsub                             0x080003bb   Thumb Code     6  dadd.o(.text)
    __aeabi_drsub                            0x080003c1   Thumb Code     6  dadd.o(.text)
    __aeabi_dmul                             0x080003c7   Thumb Code   228  dmul.o(.text)
    __aeabi_ddiv                             0x080004ab   Thumb Code   222  ddiv.o(.text)
    __aeabi_i2d                              0x08000589   Thumb Code    34  dflti.o(.text)
    __aeabi_d2iz                             0x080005ab   Thumb Code    62  dfixi.o(.text)
    __aeabi_f2d                              0x080005e9   Thumb Code    38  f2d.o(.text)
    __aeabi_cdcmpeq                          0x08000611   Thumb Code     0  cdcmple.o(.text)
    __aeabi_cdcmple                          0x08000611   Thumb Code    48  cdcmple.o(.text)
    __aeabi_cdrcmple                         0x08000641   Thumb Code    48  cdrcmple.o(.text)
    __aeabi_d2f                              0x08000671   Thumb Code    56  d2f.o(.text)
    __aeabi_uidiv                            0x080006a9   Thumb Code     0  uidiv.o(.text)
    __aeabi_uidivmod                         0x080006a9   Thumb Code    44  uidiv.o(.text)
    __aeabi_llsl                             0x080006d5   Thumb Code    30  llshl.o(.text)
    _ll_shift_l                              0x080006d5   Thumb Code     0  llshl.o(.text)
    __aeabi_llsr                             0x080006f3   Thumb Code    32  llushr.o(.text)
    _ll_ushift_r                             0x080006f3   Thumb Code     0  llushr.o(.text)
    __aeabi_lasr                             0x08000713   Thumb Code    36  llsshr.o(.text)
    _ll_sshift_r                             0x08000713   Thumb Code     0  llsshr.o(.text)
    __I$use$fp                               0x08000737   Thumb Code     0  iusefp.o(.text)
    _float_round                             0x08000737   Thumb Code    18  fepilogue.o(.text)
    _float_epilogue                          0x08000749   Thumb Code    92  fepilogue.o(.text)
    _double_round                            0x080007a5   Thumb Code    30  depilogue.o(.text)
    _double_epilogue                         0x080007c3   Thumb Code   156  depilogue.o(.text)
    __aeabi_d2ulz                            0x0800085f   Thumb Code    48  dfixul.o(.text)
    __scatterload                            0x08000891   Thumb Code    28  init.o(.text)
    __scatterload_rt2                        0x08000891   Thumb Code     0  init.o(.text)
    __decompress                             0x080008b5   Thumb Code     0  __dczerorl2.o(.text)
    __decompress1                            0x080008b5   Thumb Code    86  __dczerorl2.o(.text)
    BusFault_Handler                         0x0800090b   Thumb Code     4  stm32f4xx_it.o(i.BusFault_Handler)
    CDC_Transmit_FS                          0x080009b5   Thumb Code    50  usbd_cdc_if.o(i.CDC_Transmit_FS)
    DMA1_Stream1_IRQHandler                  0x080009ed   Thumb Code    10  stm32f4xx_it.o(i.DMA1_Stream1_IRQHandler)
    DMA1_Stream5_IRQHandler                  0x080009fd   Thumb Code    10  stm32f4xx_it.o(i.DMA1_Stream5_IRQHandler)
    DMA2_Stream1_IRQHandler                  0x08000a0d   Thumb Code    10  stm32f4xx_it.o(i.DMA2_Stream1_IRQHandler)
    DMA2_Stream2_IRQHandler                  0x08000a1d   Thumb Code    10  stm32f4xx_it.o(i.DMA2_Stream2_IRQHandler)
    DebugMon_Handler                         0x08000b37   Thumb Code     2  stm32f4xx_it.o(i.DebugMon_Handler)
    Error_Handler                            0x08000b39   Thumb Code     2  main.o(i.Error_Handler)
    HAL_DMA_Abort                            0x08000b71   Thumb Code   170  stm32f4xx_hal_dma.o(i.HAL_DMA_Abort)
    HAL_DMA_Abort_IT                         0x08000c1b   Thumb Code    40  stm32f4xx_hal_dma.o(i.HAL_DMA_Abort_IT)
    HAL_DMA_IRQHandler                       0x08000c45   Thumb Code   570  stm32f4xx_hal_dma.o(i.HAL_DMA_IRQHandler)
    HAL_DMA_Init                             0x08000e85   Thumb Code   232  stm32f4xx_hal_dma.o(i.HAL_DMA_Init)
    HAL_DMA_Start_IT                         0x08000f71   Thumb Code   146  stm32f4xx_hal_dma.o(i.HAL_DMA_Start_IT)
    HAL_Delay                                0x08001005   Thumb Code    36  stm32f4xx_hal.o(i.HAL_Delay)
    HAL_GPIO_Init                            0x0800102d   Thumb Code   466  stm32f4xx_hal_gpio.o(i.HAL_GPIO_Init)
    HAL_GetTick                              0x0800122d   Thumb Code     6  stm32f4xx_hal.o(i.HAL_GetTick)
    HAL_IncTick                              0x08001239   Thumb Code    16  stm32f4xx_hal.o(i.HAL_IncTick)
    HAL_Init                                 0x08001251   Thumb Code    54  stm32f4xx_hal.o(i.HAL_Init)
    HAL_InitTick                             0x0800128d   Thumb Code    64  stm32f4xx_hal.o(i.HAL_InitTick)
    HAL_MspInit                              0x080012d9   Thumb Code    68  stm32f4xx_hal_msp.o(i.HAL_MspInit)
    HAL_NVIC_EnableIRQ                       0x08001321   Thumb Code    32  stm32f4xx_hal_cortex.o(i.HAL_NVIC_EnableIRQ)
    HAL_NVIC_SetPriority                     0x08001341   Thumb Code   124  stm32f4xx_hal_cortex.o(i.HAL_NVIC_SetPriority)
    HAL_NVIC_SetPriorityGrouping             0x080013bd   Thumb Code    32  stm32f4xx_hal_cortex.o(i.HAL_NVIC_SetPriorityGrouping)
    HAL_PCDEx_LPM_Callback                   0x080013e5   Thumb Code     2  stm32f4xx_hal_pcd_ex.o(i.HAL_PCDEx_LPM_Callback)
    HAL_PCDEx_SetRxFiFo                      0x080013e7   Thumb Code    10  stm32f4xx_hal_pcd_ex.o(i.HAL_PCDEx_SetRxFiFo)
    HAL_PCDEx_SetTxFiFo                      0x080013f1   Thumb Code    78  stm32f4xx_hal_pcd_ex.o(i.HAL_PCDEx_SetTxFiFo)
    HAL_PCD_ConnectCallback                  0x0800143f   Thumb Code    14  usbd_conf.o(i.HAL_PCD_ConnectCallback)
    HAL_PCD_DataInStageCallback              0x0800144d   Thumb Code    32  usbd_conf.o(i.HAL_PCD_DataInStageCallback)
    HAL_PCD_DataOutStageCallback             0x0800146d   Thumb Code    32  usbd_conf.o(i.HAL_PCD_DataOutStageCallback)
    HAL_PCD_DisconnectCallback               0x0800148d   Thumb Code    14  usbd_conf.o(i.HAL_PCD_DisconnectCallback)
    HAL_PCD_EP_Close                         0x0800149b   Thumb Code   106  stm32f4xx_hal_pcd.o(i.HAL_PCD_EP_Close)
    HAL_PCD_EP_ClrStall                      0x08001505   Thumb Code   124  stm32f4xx_hal_pcd.o(i.HAL_PCD_EP_ClrStall)
    HAL_PCD_EP_GetRxCount                    0x08001581   Thumb Code    22  stm32f4xx_hal_pcd.o(i.HAL_PCD_EP_GetRxCount)
    HAL_PCD_EP_Open                          0x08001597   Thumb Code   140  stm32f4xx_hal_pcd.o(i.HAL_PCD_EP_Open)
    HAL_PCD_EP_Receive                       0x08001623   Thumb Code    88  stm32f4xx_hal_pcd.o(i.HAL_PCD_EP_Receive)
    HAL_PCD_EP_SetStall                      0x0800167b   Thumb Code   138  stm32f4xx_hal_pcd.o(i.HAL_PCD_EP_SetStall)
    HAL_PCD_EP_Transmit                      0x08001705   Thumb Code    90  stm32f4xx_hal_pcd.o(i.HAL_PCD_EP_Transmit)
    HAL_PCD_IRQHandler                       0x0800175f   Thumb Code  1372  stm32f4xx_hal_pcd.o(i.HAL_PCD_IRQHandler)
    HAL_PCD_ISOINIncompleteCallback          0x08001cbb   Thumb Code    18  usbd_conf.o(i.HAL_PCD_ISOINIncompleteCallback)
    HAL_PCD_ISOOUTIncompleteCallback         0x08001ccd   Thumb Code    18  usbd_conf.o(i.HAL_PCD_ISOOUTIncompleteCallback)
    HAL_PCD_Init                             0x08001cdf   Thumb Code   358  stm32f4xx_hal_pcd.o(i.HAL_PCD_Init)
    HAL_PCD_MspInit                          0x08001e45   Thumb Code   160  usbd_conf.o(i.HAL_PCD_MspInit)
    HAL_PCD_ResetCallback                    0x08001eed   Thumb Code    48  usbd_conf.o(i.HAL_PCD_ResetCallback)
    HAL_PCD_ResumeCallback                   0x08001f1d   Thumb Code    14  usbd_conf.o(i.HAL_PCD_ResumeCallback)
    HAL_PCD_SOFCallback                      0x08001f2b   Thumb Code    14  usbd_conf.o(i.HAL_PCD_SOFCallback)
    HAL_PCD_SetAddress                       0x08001f39   Thumb Code    54  stm32f4xx_hal_pcd.o(i.HAL_PCD_SetAddress)
    HAL_PCD_SetupStageCallback               0x08001f6f   Thumb Code    18  usbd_conf.o(i.HAL_PCD_SetupStageCallback)
    HAL_PCD_Start                            0x08001f81   Thumb Code    74  stm32f4xx_hal_pcd.o(i.HAL_PCD_Start)
    HAL_PCD_SuspendCallback                  0x08001fcd   Thumb Code    46  usbd_conf.o(i.HAL_PCD_SuspendCallback)
    HAL_RCC_ClockConfig                      0x08002001   Thumb Code   368  stm32f4xx_hal_rcc.o(i.HAL_RCC_ClockConfig)
    HAL_RCC_GetHCLKFreq                      0x08002185   Thumb Code     6  stm32f4xx_hal_rcc.o(i.HAL_RCC_GetHCLKFreq)
    HAL_RCC_GetPCLK1Freq                     0x08002191   Thumb Code    22  stm32f4xx_hal_rcc.o(i.HAL_RCC_GetPCLK1Freq)
    HAL_RCC_GetPCLK2Freq                     0x080021b1   Thumb Code    22  stm32f4xx_hal_rcc.o(i.HAL_RCC_GetPCLK2Freq)
    HAL_RCC_GetSysClockFreq                  0x080021d1   Thumb Code   162  stm32f4xx_hal_rcc.o(i.HAL_RCC_GetSysClockFreq)
    HAL_RCC_OscConfig                        0x08002281   Thumb Code  1152  stm32f4xx_hal_rcc.o(i.HAL_RCC_OscConfig)
    HAL_SYSTICK_Config                       0x08002709   Thumb Code    52  stm32f4xx_hal_cortex.o(i.HAL_SYSTICK_Config)
    HAL_TIMEx_BreakCallback                  0x0800273d   Thumb Code     2  stm32f4xx_hal_tim_ex.o(i.HAL_TIMEx_BreakCallback)
    HAL_TIMEx_CommutCallback                 0x0800273f   Thumb Code     2  stm32f4xx_hal_tim_ex.o(i.HAL_TIMEx_CommutCallback)
    HAL_TIMEx_MasterConfigSynchronization    0x08002741   Thumb Code   150  stm32f4xx_hal_tim_ex.o(i.HAL_TIMEx_MasterConfigSynchronization)
    HAL_TIM_Base_Init                        0x080027f5   Thumb Code    52  stm32f4xx_hal_tim.o(i.HAL_TIM_Base_Init)
    HAL_TIM_Base_MspInit                     0x08002829   Thumb Code   160  stm32f4xx_hal_msp.o(i.HAL_TIM_Base_MspInit)
    HAL_TIM_Base_Start_IT                    0x080028d5   Thumb Code    42  stm32f4xx_hal_tim.o(i.HAL_TIM_Base_Start_IT)
    HAL_TIM_ConfigClockSource                0x080028ff   Thumb Code   264  stm32f4xx_hal_tim.o(i.HAL_TIM_ConfigClockSource)
    HAL_TIM_Encoder_Init                     0x08002a07   Thumb Code   174  stm32f4xx_hal_tim.o(i.HAL_TIM_Encoder_Init)
    HAL_TIM_Encoder_MspInit                  0x08002ab5   Thumb Code   122  stm32f4xx_hal_msp.o(i.HAL_TIM_Encoder_MspInit)
    HAL_TIM_Encoder_Start                    0x08002b3d   Thumb Code    78  stm32f4xx_hal_tim.o(i.HAL_TIM_Encoder_Start)
    HAL_TIM_IC_CaptureCallback               0x08002b8b   Thumb Code     2  stm32f4xx_hal_tim.o(i.HAL_TIM_IC_CaptureCallback)
    HAL_TIM_IRQHandler                       0x08002b8d   Thumb Code   406  stm32f4xx_hal_tim.o(i.HAL_TIM_IRQHandler)
    HAL_TIM_MspPostInit                      0x08002d25   Thumb Code    84  stm32f4xx_hal_msp.o(i.HAL_TIM_MspPostInit)
    HAL_TIM_OC_DelayElapsedCallback          0x08002d85   Thumb Code     2  stm32f4xx_hal_tim.o(i.HAL_TIM_OC_DelayElapsedCallback)
    HAL_TIM_PWM_ConfigChannel                0x08002d87   Thumb Code   264  stm32f4xx_hal_tim.o(i.HAL_TIM_PWM_ConfigChannel)
    HAL_TIM_PWM_Init                         0x08002e8f   Thumb Code    52  stm32f4xx_hal_tim.o(i.HAL_TIM_PWM_Init)
    HAL_TIM_PWM_MspInit                      0x08002ec3   Thumb Code     2  stm32f4xx_hal_tim.o(i.HAL_TIM_PWM_MspInit)
    HAL_TIM_PWM_PulseFinishedCallback        0x08002ec5   Thumb Code     2  stm32f4xx_hal_tim.o(i.HAL_TIM_PWM_PulseFinishedCallback)
    HAL_TIM_PWM_Start                        0x08002ec9   Thumb Code    80  stm32f4xx_hal_tim.o(i.HAL_TIM_PWM_Start)
    HAL_TIM_PeriodElapsedCallback            0x08002f21   Thumb Code     2  stm32f4xx_hal_tim.o(i.HAL_TIM_PeriodElapsedCallback)
    HAL_TIM_TriggerCallback                  0x08002f23   Thumb Code     2  stm32f4xx_hal_tim.o(i.HAL_TIM_TriggerCallback)
    HAL_UART_DMAStop                         0x08002f25   Thumb Code   102  stm32f4xx_hal_uart.o(i.HAL_UART_DMAStop)
    HAL_UART_ErrorCallback                   0x08002f8b   Thumb Code     2  stm32f4xx_hal_uart.o(i.HAL_UART_ErrorCallback)
    HAL_UART_IRQHandler                      0x08002f8d   Thumb Code   336  stm32f4xx_hal_uart.o(i.HAL_UART_IRQHandler)
    HAL_UART_Init                            0x080030e1   Thumb Code   114  stm32f4xx_hal_uart.o(i.HAL_UART_Init)
    HAL_UART_MspInit                         0x08003155   Thumb Code   774  stm32f4xx_hal_msp.o(i.HAL_UART_MspInit)
    HAL_UART_Receive_DMA                     0x08003495   Thumb Code   182  stm32f4xx_hal_uart.o(i.HAL_UART_Receive_DMA)
    HAL_UART_RxCpltCallback                  0x08003559   Thumb Code     2  stm32f4xx_hal_uart.o(i.HAL_UART_RxCpltCallback)
    HAL_UART_RxHalfCpltCallback              0x0800355b   Thumb Code     2  stm32f4xx_hal_uart.o(i.HAL_UART_RxHalfCpltCallback)
    HAL_UART_Transmit                        0x0800355d   Thumb Code   216  stm32f4xx_hal_uart.o(i.HAL_UART_Transmit)
    HAL_UART_TxCpltCallback                  0x08003635   Thumb Code     2  stm32f4xx_hal_uart.o(i.HAL_UART_TxCpltCallback)
    HardFault_Handler                        0x08003637   Thumb Code     4  stm32f4xx_it.o(i.HardFault_Handler)
    MX_USB_DEVICE_Init                       0x08003b3d   Thumb Code    60  usb_device.o(i.MX_USB_DEVICE_Init)
    MemManage_Handler                        0x08003b89   Thumb Code     4  stm32f4xx_it.o(i.MemManage_Handler)
    NMI_Handler                              0x08003b8d   Thumb Code     2  stm32f4xx_it.o(i.NMI_Handler)
    OTG_FS_IRQHandler                        0x08003b91   Thumb Code    10  stm32f4xx_it.o(i.OTG_FS_IRQHandler)
    PIDRegulator                             0x08003e39   Thumb Code   590  sbus.o(i.PIDRegulator)
    PendSV_Handler                           0x080040b5   Thumb Code     2  stm32f4xx_it.o(i.PendSV_Handler)
    SVC_Handler                              0x080040b7   Thumb Code     2  stm32f4xx_it.o(i.SVC_Handler)
    SysTick_Handler                          0x080040cb   Thumb Code     8  stm32f4xx_it.o(i.SysTick_Handler)
    SystemClock_Config                       0x080040d5   Thumb Code   172  main.o(i.SystemClock_Config)
    SystemInit                               0x08004189   Thumb Code    24  system_stm32f4xx.o(i.SystemInit)
    TIM2_IRQHandler                          0x080041a5   Thumb Code    14  stm32f4xx_it.o(i.TIM2_IRQHandler)
    TIM4_IRQHandler                          0x080041b9   Thumb Code   140  stm32f4xx_it.o(i.TIM4_IRQHandler)
    TIM_Base_SetConfig                       0x08004269   Thumb Code   170  stm32f4xx_hal_tim.o(i.TIM_Base_SetConfig)
    TIM_CCxChannelCmd                        0x08004341   Thumb Code    34  stm32f4xx_hal_tim.o(i.TIM_CCxChannelCmd)
    TIM_ETR_SetConfig                        0x08004363   Thumb Code    22  stm32f4xx_hal_tim.o(i.TIM_ETR_SetConfig)
    TIM_OC2_SetConfig                        0x080043fd   Thumb Code   114  stm32f4xx_hal_tim.o(i.TIM_OC2_SetConfig)
    USART1_IRQHandler                        0x08004c01   Thumb Code   100  stm32f4xx_it.o(i.USART1_IRQHandler)
    USART2_IRQHandler                        0x08004c79   Thumb Code    98  stm32f4xx_it.o(i.USART2_IRQHandler)
    USART3_IRQHandler                        0x08004cf1   Thumb Code    98  stm32f4xx_it.o(i.USART3_IRQHandler)
    USART6_IRQHandler                        0x08004d69   Thumb Code   100  stm32f4xx_it.o(i.USART6_IRQHandler)
    USBD_CDC_GetDeviceQualifierDescriptor    0x08004f29   Thumb Code    10  usbd_cdc.o(i.USBD_CDC_GetDeviceQualifierDescriptor)
    USBD_CDC_ReceivePacket                   0x08005029   Thumb Code    58  usbd_cdc.o(i.USBD_CDC_ReceivePacket)
    USBD_CDC_RegisterInterface               0x08005063   Thumb Code    16  usbd_cdc.o(i.USBD_CDC_RegisterInterface)
    USBD_CDC_SetRxBuffer                     0x08005073   Thumb Code    14  usbd_cdc.o(i.USBD_CDC_SetRxBuffer)
    USBD_CDC_SetTxBuffer                     0x08005081   Thumb Code    20  usbd_cdc.o(i.USBD_CDC_SetTxBuffer)
    USBD_CDC_TransmitPacket                  0x0800518f   Thumb Code    60  usbd_cdc.o(i.USBD_CDC_TransmitPacket)
    USBD_ClrClassConfig                      0x080051cb   Thumb Code    28  usbd_core.o(i.USBD_ClrClassConfig)
    USBD_CtlContinueRx                       0x08005225   Thumb Code    24  usbd_ioreq.o(i.USBD_CtlContinueRx)
    USBD_CtlContinueSendData                 0x0800523d   Thumb Code    24  usbd_ioreq.o(i.USBD_CtlContinueSendData)
    USBD_CtlError                            0x08005255   Thumb Code    24  usbd_ctlreq.o(i.USBD_CtlError)
    USBD_CtlPrepareRx                        0x0800526d   Thumb Code    40  usbd_ioreq.o(i.USBD_CtlPrepareRx)
    USBD_CtlReceiveStatus                    0x08005295   Thumb Code    26  usbd_ioreq.o(i.USBD_CtlReceiveStatus)
    USBD_CtlSendData                         0x080052af   Thumb Code    34  usbd_ioreq.o(i.USBD_CtlSendData)
    USBD_CtlSendStatus                       0x080052d1   Thumb Code    26  usbd_ioreq.o(i.USBD_CtlSendStatus)
    USBD_FS_ConfigStrDescriptor              0x080052ed   Thumb Code    34  usbd_desc.o(i.USBD_FS_ConfigStrDescriptor)
    USBD_FS_DeviceDescriptor                 0x08005321   Thumb Code    10  usbd_desc.o(i.USBD_FS_DeviceDescriptor)
    USBD_FS_InterfaceStrDescriptor           0x08005331   Thumb Code    34  usbd_desc.o(i.USBD_FS_InterfaceStrDescriptor)
    USBD_FS_LangIDStrDescriptor              0x08005369   Thumb Code    10  usbd_desc.o(i.USBD_FS_LangIDStrDescriptor)
    USBD_FS_ManufacturerStrDescriptor        0x08005379   Thumb Code    20  usbd_desc.o(i.USBD_FS_ManufacturerStrDescriptor)
    USBD_FS_ProductStrDescriptor             0x080053a5   Thumb Code    34  usbd_desc.o(i.USBD_FS_ProductStrDescriptor)
    USBD_FS_SerialStrDescriptor              0x080053e5   Thumb Code    18  usbd_desc.o(i.USBD_FS_SerialStrDescriptor)
    USBD_GetString                           0x080056bf   Thumb Code    84  usbd_ctlreq.o(i.USBD_GetString)
    USBD_Get_USB_Status                      0x08005713   Thumb Code    44  usbd_conf.o(i.USBD_Get_USB_Status)
    USBD_Init                                0x0800573f   Thumb Code    68  usbd_core.o(i.USBD_Init)
    USBD_LL_ClearStallEP                     0x08005783   Thumb Code    38  usbd_conf.o(i.USBD_LL_ClearStallEP)
    USBD_LL_CloseEP                          0x080057a9   Thumb Code    38  usbd_conf.o(i.USBD_LL_CloseEP)
    USBD_LL_DataInStage                      0x080057cf   Thumb Code   230  usbd_core.o(i.USBD_LL_DataInStage)
    USBD_LL_DataOutStage                     0x080058b5   Thumb Code   146  usbd_core.o(i.USBD_LL_DataOutStage)
    USBD_LL_DevConnected                     0x08005947   Thumb Code     6  usbd_core.o(i.USBD_LL_DevConnected)
    USBD_LL_DevDisconnected                  0x0800594d   Thumb Code    32  usbd_core.o(i.USBD_LL_DevDisconnected)
    USBD_LL_GetRxDataSize                    0x0800596d   Thumb Code    18  usbd_conf.o(i.USBD_LL_GetRxDataSize)
    USBD_LL_Init                             0x08005981   Thumb Code   100  usbd_conf.o(i.USBD_LL_Init)
    USBD_LL_IsStallEP                        0x080059e9   Thumb Code    56  usbd_conf.o(i.USBD_LL_IsStallEP)
    USBD_LL_IsoINIncomplete                  0x08005a21   Thumb Code     6  usbd_core.o(i.USBD_LL_IsoINIncomplete)
    USBD_LL_IsoOUTIncomplete                 0x08005a27   Thumb Code     6  usbd_core.o(i.USBD_LL_IsoOUTIncomplete)
    USBD_LL_OpenEP                           0x08005a2d   Thumb Code    48  usbd_conf.o(i.USBD_LL_OpenEP)
    USBD_LL_PrepareReceive                   0x08005a5d   Thumb Code    48  usbd_conf.o(i.USBD_LL_PrepareReceive)
    USBD_LL_Reset                            0x08005a8d   Thumb Code    90  usbd_core.o(i.USBD_LL_Reset)
    USBD_LL_Resume                           0x08005ae7   Thumb Code    22  usbd_core.o(i.USBD_LL_Resume)
    USBD_LL_SOF                              0x08005afd   Thumb Code    34  usbd_core.o(i.USBD_LL_SOF)
    USBD_LL_SetSpeed                         0x08005b1f   Thumb Code     8  usbd_core.o(i.USBD_LL_SetSpeed)
    USBD_LL_SetUSBAddress                    0x08005b27   Thumb Code    38  usbd_conf.o(i.USBD_LL_SetUSBAddress)
    USBD_LL_SetupStage                       0x08005b4d   Thumb Code   118  usbd_core.o(i.USBD_LL_SetupStage)
    USBD_LL_StallEP                          0x08005bc3   Thumb Code    38  usbd_conf.o(i.USBD_LL_StallEP)
    USBD_LL_Start                            0x08005be9   Thumb Code    30  usbd_conf.o(i.USBD_LL_Start)
    USBD_LL_Suspend                          0x08005c07   Thumb Code    20  usbd_core.o(i.USBD_LL_Suspend)
    USBD_LL_Transmit                         0x08005c1b   Thumb Code    48  usbd_conf.o(i.USBD_LL_Transmit)
    USBD_ParseSetupRequest                   0x08005c4b   Thumb Code    54  usbd_ctlreq.o(i.USBD_ParseSetupRequest)
    USBD_RegisterClass                       0x08005c81   Thumb Code    38  usbd_core.o(i.USBD_RegisterClass)
    USBD_RunTestMode                         0x08005ca7   Thumb Code     6  usbd_core.o(i.USBD_RunTestMode)
    USBD_SetClassConfig                      0x08005d07   Thumb Code    32  usbd_core.o(i.USBD_SetClassConfig)
    USBD_Start                               0x08005e3d   Thumb Code    12  usbd_core.o(i.USBD_Start)
    USBD_StdDevReq                           0x08005e49   Thumb Code   166  usbd_ctlreq.o(i.USBD_StdDevReq)
    USBD_StdEPReq                            0x08005eef   Thumb Code   554  usbd_ctlreq.o(i.USBD_StdEPReq)
    USBD_StdItfReq                           0x08006119   Thumb Code   126  usbd_ctlreq.o(i.USBD_StdItfReq)
    USB_ActivateEndpoint                     0x08006199   Thumb Code   202  stm32f4xx_ll_usb.o(i.USB_ActivateEndpoint)
    USB_ActivateSetup                        0x08006269   Thumb Code    40  stm32f4xx_ll_usb.o(i.USB_ActivateSetup)
    USB_CoreInit                             0x08006291   Thumb Code   128  stm32f4xx_ll_usb.o(i.USB_CoreInit)
    USB_DeactivateEndpoint                   0x08006361   Thumb Code   318  stm32f4xx_ll_usb.o(i.USB_DeactivateEndpoint)
    USB_DevConnect                           0x080064ad   Thumb Code    32  stm32f4xx_ll_usb.o(i.USB_DevConnect)
    USB_DevDisconnect                        0x080064cd   Thumb Code    32  stm32f4xx_ll_usb.o(i.USB_DevDisconnect)
    USB_DevInit                              0x080064ed   Thumb Code   472  stm32f4xx_ll_usb.o(i.USB_DevInit)
    USB_DisableGlobalInt                     0x080066cd   Thumb Code    14  stm32f4xx_ll_usb.o(i.USB_DisableGlobalInt)
    USB_EP0StartXfer                         0x080066dd   Thumb Code   468  stm32f4xx_ll_usb.o(i.USB_EP0StartXfer)
    USB_EP0_OutStart                         0x080068b5   Thumb Code   106  stm32f4xx_ll_usb.o(i.USB_EP0_OutStart)
    USB_EPClearStall                         0x08006925   Thumb Code   142  stm32f4xx_ll_usb.o(i.USB_EPClearStall)
    USB_EPSetStall                           0x080069b3   Thumb Code   154  stm32f4xx_ll_usb.o(i.USB_EPSetStall)
    USB_EPStartXfer                          0x08006a4d   Thumb Code   832  stm32f4xx_ll_usb.o(i.USB_EPStartXfer)
    USB_EnableGlobalInt                      0x08006d91   Thumb Code    14  stm32f4xx_ll_usb.o(i.USB_EnableGlobalInt)
    USB_FlushRxFifo                          0x08006da1   Thumb Code    38  stm32f4xx_ll_usb.o(i.USB_FlushRxFifo)
    USB_FlushTxFifo                          0x08006dcd   Thumb Code    44  stm32f4xx_ll_usb.o(i.USB_FlushTxFifo)
    USB_GetDevSpeed                          0x08006dfd   Thumb Code    38  stm32f4xx_ll_usb.o(i.USB_GetDevSpeed)
    USB_GetMode                              0x08006e23   Thumb Code    10  stm32f4xx_ll_usb.o(i.USB_GetMode)
    USB_ReadDevAllInEpInterrupt              0x08006e2d   Thumb Code    20  stm32f4xx_ll_usb.o(i.USB_ReadDevAllInEpInterrupt)
    USB_ReadDevAllOutEpInterrupt             0x08006e41   Thumb Code    20  stm32f4xx_ll_usb.o(i.USB_ReadDevAllOutEpInterrupt)
    USB_ReadDevInEPInterrupt                 0x08006e55   Thumb Code    50  stm32f4xx_ll_usb.o(i.USB_ReadDevInEPInterrupt)
    USB_ReadDevOutEPInterrupt                0x08006e87   Thumb Code    26  stm32f4xx_ll_usb.o(i.USB_ReadDevOutEPInterrupt)
    USB_ReadInterrupts                       0x08006ea1   Thumb Code    10  stm32f4xx_ll_usb.o(i.USB_ReadInterrupts)
    USB_ReadPacket                           0x08006eab   Thumb Code    34  stm32f4xx_ll_usb.o(i.USB_ReadPacket)
    USB_SetCurrentMode                       0x08006ecd   Thumb Code    54  stm32f4xx_ll_usb.o(i.USB_SetCurrentMode)
    USB_SetDevAddress                        0x08006f03   Thumb Code    42  stm32f4xx_ll_usb.o(i.USB_SetDevAddress)
    USB_SetDevSpeed                          0x08006f2d   Thumb Code    18  stm32f4xx_ll_usb.o(i.USB_SetDevSpeed)
    USB_SetTurnaroundTime                    0x08006f41   Thumb Code   192  stm32f4xx_ll_usb.o(i.USB_SetTurnaroundTime)
    USB_WritePacket                          0x08007029   Thumb Code    60  stm32f4xx_ll_usb.o(i.USB_WritePacket)
    UsageFault_Handler                       0x08007065   Thumb Code     4  stm32f4xx_it.o(i.UsageFault_Handler)
    VariableIntegralCoefficient              0x08007069   Thumb Code   266  sbus.o(i.VariableIntegralCoefficient)
    __0printf                                0x08007179   Thumb Code    22  printfa.o(i.__0printf)
    __1printf                                0x08007179   Thumb Code     0  printfa.o(i.__0printf)
    __2printf                                0x08007179   Thumb Code     0  printfa.o(i.__0printf)
    __c89printf                              0x08007179   Thumb Code     0  printfa.o(i.__0printf)
    printf                                   0x08007179   Thumb Code     0  printfa.o(i.__0printf)
    __0sprintf                               0x08007199   Thumb Code    34  printfa.o(i.__0sprintf)
    __1sprintf                               0x08007199   Thumb Code     0  printfa.o(i.__0sprintf)
    __2sprintf                               0x08007199   Thumb Code     0  printfa.o(i.__0sprintf)
    __c89sprintf                             0x08007199   Thumb Code     0  printfa.o(i.__0sprintf)
    sprintf                                  0x08007199   Thumb Code     0  printfa.o(i.__0sprintf)
    __hardfp_fabs                            0x080071f9   Thumb Code    20  fabs.o(i.__hardfp_fabs)
    __scatterload_copy                       0x0800720d   Thumb Code    14  handlers.o(i.__scatterload_copy)
    __scatterload_null                       0x0800721b   Thumb Code     2  handlers.o(i.__scatterload_null)
    __scatterload_zeroinit                   0x0800721d   Thumb Code    14  handlers.o(i.__scatterload_zeroinit)
    _init_PID                                0x080073b1   Thumb Code    90  sbus.o(i._init_PID)
    dir_crtl                                 0x08007b6d   Thumb Code    34  sbus.o(i.dir_crtl)
    fputc                                    0x08007b91   Thumb Code    22  main.o(i.fputc)
    free                                     0x08007bad   Thumb Code    76  malloc.o(i.free)
    kmh2pulse                                0x08007bfd   Thumb Code    48  sbus.o(i.kmh2pulse)
    low_filter_calc                          0x08007c35   Thumb Code    78  sbus.o(i.low_filter_calc)
    low_filter_init                          0x08007c8d   Thumb Code    56  sbus.o(i.low_filter_init)
    main                                     0x08007cc9   Thumb Code    60  main.o(i.main)
    malloc                                   0x08007d05   Thumb Code    92  malloc.o(i.malloc)
    pulse2kmh                                0x08007d71   Thumb Code    40  sbus.o(i.pulse2kmh)
    pwm_ctrl                                 0x08007da1   Thumb Code   106  sbus.o(i.pwm_ctrl)
    sbus_read_parse                          0x08007e1d   Thumb Code   438  sbus.o(i.sbus_read_parse)
    sbus_rev_data                            0x08007fd5   Thumb Code    58  sbus.o(i.sbus_rev_data)
    spd_ctrl                                 0x08008021   Thumb Code   184  sbus.o(i.spd_ctrl)
    test_running                             0x080080f9   Thumb Code   386  sbus.o(i.test_running)
    usb_decode_func                          0x080082b1   Thumb Code   286  sbus.o(i.usb_decode_func)
    usb_packsand_func                        0x0800841d   Thumb Code   342  sbus.o(i.usb_packsand_func)
    AHBPrescTable                            0x080085a4   Data          16  system_stm32f4xx.o(.constdata)
    APBPrescTable                            0x080085b4   Data           8  system_stm32f4xx.o(.constdata)
    Region$$Table$$Base                      0x080085bc   Number         0  anon$$obj.o(Region$$Table)
    Region$$Table$$Limit                     0x080085dc   Number         0  anon$$obj.o(Region$$Table)
    sbus_len                                 0x20000008   Data           1  sbus.o(.data)
    sbus_recv_end_flag                       0x20000009   Data           1  sbus.o(.data)
    imu_len                                  0x2000000a   Data           1  sbus.o(.data)
    imu_recv_end_flag                        0x2000000b   Data           1  sbus.o(.data)
    gps_len                                  0x2000000c   Data           1  sbus.o(.data)
    gps_recv_end_flag                        0x2000000d   Data           1  sbus.o(.data)
    debug_len                                0x2000000e   Data           1  sbus.o(.data)
    debug_recv_end_flag                      0x2000000f   Data           1  sbus.o(.data)
    FS_Desc                                  0x20000034   Data          28  usbd_desc.o(.data)
    USBD_FS_DeviceDesc                       0x20000050   Data          18  usbd_desc.o(.data)
    USBD_LangIDDesc                          0x20000064   Data           4  usbd_desc.o(.data)
    USBD_StringSerial                        0x20000068   Data          26  usbd_desc.o(.data)
    USBD_Interface_fops_FS                   0x20000084   Data          20  usbd_cdc_if.o(.data)
    inc_data                                 0x20000098   Data           4  stm32f4xx_it.o(.data)
    acc_data                                 0x2000009c   Data           4  stm32f4xx_it.o(.data)
    uwTick                                   0x200000b0   Data           4  stm32f4xx_hal.o(.data)
    uwTickPrio                               0x200000b4   Data           4  stm32f4xx_hal.o(.data)
    uwTickFreq                               0x200000b8   Data           1  stm32f4xx_hal.o(.data)
    SystemCoreClock                          0x200000bc   Data           4  system_stm32f4xx.o(.data)
    USBD_CDC                                 0x200000d0   Data          56  usbd_cdc.o(.data)
    __stdout                                 0x200001d4   Data           4  stdout.o(.data)
    __microlib_freelist                      0x200001d8   Data           4  mvars.o(.data)
    __microlib_freelist_initialised          0x200001dc   Data           4  mvars.o(.data)
    rev_data                                 0x2000023c   Data          64  sbus.o(.bss)
    charbuf                                  0x2000027c   Data         200  sbus.o(.bss)
    ctrl_data                                0x20000344   Data          32  sbus.o(.bss)
    sbus_data                                0x20000364   Data          50  sbus.o(.bss)
    imu_data                                 0x20000396   Data          42  sbus.o(.bss)
    gps_data                                 0x200003c0   Data         300  sbus.o(.bss)
    debug_data                               0x200004ec   Data         300  sbus.o(.bss)
    htim1                                    0x20000628   Data          64  main.o(.bss)
    htim2                                    0x20000668   Data          64  main.o(.bss)
    htim3                                    0x200006a8   Data          64  main.o(.bss)
    htim4                                    0x200006e8   Data          64  main.o(.bss)
    huart1                                   0x20000728   Data          64  main.o(.bss)
    huart2                                   0x20000768   Data          64  main.o(.bss)
    huart3                                   0x200007a8   Data          64  main.o(.bss)
    huart6                                   0x200007e8   Data          64  main.o(.bss)
    hdma_usart1_rx                           0x20000828   Data          96  main.o(.bss)
    hdma_usart2_rx                           0x20000888   Data          96  main.o(.bss)
    hdma_usart3_rx                           0x200008e8   Data          96  main.o(.bss)
    hdma_usart6_rx                           0x20000948   Data          96  main.o(.bss)
    buf                                      0x200009a8   Data          30  main.o(.bss)
    hUsbDeviceFS                             0x200009c8   Data         720  usb_device.o(.bss)
    hpcd_USB_OTG_FS                          0x20000c98   Data        1032  usbd_conf.o(.bss)
    USBD_StrDesc                             0x200010a0   Data         512  usbd_desc.o(.bss)
    UserRxBufferFS                           0x200012a0   Data        2048  usbd_cdc_if.o(.bss)
    UserTxBufferFS                           0x20001aa0   Data        2048  usbd_cdc_if.o(.bss)
    __heap_base                              0x200022a0   Data           0  startup_stm32f407xx.o(HEAP)
    __heap_limit                             0x20002aa0   Data           0  startup_stm32f407xx.o(HEAP)
    __initial_sp                             0x200032a0   Data           0  startup_stm32f407xx.o(STACK)



==============================================================================

Memory Map of the image

  Image Entry point : 0x08000189

  Load Region LR_IROM1 (Base: 0x08000000, Size: 0x000087bc, Max: 0x00080000, ABSOLUTE, COMPRESSED[0x000086a4])

    Execution Region ER_IROM1 (Exec base: 0x08000000, Load base: 0x08000000, Size: 0x000085dc, Max: 0x00080000, ABSOLUTE)

    Exec Addr    Load Addr    Size         Type   Attr      Idx    E Section Name        Object

    0x08000000   0x08000000   0x00000188   Data   RO            3    RESET               startup_stm32f407xx.o
    0x08000188   0x08000188   0x00000000   Code   RO         4439  * .ARM.Collect$$$$00000000  mc_w.l(entry.o)
    0x08000188   0x08000188   0x00000004   Code   RO         4759    .ARM.Collect$$$$00000001  mc_w.l(entry2.o)
    0x0800018c   0x0800018c   0x00000004   Code   RO         4762    .ARM.Collect$$$$00000004  mc_w.l(entry5.o)
    0x08000190   0x08000190   0x00000000   Code   RO         4764    .ARM.Collect$$$$00000008  mc_w.l(entry7b.o)
    0x08000190   0x08000190   0x00000000   Code   RO         4766    .ARM.Collect$$$$0000000A  mc_w.l(entry8b.o)
    0x08000190   0x08000190   0x00000008   Code   RO         4767    .ARM.Collect$$$$0000000B  mc_w.l(entry9a.o)
    0x08000198   0x08000198   0x00000000   Code   RO         4769    .ARM.Collect$$$$0000000D  mc_w.l(entry10a.o)
    0x08000198   0x08000198   0x00000000   Code   RO         4771    .ARM.Collect$$$$0000000F  mc_w.l(entry11a.o)
    0x08000198   0x08000198   0x00000004   Code   RO         4760    .ARM.Collect$$$$00002712  mc_w.l(entry2.o)
    0x0800019c   0x0800019c   0x00000024   Code   RO            4    .text               startup_stm32f407xx.o
    0x080001c0   0x080001c0   0x00000062   Code   RO         4442    .text               mc_w.l(uldiv.o)
    0x08000222   0x08000222   0x00000024   Code   RO         4444    .text               mc_w.l(memcpya.o)
    0x08000246   0x08000246   0x00000024   Code   RO         4446    .text               mc_w.l(memseta.o)
    0x0800026a   0x0800026a   0x0000000e   Code   RO         4448    .text               mc_w.l(strlen.o)
    0x08000278   0x08000278   0x0000014e   Code   RO         4741    .text               mf_w.l(dadd.o)
    0x080003c6   0x080003c6   0x000000e4   Code   RO         4743    .text               mf_w.l(dmul.o)
    0x080004aa   0x080004aa   0x000000de   Code   RO         4745    .text               mf_w.l(ddiv.o)
    0x08000588   0x08000588   0x00000022   Code   RO         4747    .text               mf_w.l(dflti.o)
    0x080005aa   0x080005aa   0x0000003e   Code   RO         4749    .text               mf_w.l(dfixi.o)
    0x080005e8   0x080005e8   0x00000026   Code   RO         4751    .text               mf_w.l(f2d.o)
    0x0800060e   0x0800060e   0x00000002   PAD
    0x08000610   0x08000610   0x00000030   Code   RO         4753    .text               mf_w.l(cdcmple.o)
    0x08000640   0x08000640   0x00000030   Code   RO         4755    .text               mf_w.l(cdrcmple.o)
    0x08000670   0x08000670   0x00000038   Code   RO         4757    .text               mf_w.l(d2f.o)
    0x080006a8   0x080006a8   0x0000002c   Code   RO         4774    .text               mc_w.l(uidiv.o)
    0x080006d4   0x080006d4   0x0000001e   Code   RO         4776    .text               mc_w.l(llshl.o)
    0x080006f2   0x080006f2   0x00000020   Code   RO         4778    .text               mc_w.l(llushr.o)
    0x08000712   0x08000712   0x00000024   Code   RO         4780    .text               mc_w.l(llsshr.o)
    0x08000736   0x08000736   0x00000000   Code   RO         4784    .text               mc_w.l(iusefp.o)
    0x08000736   0x08000736   0x0000006e   Code   RO         4785    .text               mf_w.l(fepilogue.o)
    0x080007a4   0x080007a4   0x000000ba   Code   RO         4787    .text               mf_w.l(depilogue.o)
    0x0800085e   0x0800085e   0x00000030   Code   RO         4789    .text               mf_w.l(dfixul.o)
    0x0800088e   0x0800088e   0x00000002   PAD
    0x08000890   0x08000890   0x00000024   Code   RO         4791    .text               mc_w.l(init.o)
    0x080008b4   0x080008b4   0x00000056   Code   RO         4801    .text               mc_w.l(__dczerorl2.o)
    0x0800090a   0x0800090a   0x00000004   Code   RO          752    i.BusFault_Handler  stm32f4xx_it.o
    0x0800090e   0x0800090e   0x00000044   Code   RO          695    i.CDC_Control_FS    usbd_cdc_if.o
    0x08000952   0x08000952   0x00000004   Code   RO          696    i.CDC_DeInit_FS     usbd_cdc_if.o
    0x08000956   0x08000956   0x00000002   PAD
    0x08000958   0x08000958   0x00000024   Code   RO          697    i.CDC_Init_FS       usbd_cdc_if.o
    0x0800097c   0x0800097c   0x0000002c   Code   RO          698    i.CDC_Receive_FS    usbd_cdc_if.o
    0x080009a8   0x080009a8   0x0000000c   Code   RO          699    i.CDC_TransmitCplt_FS  usbd_cdc_if.o
    0x080009b4   0x080009b4   0x00000038   Code   RO          700    i.CDC_Transmit_FS   usbd_cdc_if.o
    0x080009ec   0x080009ec   0x00000010   Code   RO          753    i.DMA1_Stream1_IRQHandler  stm32f4xx_it.o
    0x080009fc   0x080009fc   0x00000010   Code   RO          754    i.DMA1_Stream5_IRQHandler  stm32f4xx_it.o
    0x08000a0c   0x08000a0c   0x00000010   Code   RO          755    i.DMA2_Stream1_IRQHandler  stm32f4xx_it.o
    0x08000a1c   0x08000a1c   0x00000010   Code   RO          756    i.DMA2_Stream2_IRQHandler  stm32f4xx_it.o
    0x08000a2c   0x08000a2c   0x00000034   Code   RO         2045    i.DMA_CalcBaseAndBitshift  stm32f4xx_hal_dma.o
    0x08000a60   0x08000a60   0x000000aa   Code   RO         2046    i.DMA_CheckFifoParam  stm32f4xx_hal_dma.o
    0x08000b0a   0x08000b0a   0x0000002c   Code   RO         2047    i.DMA_SetConfig     stm32f4xx_hal_dma.o
    0x08000b36   0x08000b36   0x00000002   Code   RO          757    i.DebugMon_Handler  stm32f4xx_it.o
    0x08000b38   0x08000b38   0x00000002   Code   RO          277    i.Error_Handler     main.o
    0x08000b3a   0x08000b3a   0x00000002   PAD
    0x08000b3c   0x08000b3c   0x00000034   Code   RO          605    i.Get_SerialNum     usbd_desc.o
    0x08000b70   0x08000b70   0x000000aa   Code   RO         2048    i.HAL_DMA_Abort     stm32f4xx_hal_dma.o
    0x08000c1a   0x08000c1a   0x00000028   Code   RO         2049    i.HAL_DMA_Abort_IT  stm32f4xx_hal_dma.o
    0x08000c42   0x08000c42   0x00000002   PAD
    0x08000c44   0x08000c44   0x00000240   Code   RO         2053    i.HAL_DMA_IRQHandler  stm32f4xx_hal_dma.o
    0x08000e84   0x08000e84   0x000000ec   Code   RO         2054    i.HAL_DMA_Init      stm32f4xx_hal_dma.o
    0x08000f70   0x08000f70   0x00000092   Code   RO         2058    i.HAL_DMA_Start_IT  stm32f4xx_hal_dma.o
    0x08001002   0x08001002   0x00000002   PAD
    0x08001004   0x08001004   0x00000028   Code   RO         2472    i.HAL_Delay         stm32f4xx_hal.o
    0x0800102c   0x0800102c   0x00000200   Code   RO         1941    i.HAL_GPIO_Init     stm32f4xx_hal_gpio.o
    0x0800122c   0x0800122c   0x0000000c   Code   RO         2478    i.HAL_GetTick       stm32f4xx_hal.o
    0x08001238   0x08001238   0x00000018   Code   RO         2484    i.HAL_IncTick       stm32f4xx_hal.o
    0x08001250   0x08001250   0x0000003c   Code   RO         2485    i.HAL_Init          stm32f4xx_hal.o
    0x0800128c   0x0800128c   0x0000004c   Code   RO         2486    i.HAL_InitTick      stm32f4xx_hal.o
    0x080012d8   0x080012d8   0x00000048   Code   RO          901    i.HAL_MspInit       stm32f4xx_hal_msp.o
    0x08001320   0x08001320   0x00000020   Code   RO         2330    i.HAL_NVIC_EnableIRQ  stm32f4xx_hal_cortex.o
    0x08001340   0x08001340   0x0000007c   Code   RO         2336    i.HAL_NVIC_SetPriority  stm32f4xx_hal_cortex.o
    0x080013bc   0x080013bc   0x00000028   Code   RO         2337    i.HAL_NVIC_SetPriorityGrouping  stm32f4xx_hal_cortex.o
    0x080013e4   0x080013e4   0x00000002   Code   RO         1194    i.HAL_PCDEx_LPM_Callback  stm32f4xx_hal_pcd_ex.o
    0x080013e6   0x080013e6   0x0000000a   Code   RO         1195    i.HAL_PCDEx_SetRxFiFo  stm32f4xx_hal_pcd_ex.o
    0x080013f0   0x080013f0   0x0000004e   Code   RO         1196    i.HAL_PCDEx_SetTxFiFo  stm32f4xx_hal_pcd_ex.o
    0x0800143e   0x0800143e   0x0000000e   Code   RO          410    i.HAL_PCD_ConnectCallback  usbd_conf.o
    0x0800144c   0x0800144c   0x00000020   Code   RO          411    i.HAL_PCD_DataInStageCallback  usbd_conf.o
    0x0800146c   0x0800146c   0x00000020   Code   RO          412    i.HAL_PCD_DataOutStageCallback  usbd_conf.o
    0x0800148c   0x0800148c   0x0000000e   Code   RO          413    i.HAL_PCD_DisconnectCallback  usbd_conf.o
    0x0800149a   0x0800149a   0x0000006a   Code   RO          977    i.HAL_PCD_EP_Close  stm32f4xx_hal_pcd.o
    0x08001504   0x08001504   0x0000007c   Code   RO          978    i.HAL_PCD_EP_ClrStall  stm32f4xx_hal_pcd.o
    0x08001580   0x08001580   0x00000016   Code   RO          980    i.HAL_PCD_EP_GetRxCount  stm32f4xx_hal_pcd.o
    0x08001596   0x08001596   0x0000008c   Code   RO          981    i.HAL_PCD_EP_Open   stm32f4xx_hal_pcd.o
    0x08001622   0x08001622   0x00000058   Code   RO          982    i.HAL_PCD_EP_Receive  stm32f4xx_hal_pcd.o
    0x0800167a   0x0800167a   0x0000008a   Code   RO          983    i.HAL_PCD_EP_SetStall  stm32f4xx_hal_pcd.o
    0x08001704   0x08001704   0x0000005a   Code   RO          984    i.HAL_PCD_EP_Transmit  stm32f4xx_hal_pcd.o
    0x0800175e   0x0800175e   0x0000055c   Code   RO          986    i.HAL_PCD_IRQHandler  stm32f4xx_hal_pcd.o
    0x08001cba   0x08001cba   0x00000012   Code   RO          414    i.HAL_PCD_ISOINIncompleteCallback  usbd_conf.o
    0x08001ccc   0x08001ccc   0x00000012   Code   RO          415    i.HAL_PCD_ISOOUTIncompleteCallback  usbd_conf.o
    0x08001cde   0x08001cde   0x00000166   Code   RO          989    i.HAL_PCD_Init      stm32f4xx_hal_pcd.o
    0x08001e44   0x08001e44   0x000000a8   Code   RO          417    i.HAL_PCD_MspInit   usbd_conf.o
    0x08001eec   0x08001eec   0x00000030   Code   RO          418    i.HAL_PCD_ResetCallback  usbd_conf.o
    0x08001f1c   0x08001f1c   0x0000000e   Code   RO          419    i.HAL_PCD_ResumeCallback  usbd_conf.o
    0x08001f2a   0x08001f2a   0x0000000e   Code   RO          420    i.HAL_PCD_SOFCallback  usbd_conf.o
    0x08001f38   0x08001f38   0x00000036   Code   RO          995    i.HAL_PCD_SetAddress  stm32f4xx_hal_pcd.o
    0x08001f6e   0x08001f6e   0x00000012   Code   RO          421    i.HAL_PCD_SetupStageCallback  usbd_conf.o
    0x08001f80   0x08001f80   0x0000004a   Code   RO          997    i.HAL_PCD_Start     stm32f4xx_hal_pcd.o
    0x08001fca   0x08001fca   0x00000002   PAD
    0x08001fcc   0x08001fcc   0x00000034   Code   RO          422    i.HAL_PCD_SuspendCallback  usbd_conf.o
    0x08002000   0x08002000   0x00000184   Code   RO         1542    i.HAL_RCC_ClockConfig  stm32f4xx_hal_rcc.o
    0x08002184   0x08002184   0x0000000c   Code   RO         1547    i.HAL_RCC_GetHCLKFreq  stm32f4xx_hal_rcc.o
    0x08002190   0x08002190   0x00000020   Code   RO         1549    i.HAL_RCC_GetPCLK1Freq  stm32f4xx_hal_rcc.o
    0x080021b0   0x080021b0   0x00000020   Code   RO         1550    i.HAL_RCC_GetPCLK2Freq  stm32f4xx_hal_rcc.o
    0x080021d0   0x080021d0   0x000000b0   Code   RO         1551    i.HAL_RCC_GetSysClockFreq  stm32f4xx_hal_rcc.o
    0x08002280   0x08002280   0x00000488   Code   RO         1554    i.HAL_RCC_OscConfig  stm32f4xx_hal_rcc.o
    0x08002708   0x08002708   0x00000034   Code   RO         2341    i.HAL_SYSTICK_Config  stm32f4xx_hal_cortex.o
    0x0800273c   0x0800273c   0x00000002   Code   RO         3411    i.HAL_TIMEx_BreakCallback  stm32f4xx_hal_tim_ex.o
    0x0800273e   0x0800273e   0x00000002   Code   RO         3412    i.HAL_TIMEx_CommutCallback  stm32f4xx_hal_tim_ex.o
    0x08002740   0x08002740   0x000000b4   Code   RO         3429    i.HAL_TIMEx_MasterConfigSynchronization  stm32f4xx_hal_tim_ex.o
    0x080027f4   0x080027f4   0x00000034   Code   RO         2725    i.HAL_TIM_Base_Init  stm32f4xx_hal_tim.o
    0x08002828   0x08002828   0x000000ac   Code   RO          903    i.HAL_TIM_Base_MspInit  stm32f4xx_hal_msp.o
    0x080028d4   0x080028d4   0x0000002a   Code   RO         2730    i.HAL_TIM_Base_Start_IT  stm32f4xx_hal_tim.o
    0x080028fe   0x080028fe   0x00000108   Code   RO         2734    i.HAL_TIM_ConfigClockSource  stm32f4xx_hal_tim.o
    0x08002a06   0x08002a06   0x000000ae   Code   RO         2743    i.HAL_TIM_Encoder_Init  stm32f4xx_hal_tim.o
    0x08002ab4   0x08002ab4   0x00000088   Code   RO          905    i.HAL_TIM_Encoder_MspInit  stm32f4xx_hal_msp.o
    0x08002b3c   0x08002b3c   0x0000004e   Code   RO         2746    i.HAL_TIM_Encoder_Start  stm32f4xx_hal_tim.o
    0x08002b8a   0x08002b8a   0x00000002   Code   RO         2754    i.HAL_TIM_IC_CaptureCallback  stm32f4xx_hal_tim.o
    0x08002b8c   0x08002b8c   0x00000196   Code   RO         2768    i.HAL_TIM_IRQHandler  stm32f4xx_hal_tim.o
    0x08002d22   0x08002d22   0x00000002   PAD
    0x08002d24   0x08002d24   0x00000060   Code   RO          906    i.HAL_TIM_MspPostInit  stm32f4xx_hal_msp.o
    0x08002d84   0x08002d84   0x00000002   Code   RO         2771    i.HAL_TIM_OC_DelayElapsedCallback  stm32f4xx_hal_tim.o
    0x08002d86   0x08002d86   0x00000108   Code   RO         2792    i.HAL_TIM_PWM_ConfigChannel  stm32f4xx_hal_tim.o
    0x08002e8e   0x08002e8e   0x00000034   Code   RO         2795    i.HAL_TIM_PWM_Init  stm32f4xx_hal_tim.o
    0x08002ec2   0x08002ec2   0x00000002   Code   RO         2797    i.HAL_TIM_PWM_MspInit  stm32f4xx_hal_tim.o
    0x08002ec4   0x08002ec4   0x00000002   Code   RO         2798    i.HAL_TIM_PWM_PulseFinishedCallback  stm32f4xx_hal_tim.o
    0x08002ec6   0x08002ec6   0x00000002   PAD
    0x08002ec8   0x08002ec8   0x00000058   Code   RO         2800    i.HAL_TIM_PWM_Start  stm32f4xx_hal_tim.o
    0x08002f20   0x08002f20   0x00000002   Code   RO         2806    i.HAL_TIM_PeriodElapsedCallback  stm32f4xx_hal_tim.o
    0x08002f22   0x08002f22   0x00000002   Code   RO         2811    i.HAL_TIM_TriggerCallback  stm32f4xx_hal_tim.o
    0x08002f24   0x08002f24   0x00000066   Code   RO         3681    i.HAL_UART_DMAStop  stm32f4xx_hal_uart.o
    0x08002f8a   0x08002f8a   0x00000002   Code   RO         3683    i.HAL_UART_ErrorCallback  stm32f4xx_hal_uart.o
    0x08002f8c   0x08002f8c   0x00000154   Code   RO         3686    i.HAL_UART_IRQHandler  stm32f4xx_hal_uart.o
    0x080030e0   0x080030e0   0x00000072   Code   RO         3687    i.HAL_UART_Init     stm32f4xx_hal_uart.o
    0x08003152   0x08003152   0x00000002   PAD
    0x08003154   0x08003154   0x00000340   Code   RO          908    i.HAL_UART_MspInit  stm32f4xx_hal_msp.o
    0x08003494   0x08003494   0x000000c4   Code   RO         3691    i.HAL_UART_Receive_DMA  stm32f4xx_hal_uart.o
    0x08003558   0x08003558   0x00000002   Code   RO         3693    i.HAL_UART_RxCpltCallback  stm32f4xx_hal_uart.o
    0x0800355a   0x0800355a   0x00000002   Code   RO         3694    i.HAL_UART_RxHalfCpltCallback  stm32f4xx_hal_uart.o
    0x0800355c   0x0800355c   0x000000d8   Code   RO         3695    i.HAL_UART_Transmit  stm32f4xx_hal_uart.o
    0x08003634   0x08003634   0x00000002   Code   RO         3698    i.HAL_UART_TxCpltCallback  stm32f4xx_hal_uart.o
    0x08003636   0x08003636   0x00000004   Code   RO          758    i.HardFault_Handler  stm32f4xx_it.o
    0x0800363a   0x0800363a   0x0000003e   Code   RO          606    i.IntToUnicode      usbd_desc.o
    0x08003678   0x08003678   0x00000088   Code   RO          278    i.MX_DMA_Init       main.o
    0x08003700   0x08003700   0x000000a0   Code   RO          279    i.MX_GPIO_Init      main.o
    0x080037a0   0x080037a0   0x0000008c   Code   RO          280    i.MX_TIM1_Init      main.o
    0x0800382c   0x0800382c   0x00000074   Code   RO          281    i.MX_TIM2_Init      main.o
    0x080038a0   0x080038a0   0x000000c8   Code   RO          282    i.MX_TIM3_Init      main.o
    0x08003968   0x08003968   0x00000074   Code   RO          283    i.MX_TIM4_Init      main.o
    0x080039dc   0x080039dc   0x00000058   Code   RO          284    i.MX_USART1_UART_Init  main.o
    0x08003a34   0x08003a34   0x0000005c   Code   RO          285    i.MX_USART2_UART_Init  main.o
    0x08003a90   0x08003a90   0x00000054   Code   RO          286    i.MX_USART3_UART_Init  main.o
    0x08003ae4   0x08003ae4   0x00000058   Code   RO          287    i.MX_USART6_UART_Init  main.o
    0x08003b3c   0x08003b3c   0x0000004c   Code   RO          379    i.MX_USB_DEVICE_Init  usb_device.o
    0x08003b88   0x08003b88   0x00000004   Code   RO          759    i.MemManage_Handler  stm32f4xx_it.o
    0x08003b8c   0x08003b8c   0x00000002   Code   RO          760    i.NMI_Handler       stm32f4xx_it.o
    0x08003b8e   0x08003b8e   0x00000002   PAD
    0x08003b90   0x08003b90   0x00000010   Code   RO          761    i.OTG_FS_IRQHandler  stm32f4xx_it.o
    0x08003ba0   0x08003ba0   0x00000064   Code   RO         1000    i.PCD_EP_OutSetupPacket_int  stm32f4xx_hal_pcd.o
    0x08003c04   0x08003c04   0x0000017c   Code   RO         1001    i.PCD_EP_OutXfrComplete_int  stm32f4xx_hal_pcd.o
    0x08003d80   0x08003d80   0x000000b6   Code   RO         1002    i.PCD_WriteEmptyTxFifo  stm32f4xx_hal_pcd.o
    0x08003e36   0x08003e36   0x00000002   PAD
    0x08003e38   0x08003e38   0x0000027c   Code   RO           13    i.PIDRegulator      sbus.o
    0x080040b4   0x080040b4   0x00000002   Code   RO          762    i.PendSV_Handler    stm32f4xx_it.o
    0x080040b6   0x080040b6   0x00000002   Code   RO          763    i.SVC_Handler       stm32f4xx_it.o
    0x080040b8   0x080040b8   0x00000012   Code   RO         4168    i.SWAPBYTE          usbd_ctlreq.o
    0x080040ca   0x080040ca   0x00000008   Code   RO          764    i.SysTick_Handler   stm32f4xx_it.o
    0x080040d2   0x080040d2   0x00000002   PAD
    0x080040d4   0x080040d4   0x000000b4   Code   RO          288    i.SystemClock_Config  main.o
    0x08004188   0x08004188   0x0000001c   Code   RO         3994    i.SystemInit        system_stm32f4xx.o
    0x080041a4   0x080041a4   0x00000014   Code   RO          765    i.TIM2_IRQHandler   stm32f4xx_it.o
    0x080041b8   0x080041b8   0x000000b0   Code   RO          766    i.TIM4_IRQHandler   stm32f4xx_it.o
    0x08004268   0x08004268   0x000000d8   Code   RO         2813    i.TIM_Base_SetConfig  stm32f4xx_hal_tim.o
    0x08004340   0x08004340   0x00000022   Code   RO         2814    i.TIM_CCxChannelCmd  stm32f4xx_hal_tim.o
    0x08004362   0x08004362   0x00000016   Code   RO         2824    i.TIM_ETR_SetConfig  stm32f4xx_hal_tim.o
    0x08004378   0x08004378   0x00000012   Code   RO         2825    i.TIM_ITRx_SetConfig  stm32f4xx_hal_tim.o
    0x0800438a   0x0800438a   0x00000002   PAD
    0x0800438c   0x0800438c   0x00000070   Code   RO         2826    i.TIM_OC1_SetConfig  stm32f4xx_hal_tim.o
    0x080043fc   0x080043fc   0x0000007c   Code   RO         2827    i.TIM_OC2_SetConfig  stm32f4xx_hal_tim.o
    0x08004478   0x08004478   0x00000078   Code   RO         2828    i.TIM_OC3_SetConfig  stm32f4xx_hal_tim.o
    0x080044f0   0x080044f0   0x00000054   Code   RO         2829    i.TIM_OC4_SetConfig  stm32f4xx_hal_tim.o
    0x08004544   0x08004544   0x00000026   Code   RO         2831    i.TIM_TI1_ConfigInputStage  stm32f4xx_hal_tim.o
    0x0800456a   0x0800456a   0x00000028   Code   RO         2833    i.TIM_TI2_ConfigInputStage  stm32f4xx_hal_tim.o
    0x08004592   0x08004592   0x00000014   Code   RO         3700    i.UART_DMAAbortOnError  stm32f4xx_hal_uart.o
    0x080045a6   0x080045a6   0x00000050   Code   RO         3701    i.UART_DMAError     stm32f4xx_hal_uart.o
    0x080045f6   0x080045f6   0x00000046   Code   RO         3702    i.UART_DMAReceiveCplt  stm32f4xx_hal_uart.o
    0x0800463c   0x0800463c   0x0000000e   Code   RO         3704    i.UART_DMARxHalfCplt  stm32f4xx_hal_uart.o
    0x0800464a   0x0800464a   0x00000020   Code   RO         3710    i.UART_EndRxTransfer  stm32f4xx_hal_uart.o
    0x0800466a   0x0800466a   0x00000020   Code   RO         3711    i.UART_EndTransmit_IT  stm32f4xx_hal_uart.o
    0x0800468a   0x0800468a   0x00000014   Code   RO         3712    i.UART_EndTxTransfer  stm32f4xx_hal_uart.o
    0x0800469e   0x0800469e   0x000000a6   Code   RO         3713    i.UART_Receive_IT   stm32f4xx_hal_uart.o
    0x08004744   0x08004744   0x000003e8   Code   RO         3714    i.UART_SetConfig    stm32f4xx_hal_uart.o
    0x08004b2c   0x08004b2c   0x00000068   Code   RO         3715    i.UART_Transmit_IT  stm32f4xx_hal_uart.o
    0x08004b94   0x08004b94   0x0000006c   Code   RO         3716    i.UART_WaitOnFlagUntilTimeout  stm32f4xx_hal_uart.o
    0x08004c00   0x08004c00   0x00000078   Code   RO          767    i.USART1_IRQHandler  stm32f4xx_it.o
    0x08004c78   0x08004c78   0x00000078   Code   RO          768    i.USART2_IRQHandler  stm32f4xx_it.o
    0x08004cf0   0x08004cf0   0x00000078   Code   RO          769    i.USART3_IRQHandler  stm32f4xx_it.o
    0x08004d68   0x08004d68   0x00000078   Code   RO          770    i.USART6_IRQHandler  stm32f4xx_it.o
    0x08004de0   0x08004de0   0x0000008c   Code   RO         4331    i.USBD_CDC_DataIn   usbd_cdc.o
    0x08004e6c   0x08004e6c   0x00000034   Code   RO         4332    i.USBD_CDC_DataOut  usbd_cdc.o
    0x08004ea0   0x08004ea0   0x00000054   Code   RO         4333    i.USBD_CDC_DeInit   usbd_cdc.o
    0x08004ef4   0x08004ef4   0x00000032   Code   RO         4334    i.USBD_CDC_EP0_RxReady  usbd_cdc.o
    0x08004f26   0x08004f26   0x00000002   PAD
    0x08004f28   0x08004f28   0x00000010   Code   RO         4335    i.USBD_CDC_GetDeviceQualifierDescriptor  usbd_cdc.o
    0x08004f38   0x08004f38   0x00000010   Code   RO         4336    i.USBD_CDC_GetFSCfgDesc  usbd_cdc.o
    0x08004f48   0x08004f48   0x00000010   Code   RO         4337    i.USBD_CDC_GetHSCfgDesc  usbd_cdc.o
    0x08004f58   0x08004f58   0x00000010   Code   RO         4338    i.USBD_CDC_GetOtherSpeedCfgDesc  usbd_cdc.o
    0x08004f68   0x08004f68   0x000000c0   Code   RO         4339    i.USBD_CDC_Init     usbd_cdc.o
    0x08005028   0x08005028   0x0000003a   Code   RO         4340    i.USBD_CDC_ReceivePacket  usbd_cdc.o
    0x08005062   0x08005062   0x00000010   Code   RO         4341    i.USBD_CDC_RegisterInterface  usbd_cdc.o
    0x08005072   0x08005072   0x0000000e   Code   RO         4342    i.USBD_CDC_SetRxBuffer  usbd_cdc.o
    0x08005080   0x08005080   0x00000014   Code   RO         4343    i.USBD_CDC_SetTxBuffer  usbd_cdc.o
    0x08005094   0x08005094   0x000000fa   Code   RO         4344    i.USBD_CDC_Setup    usbd_cdc.o
    0x0800518e   0x0800518e   0x0000003c   Code   RO         4345    i.USBD_CDC_TransmitPacket  usbd_cdc.o
    0x080051ca   0x080051ca   0x0000001c   Code   RO         4030    i.USBD_ClrClassConfig  usbd_core.o
    0x080051e6   0x080051e6   0x0000003e   Code   RO         4169    i.USBD_ClrFeature   usbd_ctlreq.o
    0x08005224   0x08005224   0x00000018   Code   RO         4271    i.USBD_CtlContinueRx  usbd_ioreq.o
    0x0800523c   0x0800523c   0x00000018   Code   RO         4272    i.USBD_CtlContinueSendData  usbd_ioreq.o
    0x08005254   0x08005254   0x00000018   Code   RO         4170    i.USBD_CtlError     usbd_ctlreq.o
    0x0800526c   0x0800526c   0x00000028   Code   RO         4273    i.USBD_CtlPrepareRx  usbd_ioreq.o
    0x08005294   0x08005294   0x0000001a   Code   RO         4274    i.USBD_CtlReceiveStatus  usbd_ioreq.o
    0x080052ae   0x080052ae   0x00000022   Code   RO         4275    i.USBD_CtlSendData  usbd_ioreq.o
    0x080052d0   0x080052d0   0x0000001a   Code   RO         4276    i.USBD_CtlSendStatus  usbd_ioreq.o
    0x080052ea   0x080052ea   0x00000002   PAD
    0x080052ec   0x080052ec   0x00000034   Code   RO          607    i.USBD_FS_ConfigStrDescriptor  usbd_desc.o
    0x08005320   0x08005320   0x00000010   Code   RO          608    i.USBD_FS_DeviceDescriptor  usbd_desc.o
    0x08005330   0x08005330   0x00000038   Code   RO          609    i.USBD_FS_InterfaceStrDescriptor  usbd_desc.o
    0x08005368   0x08005368   0x00000010   Code   RO          610    i.USBD_FS_LangIDStrDescriptor  usbd_desc.o
    0x08005378   0x08005378   0x0000002c   Code   RO          611    i.USBD_FS_ManufacturerStrDescriptor  usbd_desc.o
    0x080053a4   0x080053a4   0x00000040   Code   RO          612    i.USBD_FS_ProductStrDescriptor  usbd_desc.o
    0x080053e4   0x080053e4   0x00000018   Code   RO          613    i.USBD_FS_SerialStrDescriptor  usbd_desc.o
    0x080053fc   0x080053fc   0x00000056   Code   RO         4171    i.USBD_GetConfig    usbd_ctlreq.o
    0x08005452   0x08005452   0x000001fc   Code   RO         4172    i.USBD_GetDescriptor  usbd_ctlreq.o
    0x0800564e   0x0800564e   0x00000016   Code   RO         4173    i.USBD_GetLen       usbd_ctlreq.o
    0x08005664   0x08005664   0x0000005a   Code   RO         4174    i.USBD_GetStatus    usbd_ctlreq.o
    0x080056be   0x080056be   0x00000054   Code   RO         4175    i.USBD_GetString    usbd_ctlreq.o
    0x08005712   0x08005712   0x0000002c   Code   RO          423    i.USBD_Get_USB_Status  usbd_conf.o
    0x0800573e   0x0800573e   0x00000044   Code   RO         4032    i.USBD_Init         usbd_core.o
    0x08005782   0x08005782   0x00000026   Code   RO          424    i.USBD_LL_ClearStallEP  usbd_conf.o
    0x080057a8   0x080057a8   0x00000026   Code   RO          425    i.USBD_LL_CloseEP   usbd_conf.o
    0x080057ce   0x080057ce   0x000000e6   Code   RO         4033    i.USBD_LL_DataInStage  usbd_core.o
    0x080058b4   0x080058b4   0x00000092   Code   RO         4034    i.USBD_LL_DataOutStage  usbd_core.o
    0x08005946   0x08005946   0x00000006   Code   RO         4035    i.USBD_LL_DevConnected  usbd_core.o
    0x0800594c   0x0800594c   0x00000020   Code   RO         4036    i.USBD_LL_DevDisconnected  usbd_core.o
    0x0800596c   0x0800596c   0x00000012   Code   RO          429    i.USBD_LL_GetRxDataSize  usbd_conf.o
    0x0800597e   0x0800597e   0x00000002   PAD
    0x08005980   0x08005980   0x00000068   Code   RO          430    i.USBD_LL_Init      usbd_conf.o
    0x080059e8   0x080059e8   0x00000038   Code   RO          431    i.USBD_LL_IsStallEP  usbd_conf.o
    0x08005a20   0x08005a20   0x00000006   Code   RO         4037    i.USBD_LL_IsoINIncomplete  usbd_core.o
    0x08005a26   0x08005a26   0x00000006   Code   RO         4038    i.USBD_LL_IsoOUTIncomplete  usbd_core.o
    0x08005a2c   0x08005a2c   0x00000030   Code   RO          432    i.USBD_LL_OpenEP    usbd_conf.o
    0x08005a5c   0x08005a5c   0x00000030   Code   RO          433    i.USBD_LL_PrepareReceive  usbd_conf.o
    0x08005a8c   0x08005a8c   0x0000005a   Code   RO         4039    i.USBD_LL_Reset     usbd_core.o
    0x08005ae6   0x08005ae6   0x00000016   Code   RO         4040    i.USBD_LL_Resume    usbd_core.o
    0x08005afc   0x08005afc   0x00000022   Code   RO         4041    i.USBD_LL_SOF       usbd_core.o
    0x08005b1e   0x08005b1e   0x00000008   Code   RO         4042    i.USBD_LL_SetSpeed  usbd_core.o
    0x08005b26   0x08005b26   0x00000026   Code   RO          434    i.USBD_LL_SetUSBAddress  usbd_conf.o
    0x08005b4c   0x08005b4c   0x00000076   Code   RO         4043    i.USBD_LL_SetupStage  usbd_core.o
    0x08005bc2   0x08005bc2   0x00000026   Code   RO          435    i.USBD_LL_StallEP   usbd_conf.o
    0x08005be8   0x08005be8   0x0000001e   Code   RO          436    i.USBD_LL_Start     usbd_conf.o
    0x08005c06   0x08005c06   0x00000014   Code   RO         4044    i.USBD_LL_Suspend   usbd_core.o
    0x08005c1a   0x08005c1a   0x00000030   Code   RO          438    i.USBD_LL_Transmit  usbd_conf.o
    0x08005c4a   0x08005c4a   0x00000036   Code   RO         4176    i.USBD_ParseSetupRequest  usbd_ctlreq.o
    0x08005c80   0x08005c80   0x00000026   Code   RO         4045    i.USBD_RegisterClass  usbd_core.o
    0x08005ca6   0x08005ca6   0x00000006   Code   RO         4046    i.USBD_RunTestMode  usbd_core.o
    0x08005cac   0x08005cac   0x0000005a   Code   RO         4177    i.USBD_SetAddress   usbd_ctlreq.o
    0x08005d06   0x08005d06   0x00000020   Code   RO         4047    i.USBD_SetClassConfig  usbd_core.o
    0x08005d26   0x08005d26   0x00000002   PAD
    0x08005d28   0x08005d28   0x000000fc   Code   RO         4178    i.USBD_SetConfig    usbd_ctlreq.o
    0x08005e24   0x08005e24   0x00000018   Code   RO         4179    i.USBD_SetFeature   usbd_ctlreq.o
    0x08005e3c   0x08005e3c   0x0000000c   Code   RO         4048    i.USBD_Start        usbd_core.o
    0x08005e48   0x08005e48   0x000000a6   Code   RO         4180    i.USBD_StdDevReq    usbd_ctlreq.o
    0x08005eee   0x08005eee   0x0000022a   Code   RO         4181    i.USBD_StdEPReq     usbd_ctlreq.o
    0x08006118   0x08006118   0x0000007e   Code   RO         4182    i.USBD_StdItfReq    usbd_ctlreq.o
    0x08006196   0x08006196   0x00000002   PAD
    0x08006198   0x08006198   0x000000d0   Code   RO         1236    i.USB_ActivateEndpoint  stm32f4xx_ll_usb.o
    0x08006268   0x08006268   0x00000028   Code   RO         1238    i.USB_ActivateSetup  stm32f4xx_ll_usb.o
    0x08006290   0x08006290   0x00000084   Code   RO         1240    i.USB_CoreInit      stm32f4xx_ll_usb.o
    0x08006314   0x08006314   0x0000004c   Code   RO         1241    i.USB_CoreReset     stm32f4xx_ll_usb.o
    0x08006360   0x08006360   0x0000014c   Code   RO         1244    i.USB_DeactivateEndpoint  stm32f4xx_ll_usb.o
    0x080064ac   0x080064ac   0x00000020   Code   RO         1245    i.USB_DevConnect    stm32f4xx_ll_usb.o
    0x080064cc   0x080064cc   0x00000020   Code   RO         1246    i.USB_DevDisconnect  stm32f4xx_ll_usb.o
    0x080064ec   0x080064ec   0x000001e0   Code   RO         1247    i.USB_DevInit       stm32f4xx_ll_usb.o
    0x080066cc   0x080066cc   0x0000000e   Code   RO         1248    i.USB_DisableGlobalInt  stm32f4xx_ll_usb.o
    0x080066da   0x080066da   0x00000002   PAD
    0x080066dc   0x080066dc   0x000001d8   Code   RO         1251    i.USB_EP0StartXfer  stm32f4xx_ll_usb.o
    0x080068b4   0x080068b4   0x00000070   Code   RO         1252    i.USB_EP0_OutStart  stm32f4xx_ll_usb.o
    0x08006924   0x08006924   0x0000008e   Code   RO         1253    i.USB_EPClearStall  stm32f4xx_ll_usb.o
    0x080069b2   0x080069b2   0x0000009a   Code   RO         1254    i.USB_EPSetStall    stm32f4xx_ll_usb.o
    0x08006a4c   0x08006a4c   0x00000344   Code   RO         1255    i.USB_EPStartXfer   stm32f4xx_ll_usb.o
    0x08006d90   0x08006d90   0x0000000e   Code   RO         1256    i.USB_EnableGlobalInt  stm32f4xx_ll_usb.o
    0x08006d9e   0x08006d9e   0x00000002   PAD
    0x08006da0   0x08006da0   0x0000002c   Code   RO         1257    i.USB_FlushRxFifo   stm32f4xx_ll_usb.o
    0x08006dcc   0x08006dcc   0x00000030   Code   RO         1258    i.USB_FlushTxFifo   stm32f4xx_ll_usb.o
    0x08006dfc   0x08006dfc   0x00000026   Code   RO         1260    i.USB_GetDevSpeed   stm32f4xx_ll_usb.o
    0x08006e22   0x08006e22   0x0000000a   Code   RO         1262    i.USB_GetMode       stm32f4xx_ll_usb.o
    0x08006e2c   0x08006e2c   0x00000014   Code   RO         1269    i.USB_ReadDevAllInEpInterrupt  stm32f4xx_ll_usb.o
    0x08006e40   0x08006e40   0x00000014   Code   RO         1270    i.USB_ReadDevAllOutEpInterrupt  stm32f4xx_ll_usb.o
    0x08006e54   0x08006e54   0x00000032   Code   RO         1271    i.USB_ReadDevInEPInterrupt  stm32f4xx_ll_usb.o
    0x08006e86   0x08006e86   0x0000001a   Code   RO         1272    i.USB_ReadDevOutEPInterrupt  stm32f4xx_ll_usb.o
    0x08006ea0   0x08006ea0   0x0000000a   Code   RO         1273    i.USB_ReadInterrupts  stm32f4xx_ll_usb.o
    0x08006eaa   0x08006eaa   0x00000022   Code   RO         1274    i.USB_ReadPacket    stm32f4xx_ll_usb.o
    0x08006ecc   0x08006ecc   0x00000036   Code   RO         1276    i.USB_SetCurrentMode  stm32f4xx_ll_usb.o
    0x08006f02   0x08006f02   0x0000002a   Code   RO         1277    i.USB_SetDevAddress  stm32f4xx_ll_usb.o
    0x08006f2c   0x08006f2c   0x00000012   Code   RO         1278    i.USB_SetDevSpeed   stm32f4xx_ll_usb.o
    0x08006f3e   0x08006f3e   0x00000002   PAD
    0x08006f40   0x08006f40   0x000000e8   Code   RO         1279    i.USB_SetTurnaroundTime  stm32f4xx_ll_usb.o
    0x08007028   0x08007028   0x0000003c   Code   RO         1282    i.USB_WritePacket   stm32f4xx_ll_usb.o
    0x08007064   0x08007064   0x00000004   Code   RO          771    i.UsageFault_Handler  stm32f4xx_it.o
    0x08007068   0x08007068   0x00000110   Code   RO           14    i.VariableIntegralCoefficient  sbus.o
    0x08007178   0x08007178   0x00000020   Code   RO         4685    i.__0printf         mc_w.l(printfa.o)
    0x08007198   0x08007198   0x00000028   Code   RO         4687    i.__0sprintf        mc_w.l(printfa.o)
    0x080071c0   0x080071c0   0x00000010   Code   RO         2343    i.__NVIC_GetPriorityGrouping  stm32f4xx_hal_cortex.o
    0x080071d0   0x080071d0   0x00000028   Code   RO         2344    i.__NVIC_SetPriority  stm32f4xx_hal_cortex.o
    0x080071f8   0x080071f8   0x00000014   Code   RO         4433    i.__hardfp_fabs     m_wm.l(fabs.o)
    0x0800720c   0x0800720c   0x0000000e   Code   RO         4795    i.__scatterload_copy  mc_w.l(handlers.o)
    0x0800721a   0x0800721a   0x00000002   Code   RO         4796    i.__scatterload_null  mc_w.l(handlers.o)
    0x0800721c   0x0800721c   0x0000000e   Code   RO         4797    i.__scatterload_zeroinit  mc_w.l(handlers.o)
    0x0800722a   0x0800722a   0x00000002   PAD
    0x0800722c   0x0800722c   0x00000184   Code   RO         4692    i._fp_digits        mc_w.l(printfa.o)
    0x080073b0   0x080073b0   0x00000084   Code   RO           15    i._init_PID         sbus.o
    0x08007434   0x08007434   0x000006dc   Code   RO         4693    i._printf_core      mc_w.l(printfa.o)
    0x08007b10   0x08007b10   0x00000024   Code   RO         4694    i._printf_post_padding  mc_w.l(printfa.o)
    0x08007b34   0x08007b34   0x0000002e   Code   RO         4695    i._printf_pre_padding  mc_w.l(printfa.o)
    0x08007b62   0x08007b62   0x0000000a   Code   RO         4697    i._sputc            mc_w.l(printfa.o)
    0x08007b6c   0x08007b6c   0x00000022   Code   RO           16    i.dir_crtl          sbus.o
    0x08007b8e   0x08007b8e   0x00000002   PAD
    0x08007b90   0x08007b90   0x0000001c   Code   RO          289    i.fputc             main.o
    0x08007bac   0x08007bac   0x00000050   Code   RO         4713    i.free              mc_w.l(malloc.o)
    0x08007bfc   0x08007bfc   0x00000038   Code   RO           18    i.kmh2pulse         sbus.o
    0x08007c34   0x08007c34   0x00000058   Code   RO           19    i.low_filter_calc   sbus.o
    0x08007c8c   0x08007c8c   0x0000003c   Code   RO           20    i.low_filter_init   sbus.o
    0x08007cc8   0x08007cc8   0x0000003c   Code   RO          290    i.main              main.o
    0x08007d04   0x08007d04   0x0000006c   Code   RO         4714    i.malloc            mc_w.l(malloc.o)
    0x08007d70   0x08007d70   0x00000030   Code   RO           21    i.pulse2kmh         sbus.o
    0x08007da0   0x08007da0   0x0000007c   Code   RO           22    i.pwm_ctrl          sbus.o
    0x08007e1c   0x08007e1c   0x000001b6   Code   RO           23    i.sbus_read_parse   sbus.o
    0x08007fd2   0x08007fd2   0x00000002   PAD
    0x08007fd4   0x08007fd4   0x0000004c   Code   RO           24    i.sbus_rev_data     sbus.o
    0x08008020   0x08008020   0x000000d8   Code   RO           25    i.spd_ctrl          sbus.o
    0x080080f8   0x080080f8   0x000001b8   Code   RO           26    i.test_running      sbus.o
    0x080082b0   0x080082b0   0x0000016c   Code   RO           27    i.usb_decode_func   sbus.o
    0x0800841c   0x0800841c   0x00000180   Code   RO           28    i.usb_packsand_func  sbus.o
    0x0800859c   0x0800859c   0x00000008   Data   RO         2060    .constdata          stm32f4xx_hal_dma.o
    0x080085a4   0x080085a4   0x00000018   Data   RO         3995    .constdata          system_stm32f4xx.o
    0x080085bc   0x080085bc   0x00000020   Data   RO         4793    Region$$Table       anon$$obj.o


    Execution Region RW_IRAM2 (Exec base: 0x10000000, Load base: 0x080086a4, Size: 0x00000000, Max: 0x00010000, ABSOLUTE)

    **** No section assigned to this execution region ****


    Execution Region RW_IRAM1 (Exec base: 0x20000000, Load base: 0x080085dc, Size: 0x000032a0, Max: 0x00020000, ABSOLUTE, COMPRESSED[0x000000c8])

    Exec Addr    Load Addr    Size         Type   Attr      Idx    E Section Name        Object

    0x20000000   COMPRESSED   0x00000034   Data   RW           31    .data               sbus.o
    0x20000034   COMPRESSED   0x0000004e   Data   RW          615    .data               usbd_desc.o
    0x20000082   COMPRESSED   0x00000002   PAD
    0x20000084   COMPRESSED   0x00000014   Data   RW          702    .data               usbd_cdc_if.o
    0x20000098   COMPRESSED   0x00000018   Data   RW          772    .data               stm32f4xx_it.o
    0x200000b0   COMPRESSED   0x00000009   Data   RW         2492    .data               stm32f4xx_hal.o
    0x200000b9   COMPRESSED   0x00000003   PAD
    0x200000bc   COMPRESSED   0x00000004   Data   RW         3996    .data               system_stm32f4xx.o
    0x200000c0   COMPRESSED   0x00000001   Data   RW         4183    .data               usbd_ctlreq.o
    0x200000c1   COMPRESSED   0x00000003   PAD
    0x200000c4   COMPRESSED   0x0000010f   Data   RW         4346    .data               usbd_cdc.o
    0x200001d3   COMPRESSED   0x00000001   PAD
    0x200001d4   COMPRESSED   0x00000004   Data   RW         4773    .data               mc_w.l(stdout.o)
    0x200001d8   COMPRESSED   0x00000004   Data   RW         4782    .data               mc_w.l(mvars.o)
    0x200001dc   COMPRESSED   0x00000004   Data   RW         4783    .data               mc_w.l(mvars.o)
    0x200001e0        -       0x00000446   Zero   RW           29    .bss                sbus.o
    0x20000626   COMPRESSED   0x00000002   PAD
    0x20000628        -       0x0000039e   Zero   RW          291    .bss                main.o
    0x200009c6   COMPRESSED   0x00000002   PAD
    0x200009c8        -       0x000002d0   Zero   RW          380    .bss                usb_device.o
    0x20000c98        -       0x00000408   Zero   RW          439    .bss                usbd_conf.o
    0x200010a0        -       0x00000200   Zero   RW          614    .bss                usbd_desc.o
    0x200012a0        -       0x00001000   Zero   RW          701    .bss                usbd_cdc_if.o
    0x200022a0        -       0x00000800   Zero   RW            2    HEAP                startup_stm32f407xx.o
    0x20002aa0        -       0x00000800   Zero   RW            1    STACK               startup_stm32f407xx.o


==============================================================================

Image component sizes


      Code (inc. data)   RO Data    RW Data    ZI Data      Debug   Object Name

      1490        114          0          0        926       8690   main.o
      3368        366          0         52       1094     711898   sbus.o
        36          8        392          0       4096        836   startup_stm32f407xx.o
       212         36          0          9          0       9397   stm32f4xx_hal.o
       304         22          0          0          0      34463   stm32f4xx_hal_cortex.o
      1434         16          8          0          0       7038   stm32f4xx_hal_dma.o
       512         46          0          0          0       1660   stm32f4xx_hal_gpio.o
      1308        100          0          0          0       4474   stm32f4xx_hal_msp.o
      3228         14          0          0          0      12893   stm32f4xx_hal_pcd.o
        90          0          0          0          0       2437   stm32f4xx_hal_pcd_ex.o
      1800         84          0          0          0       5620   stm32f4xx_hal_rcc.o
      2240         90          0          0          0      18299   stm32f4xx_hal_tim.o
       184         30          0          0          0       2501   stm32f4xx_hal_tim_ex.o
      2622         26          0          0          0      14455   stm32f4xx_hal_uart.o
       788        156          0         24          0      11086   stm32f4xx_it.o
      3782        102          0          0          0      22686   stm32f4xx_ll_usb.o
        28          4         24          4          0       1131   system_stm32f4xx.o
        76         16          0          0        720        748   usb_device.o
      1000         24          0        271          0      13541   usbd_cdc.o
       220         28          0         20       4096       4100   usbd_cdc_if.o
       990         18          0          0       1032      15744   usbd_conf.o
       902          0          0          0          0      13261   usbd_core.o
      2160         28          0          1          0      16908   usbd_ctlreq.o
       386        122          0         78        512       6629   usbd_desc.o
       174          0          0          0          0       4724   usbd_ioreq.o

    ----------------------------------------------------------------------
     29378       1450        456        468      12480     945219   Object Totals
         0          0         32          0          0          0   (incl. Generated)
        44          0          0          9          4          0   (incl. Padding)

    ----------------------------------------------------------------------

      Code (inc. data)   RO Data    RW Data    ZI Data      Debug   Library Member Name

        20          0          0          0          0        124   fabs.o
        86          0          0          0          0          0   __dczerorl2.o
         0          0          0          0          0          0   entry.o
         0          0          0          0          0          0   entry10a.o
         0          0          0          0          0          0   entry11a.o
         8          4          0          0          0          0   entry2.o
         4          0          0          0          0          0   entry5.o
         0          0          0          0          0          0   entry7b.o
         0          0          0          0          0          0   entry8b.o
         8          4          0          0          0          0   entry9a.o
        30          0          0          0          0          0   handlers.o
        36          8          0          0          0         68   init.o
         0          0          0          0          0          0   iusefp.o
        30          0          0          0          0         68   llshl.o
        36          0          0          0          0         68   llsshr.o
        32          0          0          0          0         68   llushr.o
       188         20          0          0          0        160   malloc.o
        36          0          0          0          0         68   memcpya.o
        36          0          0          0          0        108   memseta.o
         0          0          0          8          0          0   mvars.o
      2308         96          0          0          0        604   printfa.o
         0          0          0          4          0          0   stdout.o
        14          0          0          0          0         68   strlen.o
        44          0          0          0          0         80   uidiv.o
        98          0          0          0          0         92   uldiv.o
        48          0          0          0          0         68   cdcmple.o
        48          0          0          0          0         68   cdrcmple.o
        56          0          0          0          0         88   d2f.o
       334          0          0          0          0        148   dadd.o
       222          0          0          0          0        100   ddiv.o
       186          0          0          0          0        176   depilogue.o
        62          0          0          0          0         80   dfixi.o
        48          0          0          0          0         68   dfixul.o
        34          0          0          0          0         76   dflti.o
       228          0          0          0          0         96   dmul.o
        38          0          0          0          0         68   f2d.o
       110          0          0          0          0        168   fepilogue.o

    ----------------------------------------------------------------------
      4434        132          0         12          0       2780   Library Totals
         6          0          0          0          0          0   (incl. Padding)

    ----------------------------------------------------------------------

      Code (inc. data)   RO Data    RW Data    ZI Data      Debug   Library Name

        20          0          0          0          0        124   m_wm.l
      2994        132          0         12          0       1452   mc_w.l
      1414          0          0          0          0       1204   mf_w.l

    ----------------------------------------------------------------------
      4434        132          0         12          0       2780   Library Totals

    ----------------------------------------------------------------------

==============================================================================


      Code (inc. data)   RO Data    RW Data    ZI Data      Debug   

     33812       1582        456        480      12480     920679   Grand Totals
     33812       1582        456        200      12480     920679   ELF Image Totals (compressed)
     33812       1582        456        200          0          0   ROM Totals

==============================================================================

    Total RO  Size (Code + RO Data)                34268 (  33.46kB)
    Total RW  Size (RW Data + ZI Data)             12960 (  12.66kB)
    Total ROM Size (Code + RO Data + RW Data)      34468 (  33.66kB)

==============================================================================

